{
  "contracts/RafflesContract.sol": {
    "RafflesContract": {
      "abi": [
        {
          "inputs": [
            {
              "internalType": "address",
              "name": "_contractOwner",
              "type": "address"
            }
          ],
          "stateMutability": "nonpayable",
          "type": "constructor"
        },
        {
          "anonymous": false,
          "inputs": [
            {
              "indexed": true,
              "internalType": "address",
              "name": "previousOwner",
              "type": "address"
            },
            {
              "indexed": true,
              "internalType": "address",
              "name": "newOwner",
              "type": "address"
            }
          ],
          "name": "OwnershipTransferred",
          "type": "event"
        },
        {
          "anonymous": false,
          "inputs": [
            {
              "indexed": true,
              "internalType": "uint256",
              "name": "raffleId",
              "type": "uint256"
            },
            {
              "indexed": false,
              "internalType": "address",
              "name": "staker",
              "type": "address"
            },
            {
              "indexed": false,
              "internalType": "address",
              "name": "prizeAddress",
              "type": "address"
            },
            {
              "indexed": false,
              "internalType": "uint256",
              "name": "prizeId",
              "type": "uint256"
            },
            {
              "indexed": false,
              "internalType": "uint256",
              "name": "prizeValue",
              "type": "uint256"
            }
          ],
          "name": "RaffleClaimPrize",
          "type": "event"
        },
        {
          "anonymous": false,
          "inputs": [
            {
              "indexed": true,
              "internalType": "uint256",
              "name": "raffleId",
              "type": "uint256"
            },
            {
              "indexed": false,
              "internalType": "uint256",
              "name": "randomNumber",
              "type": "uint256"
            }
          ],
          "name": "RaffleRandomNumber",
          "type": "event"
        },
        {
          "anonymous": false,
          "inputs": [
            {
              "indexed": true,
              "internalType": "uint256",
              "name": "raffleId",
              "type": "uint256"
            },
            {
              "indexed": false,
              "internalType": "address",
              "name": "staker",
              "type": "address"
            },
            {
              "components": [
                {
                  "internalType": "address",
                  "name": "stakeAddress",
                  "type": "address"
                },
                {
                  "internalType": "uint256",
                  "name": "stakeId",
                  "type": "uint256"
                },
                {
                  "internalType": "uint256",
                  "name": "stakeValue",
                  "type": "uint256"
                }
              ],
              "indexed": false,
              "internalType": "struct RafflesContract.StakeItemInput[]",
              "name": "stakeItems",
              "type": "tuple[]"
            }
          ],
          "name": "RaffleStaker",
          "type": "event"
        },
        {
          "anonymous": false,
          "inputs": [
            {
              "indexed": true,
              "internalType": "uint256",
              "name": "raffleId",
              "type": "uint256"
            },
            {
              "indexed": false,
              "internalType": "uint256",
              "name": "raffleEnd",
              "type": "uint256"
            },
            {
              "components": [
                {
                  "internalType": "address",
                  "name": "stakeAddress",
                  "type": "address"
                },
                {
                  "internalType": "uint256",
                  "name": "stakeId",
                  "type": "uint256"
                },
                {
                  "internalType": "address",
                  "name": "prizeAddress",
                  "type": "address"
                },
                {
                  "internalType": "uint256",
                  "name": "prizeId",
                  "type": "uint256"
                },
                {
                  "internalType": "uint256",
                  "name": "prizeValue",
                  "type": "uint256"
                }
              ],
              "indexed": false,
              "internalType": "struct RaffleItem[]",
              "name": "raffleItems",
              "type": "tuple[]"
            }
          ],
          "name": "RaffleStarted",
          "type": "event"
        },
        {
          "inputs": [
            {
              "internalType": "uint256",
              "name": "_raffleId",
              "type": "uint256"
            }
          ],
          "name": "claimPrize",
          "outputs": [],
          "stateMutability": "nonpayable",
          "type": "function"
        },
        {
          "inputs": [
            {
              "internalType": "uint256",
              "name": "_raffleId",
              "type": "uint256"
            }
          ],
          "name": "drawRandomNumber",
          "outputs": [],
          "stateMutability": "nonpayable",
          "type": "function"
        },
        {
          "inputs": [
            {
              "internalType": "address",
              "name": "_operator",
              "type": "address"
            },
            {
              "internalType": "address",
              "name": "_from",
              "type": "address"
            },
            {
              "internalType": "uint256",
              "name": "_id",
              "type": "uint256"
            },
            {
              "internalType": "uint256",
              "name": "_value",
              "type": "uint256"
            },
            {
              "internalType": "bytes",
              "name": "_data",
              "type": "bytes"
            }
          ],
          "name": "onERC1155Received",
          "outputs": [
            {
              "internalType": "bytes4",
              "name": "",
              "type": "bytes4"
            }
          ],
          "stateMutability": "view",
          "type": "function"
        },
        {
          "inputs": [],
          "name": "openRaffles",
          "outputs": [
            {
              "components": [
                {
                  "internalType": "uint256",
                  "name": "raffleId",
                  "type": "uint256"
                },
                {
                  "internalType": "uint256",
                  "name": "raffleEnd",
                  "type": "uint256"
                }
              ],
              "internalType": "struct RafflesContract.OpenRaffle[]",
              "name": "openRaffles_",
              "type": "tuple[]"
            }
          ],
          "stateMutability": "view",
          "type": "function"
        },
        {
          "inputs": [],
          "name": "owner",
          "outputs": [
            {
              "internalType": "address",
              "name": "",
              "type": "address"
            }
          ],
          "stateMutability": "view",
          "type": "function"
        },
        {
          "inputs": [
            {
              "internalType": "uint256",
              "name": "_raffleId",
              "type": "uint256"
            }
          ],
          "name": "raffleInfo",
          "outputs": [
            {
              "internalType": "uint256",
              "name": "raffleEnd_",
              "type": "uint256"
            },
            {
              "components": [
                {
                  "internalType": "address",
                  "name": "stakeAddress",
                  "type": "address"
                },
                {
                  "internalType": "uint256",
                  "name": "stakeId",
                  "type": "uint256"
                },
                {
                  "internalType": "address",
                  "name": "prizeAddress",
                  "type": "address"
                },
                {
                  "internalType": "uint256",
                  "name": "prizeId",
                  "type": "uint256"
                },
                {
                  "internalType": "uint256",
                  "name": "prizeValue",
                  "type": "uint256"
                }
              ],
              "internalType": "struct RaffleItem[]",
              "name": "raffleItems_",
              "type": "tuple[]"
            }
          ],
          "stateMutability": "view",
          "type": "function"
        },
        {
          "inputs": [],
          "name": "raffleSupply",
          "outputs": [
            {
              "internalType": "uint256",
              "name": "raffleSupply_",
              "type": "uint256"
            }
          ],
          "stateMutability": "view",
          "type": "function"
        },
        {
          "inputs": [
            {
              "internalType": "uint256",
              "name": "_raffleId",
              "type": "uint256"
            },
            {
              "components": [
                {
                  "internalType": "address",
                  "name": "stakeAddress",
                  "type": "address"
                },
                {
                  "internalType": "uint256",
                  "name": "stakeId",
                  "type": "uint256"
                },
                {
                  "internalType": "uint256",
                  "name": "stakeValue",
                  "type": "uint256"
                }
              ],
              "internalType": "struct RafflesContract.StakeItemInput[]",
              "name": "_stakeItems",
              "type": "tuple[]"
            }
          ],
          "name": "stake",
          "outputs": [],
          "stateMutability": "nonpayable",
          "type": "function"
        },
        {
          "inputs": [
            {
              "internalType": "uint256",
              "name": "_raffleId",
              "type": "uint256"
            }
          ],
          "name": "stakerStats",
          "outputs": [
            {
              "components": [
                {
                  "internalType": "address",
                  "name": "stakeAddress",
                  "type": "address"
                },
                {
                  "internalType": "uint256",
                  "name": "stakeId",
                  "type": "uint256"
                },
                {
                  "internalType": "uint256",
                  "name": "numberOfStakers",
                  "type": "uint256"
                },
                {
                  "internalType": "uint256",
                  "name": "stakeTotal",
                  "type": "uint256"
                }
              ],
              "internalType": "struct RafflesContract.StakerStats[]",
              "name": "stakerStats_",
              "type": "tuple[]"
            }
          ],
          "stateMutability": "view",
          "type": "function"
        },
        {
          "inputs": [
            {
              "internalType": "uint256",
              "name": "_raffleEnd",
              "type": "uint256"
            },
            {
              "components": [
                {
                  "internalType": "address",
                  "name": "stakeAddress",
                  "type": "address"
                },
                {
                  "internalType": "uint256",
                  "name": "stakeId",
                  "type": "uint256"
                },
                {
                  "internalType": "address",
                  "name": "prizeAddress",
                  "type": "address"
                },
                {
                  "internalType": "uint256",
                  "name": "prizeId",
                  "type": "uint256"
                },
                {
                  "internalType": "uint256",
                  "name": "prizeValue",
                  "type": "uint256"
                }
              ],
              "internalType": "struct RaffleItem[]",
              "name": "_raffleItems",
              "type": "tuple[]"
            }
          ],
          "name": "startRaffle",
          "outputs": [],
          "stateMutability": "nonpayable",
          "type": "function"
        },
        {
          "inputs": [
            {
              "internalType": "address",
              "name": "_newContractOwner",
              "type": "address"
            }
          ],
          "name": "transferOwnership",
          "outputs": [],
          "stateMutability": "nonpayable",
          "type": "function"
        },
        {
          "inputs": [
            {
              "internalType": "uint256",
              "name": "_raffleId",
              "type": "uint256"
            }
          ],
          "name": "winners",
          "outputs": [
            {
              "components": [
                {
                  "internalType": "address",
                  "name": "staker",
                  "type": "address"
                },
                {
                  "internalType": "bool",
                  "name": "claimed",
                  "type": "bool"
                },
                {
                  "internalType": "address",
                  "name": "prizeAddress",
                  "type": "address"
                },
                {
                  "internalType": "uint256",
                  "name": "prizeId",
                  "type": "uint256"
                },
                {
                  "internalType": "uint256",
                  "name": "prizeValue",
                  "type": "uint256"
                }
              ],
              "internalType": "struct RafflesContract.Winner[]",
              "name": "winners_",
              "type": "tuple[]"
            }
          ],
          "stateMutability": "view",
          "type": "function"
        },
        {
          "inputs": [
            {
              "internalType": "uint256",
              "name": "_raffleId",
              "type": "uint256"
            },
            {
              "internalType": "address[]",
              "name": "_stakers",
              "type": "address[]"
            }
          ],
          "name": "winners",
          "outputs": [
            {
              "components": [
                {
                  "internalType": "address",
                  "name": "staker",
                  "type": "address"
                },
                {
                  "internalType": "bool",
                  "name": "claimed",
                  "type": "bool"
                },
                {
                  "internalType": "address",
                  "name": "prizeAddress",
                  "type": "address"
                },
                {
                  "internalType": "uint256",
                  "name": "prizeId",
                  "type": "uint256"
                },
                {
                  "internalType": "uint256",
                  "name": "prizeValue",
                  "type": "uint256"
                }
              ],
              "internalType": "struct RafflesContract.Winner[]",
              "name": "winners_",
              "type": "tuple[]"
            }
          ],
          "stateMutability": "view",
          "type": "function"
        }
      ],
      "evm": {
        "bytecode": {
          "linkReferences": {},
          "object": "60806040523480156200001157600080fd5b5060405162002ba638038062002ba683398101604081905262000034916200005a565b600180546001600160a01b0319166001600160a01b03929092169190911790556200008a565b6000602082840312156200006c578081fd5b81516001600160a01b038116811462000083578182fd5b9392505050565b612b0c806200009a6000396000f3fe608060405234801561001057600080fd5b50600436106100df5760003560e01c8063a2fb11751161008c578063d709815411610066578063d7098154146101c6578063df745925146101d9578063f23a6e61146101ee578063f2fde38b1461020e576100df565b8063a2fb117514610172578063bf30d79014610192578063d1a4692a146101b3576100df565b8063553d6833116100bd578063553d683314610135578063599d127a146101485780638da5cb5b1461015d576100df565b80630da31f46146100e4578063339a64031461010d57806351a749f314610122575b600080fd5b6100f76100f23660046120e4565b610221565b60405161010491906124e9565b60405180910390f35b61012061011b3660046120e4565b610569565b005b61012061013036600461222a565b6106cb565b6101206101433660046121b0565b610b10565b610150610f9f565b6040516101049190612291565b610165610fa5565b60405161010491906122da565b6101856101803660046120e4565b610fc1565b6040516101049190612556565b6101a56101a03660046120e4565b61109a565b604051610104929190612a23565b6101856101c13660046120fc565b611393565b6101206101d43660046120e4565b61181d565b6101e1611c5b565b604051610104919061249a565b6102016101fc366004612043565b611d3d565b60405161010491906125d2565b61012061021c366004612029565b611e57565b6000546060908210610268576040517f08c379a000000000000000000000000000000000000000000000000000000000815260040161025f9061265c565b60405180910390fd5b600080600001838154811061027957fe5b90600052602060002090600802019050806001018054905067ffffffffffffffff811180156102a757600080fd5b506040519080825280602002602001820160405280156102e157816020015b6102ce611f1f565b8152602001906001900390816102c65790505b50915060005b60018201548110156105625781600101818154811061030257fe5b6000918252602090912060039091020154835173ffffffffffffffffffffffffffffffffffffffff9091169084908390811061033a57fe5b602090810291909101015173ffffffffffffffffffffffffffffffffffffffff90911690526001820180548290811061036f57fe5b90600052602060002090600302016001015483828151811061038d57fe5b602002602001015160200181815250508160010181815481106103ac57fe5b9060005260206000209060030201600201548382815181106103ca57fe5b60200260200101516060018181525050600060018360000160008685815181106103f057fe5b60200260200101516000015173ffffffffffffffffffffffffffffffffffffffff1673ffffffffffffffffffffffffffffffffffffffff168152602001908152602001600020600086858151811061044457fe5b60200260200101516020015181526020019081526020016000205403905060005b600584015481101561055857600084600501828154811061048257fe5b600091825260208220015473ffffffffffffffffffffffffffffffffffffffff1691505b73ffffffffffffffffffffffffffffffffffffffff8216600090815260038701602052604090205481101561054e5773ffffffffffffffffffffffffffffffffffffffff82166000908152600387016020526040902080548290811061050857fe5b60009182526020909120015462ffffff168414156105465786858151811061052c57fe5b60209081029190910101516040018051600101905261054e565b6001016104a6565b5050600101610465565b50506001016102e7565b5050919050565b60005481106105a4576040517f08c379a000000000000000000000000000000000000000000000000000000000815260040161025f9061265c565b60008060000182815481106105b557fe5b9060005260206000209060080201905042816007015410610602576040517f08c379a000000000000000000000000000000000000000000000000000000000815260040161025f90612807565b60068101541561063e576040517f08c379a000000000000000000000000000000000000000000000000000000000815260040161025f906128f8565b6000436040516020016106519190612291565b6040516020818303038152906040528051906020012060001c7bffffffffffffffffffffffffffffffffffffffffffffffffffffffff169050827f37e68548bed90aa11745696116f838a60b0bba40fc3f77a139aee9e3b828a08e826040516106ba9190612291565b60405180910390a260069091015550565b6000548310610706576040517f08c379a000000000000000000000000000000000000000000000000000000000815260040161025f9061265c565b600080600001848154811061071757fe5b9060005260206000209060080201905042816007015411610764576040517f08c379a000000000000000000000000000000000000000000000000000000000815260040161025f90612864565b837f2efd8659d1439ae776eb6b979a5711c36addadbc593d16672323d0e57a3572ad338585604051610798939291906123da565b60405180910390a23360009081526003820160205260409020546107f657600581018054600181018255600091825260209091200180547fffffffffffffffffffffffff000000000000000000000000000000000000000016331790555b60005b82811015610b0957600084848381811061080f57fe5b6108259260206060909202019081019150612029565b9050600085858481811061083557fe5b905060600201602001359050600086868581811061084f57fe5b73ffffffffffffffffffffffffffffffffffffffff861660009081526020898152604080832088845290915290819020546060909202939093019290920135925050806108c8576040517f08c379a000000000000000000000000000000000000000000000000000000000815260040161025f90612693565b80806001900391505060008660010182815481106108e257fe5b60009182526020808320600260039384029091010154338452918a0181526040808420815160608101835262ffffff80891682526dffffffffffffffffffffffffffff8087168387019081528b8801808316968501968752855460018181018855968b5297909920935193909601805496519551821671010000000000000000000000000000000000027fff0000000000000000000000000000ffffffffffffffffffffffffffffffffff969092166301000000027fffffffffffffffffffffffffffffff0000000000000000000000000000ffffff949093167fffffffffffffffffffffffffffffffffffffffffffffffffffffffffff0000009097169690961792909216179290921691909117909155890180549193509084908110610a0657fe5b906000526020600020906003020160020181905550888887818110610a2757fe5b610a3d9260206060909202019081019150612029565b73ffffffffffffffffffffffffffffffffffffffff1663f242432a33308c8c8b818110610a6657fe5b905060600201602001358d8d8c818110610a7c57fe5b905060600201604001358f604051602001610a979190612291565b6040516020818303038152906040526040518663ffffffff1660e01b8152600401610ac6959493929190612331565b600060405180830381600087803b158015610ae057600080fd5b505af1158015610af4573d6000803e3d6000fd5b5050600190970196506107f995505050505050565b5050505050565b60015473ffffffffffffffffffffffffffffffffffffffff163314610b61576040517f08c379a000000000000000000000000000000000000000000000000000000000815260040161025f90612955565b42610e10018311610b9e576040517f08c379a000000000000000000000000000000000000000000000000000000000815260040161025f906126f0565b60005460405181907feb019a222c1b7da6901010b3c251b88a20f3895d2d3c9d1f433cface4b93430090610bd79087908790879061298c565b60405180910390a2600080546001810182558180526008027f290decd9548b62a8d60345a988386fc84ba6bc95484008f6362f93160ef3e56a81018690557f290decd9548b62a8d60345a988386fc84ba6bc95484008f6362f93160ef3e56301905b83811015610f97576000858583818110610c4f57fe5b610c6592602060a0909202019081019150612029565b90506000868684818110610c7557fe5b73ffffffffffffffffffffffffffffffffffffffff851660009081526020888152604080832060a09094029590950181013580835292905292909220549192505080610d6857506040805160608101825273ffffffffffffffffffffffffffffffffffffffff8481168083526020808401868152600085870181815260018c8101805480830182558185528685209951600390910290990180547fffffffffffffffffffffffff0000000000000000000000000000000000000000169990981698909817875592519286019290925590516002909401939093559254908252878352838220858352909252919091208190555b84600201600060018303815260200190815260200160002060405180606001604052808a8a88818110610d9757fe5b905060a002016040016020810190610daf9190612029565b73ffffffffffffffffffffffffffffffffffffffff1681526020018a8a88818110610dd657fe5b905060a00201608001356bffffffffffffffffffffffff1681526020018a8a88818110610dff57fe5b60a002919091016060013590915250815460018082018455600093845260209384902083516002909302018054948401517fffffffffffffffffffffffff000000000000000000000000000000000000000090951673ffffffffffffffffffffffffffffffffffffffff93841617909216740100000000000000000000000000000000000000006bffffffffffffffffffffffff90951694909402939093178155604090910151910155878785818110610eb557fe5b905060a002016040016020810190610ecd9190612029565b73ffffffffffffffffffffffffffffffffffffffff1663f242432a33308b8b89818110610ef657fe5b905060a00201606001358c8c8a818110610f0c57fe5b905060a00201608001358b604051602001610f279190612291565b6040516020818303038152906040526040518663ffffffff1660e01b8152600401610f56959493929190612331565b600060405180830381600087803b158015610f7057600080fd5b505af1158015610f84573d6000803e3d6000fd5b505060019095019450610c399350505050565b505050505050565b60005490565b60015473ffffffffffffffffffffffffffffffffffffffff1690565b6000546060908210610fff576040517f08c379a000000000000000000000000000000000000000000000000000000000815260040161025f9061265c565b600080600001838154811061101057fe5b90600052602060002090600802019050611093838260050180548060200260200160405190810160405280929190818152602001828054801561108957602002820191906000526020600020905b815473ffffffffffffffffffffffffffffffffffffffff16815260019091019060200180831161105e575b5050505050611393565b9392505050565b6000805460609083106110d9576040517f08c379a000000000000000000000000000000000000000000000000000000000815260040161025f9061265c565b60008060000184815481106110ea57fe5b90600052602060002090600802019050806007015492506000805b600183015481101561112f5760008181526002840160205260409020549190910190600101611105565b508067ffffffffffffffff8111801561114757600080fd5b5060405190808252806020026020018201604052801561118157816020015b61116e611f5d565b8152602001906001900390816111665790505b5092506000805b600184015481101561138a5760008181526002850160205260408120905b8154811015611380578560010183815481106111be57fe5b6000918252602090912060039091020154875173ffffffffffffffffffffffffffffffffffffffff909116908890869081106111f657fe5b602090810291909101015173ffffffffffffffffffffffffffffffffffffffff90911690526001860180548490811061122b57fe5b90600052602060002090600302016001015487858151811061124957fe5b6020026020010151602001818152505081818154811061126557fe5b6000918252602090912060029091020154875173ffffffffffffffffffffffffffffffffffffffff9091169088908690811061129d57fe5b60200260200101516040019073ffffffffffffffffffffffffffffffffffffffff16908173ffffffffffffffffffffffffffffffffffffffff16815250508181815481106112e757fe5b90600052602060002090600202016001015487858151811061130557fe5b6020026020010151606001818152505081818154811061132157fe5b906000526020600020906002020160000160149054906101000a90046bffffffffffffffffffffffff166bffffffffffffffffffffffff1687858151811061136557fe5b602090810291909101015160800152600193840193016111a6565b5050600101611188565b50505050915091565b60005460609083106113d1576040517f08c379a000000000000000000000000000000000000000000000000000000000815260040161025f9061265c565b60008060000184815481106113e257fe5b906000526020600020906008020190504281600701541061142f576040517f08c379a000000000000000000000000000000000000000000000000000000000815260040161025f90612807565b60068101548061146b576040517f08c379a000000000000000000000000000000000000000000000000000000000815260040161025f906127aa565b6000805b6001840154811015611499576000818152600285016020526040902054919091019060010161146f565b508085510267ffffffffffffffff811180156114b457600080fd5b506040519080825280602002602001820160405280156114ee57816020015b6114db611fb8565b8152602001906001900390816114d35790505b509350506000805b855181101561181157600086828151811061150d57fe5b60209081029190910181015173ffffffffffffffffffffffffffffffffffffffff811660009081526003880190925260408220909250905b815481101561180657600082828154811061155c57fe5b600091825260208220015460018a01805462ffffff9092169350908390811061158157fe5b600091825260208083206002600390930201820154858452918c01905260408220909250905b81548110156117f6576000808383815481106115bf57fe5b60009182526020822060029091020154855473ffffffffffffffffffffffffffffffffffffffff90911692508590859081106115f757fe5b906000526020600020906002020160010154905060005b85858154811061161a57fe5b60009182526020909120600290910201547401000000000000000000000000000000000000000090046bffffffffffffffffffffffff16811015611723576000878f858585604051602001611672949392919061229a565b6040516020818303038152906040528051906020012060001c8161169257fe5b0690508a8a815481106116a157fe5b600091825260209091200154630100000090046dffffffffffffffffffffffffffff16811080159061170e57508a8a815481106116da57fe5b6000918252602090912001547101000000000000000000000000000000000090046dffffffffffffffffffffffffffff1681105b1561171a576001909401935b5060010161160e565b5082156117eb576040518060a001604052808b73ffffffffffffffffffffffffffffffffffffffff1681526020018f60040160003373ffffffffffffffffffffffffffffffffffffffff1673ffffffffffffffffffffffffffffffffffffffff16815260200190815260200160002060009054906101000a900460ff16151581526020018373ffffffffffffffffffffffffffffffffffffffff168152602001828152602001848152508f8d815181106117d957fe5b60209081029190910101526001909b019a5b5050506001016115a7565b5050600190920191506115459050565b5050506001016114f6565b50835250909392505050565b6000548110611858576040517f08c379a000000000000000000000000000000000000000000000000000000000815260040161025f9061265c565b600080600001828154811061186957fe5b90600052602060002090600802019050428160070154106118b6576040517f08c379a000000000000000000000000000000000000000000000000000000000815260040161025f90612807565b6006810154806118f2576040517f08c379a000000000000000000000000000000000000000000000000000000000815260040161025f906127aa565b33600090815260048301602052604090205460ff161561193e576040517f08c379a000000000000000000000000000000000000000000000000000000000815260040161025f9061274d565b336000908152600483016020908152604080832080547fffffffffffffffffffffffffffffffffffffffffffffffffffffffffffffff00166001179055600385019091528120905b8154811015610b0957600082828154811061199d57fe5b6000918252602082200154845463010000009091046dffffffffffffffffffffffffffff1692508490849081106119d057fe5b60009182526020822001548554710100000000000000000000000000000000009091046dffffffffffffffffffffffffffff169250859085908110611a1157fe5b600091825260208220015460018901805462ffffff90921693509083908110611a3657fe5b600091825260208083206002600390930201820154858452918b01905260408220909250905b8154811015611c4957600080838381548110611a7457fe5b60009182526020822060029091020154855473ffffffffffffffffffffffffffffffffffffffff9091169250859085908110611aac57fe5b906000526020600020906002020160010154905060005b858581548110611acf57fe5b60009182526020909120600290910201547401000000000000000000000000000000000000000090046bffffffffffffffffffffffff16811015611b6e576000878e858585604051602001611b27949392919061229a565b6040516020818303038152906040528051906020012060001c81611b4757fe5b0690508a8110158015611b5957508981105b15611b65576001909401935b50600101611ac3565b508215611c3e578d7f61dd2cf3e9f248b4453e8abb61b6ad73c53cf482d1c506f868a3885f533233cf33848487604051611bab94939291906122fb565b60405180910390a26040517ff242432a00000000000000000000000000000000000000000000000000000000815273ffffffffffffffffffffffffffffffffffffffff83169063f242432a90611c0b903090339086908990600401612455565b600060405180830381600087803b158015611c2557600080fd5b505af1158015611c39573d6000803e3d6000fd5b505050505b505050600101611a5c565b50506001909401935061198692505050565b60005460609067ffffffffffffffff81118015611c7757600080fd5b50604051908082528060200260200182016040528015611cb157816020015b611c9e611fe6565b815260200190600190039081611c965790505b5090506000805b600054811015611d37576000806000018281548110611cd357fe5b906000526020600020906008020160070154905042811115611d2e5781848481518110611cfc57fe5b6020026020010151600001818152505080848481518110611d1957fe5b60209081029190910181015101526001909201915b50600101611cb8565b50815290565b600060208214611d79576040517f08c379a000000000000000000000000000000000000000000000000000000000815260040161025f9061289b565b6000611d87838501856120e4565b6000549091508110611dc5576040517f08c379a000000000000000000000000000000000000000000000000000000000815260040161025f9061265c565b6000806000018281548110611dd657fe5b90600052602060002090600802019050600081600701549050428111611e28576040517f08c379a000000000000000000000000000000000000000000000000000000000815260040161025f906125ff565b507ff23a6e61000000000000000000000000000000000000000000000000000000009998505050505050505050565b60015473ffffffffffffffffffffffffffffffffffffffff16338114611ea9576040517f08c379a000000000000000000000000000000000000000000000000000000000815260040161025f90612955565b600180547fffffffffffffffffffffffff00000000000000000000000000000000000000001673ffffffffffffffffffffffffffffffffffffffff84811691821790925560405190918316907f8be0079c531659141344cd1fd0a4f28419497f9722a3daafe3b4186f6b6457e090600090a35050565b6040518060800160405280600073ffffffffffffffffffffffffffffffffffffffff1681526020016000815260200160008152602001600081525090565b6040518060a00160405280600073ffffffffffffffffffffffffffffffffffffffff16815260200160008152602001600073ffffffffffffffffffffffffffffffffffffffff16815260200160008152602001600081525090565b6040805160a08101825260008082526020820181905291810182905260608101829052608081019190915290565b604051806040016040528060008152602001600081525090565b803573ffffffffffffffffffffffffffffffffffffffff8116811461202457600080fd5b919050565b60006020828403121561203a578081fd5b61109382612000565b60008060008060008060a0878903121561205b578182fd5b61206487612000565b955061207260208801612000565b94506040870135935060608701359250608087013567ffffffffffffffff8082111561209c578384fd5b818901915089601f8301126120af578384fd5b8135818111156120bd578485fd5b8a60208285010111156120ce578485fd5b6020830194508093505050509295509295509295565b6000602082840312156120f5578081fd5b5035919050565b6000806040838503121561210e578182fd5b8235915060208084013567ffffffffffffffff8082111561212d578384fd5b818601915086601f830112612140578384fd5b81358181111561214c57fe5b838102915061215c848301612ab2565b8181528481019084860184860187018b1015612176578788fd5b8795505b8386101561219f5761218b81612000565b83526001959095019491860191860161217a565b508096505050505050509250929050565b6000806000604084860312156121c4578283fd5b83359250602084013567ffffffffffffffff808211156121e2578384fd5b818601915086601f8301126121f5578384fd5b813581811115612203578485fd5b87602060a083028501011115612217578485fd5b6020830194508093505050509250925092565b60008060006040848603121561223e578283fd5b83359250602084013567ffffffffffffffff8082111561225c578384fd5b818601915086601f83011261226f578384fd5b81358181111561227d578485fd5b876020606083028501011115612217578485fd5b90815260200190565b93845260609290921b7fffffffffffffffffffffffffffffffffffffffff0000000000000000000000001660208401526034830152605482015260740190565b73ffffffffffffffffffffffffffffffffffffffff91909116815260200190565b73ffffffffffffffffffffffffffffffffffffffff94851681529290931660208301526040820152606081019190915260800190565b600073ffffffffffffffffffffffffffffffffffffffff808816835260208188168185015286604085015285606085015260a06080850152845191508160a0850152825b828110156123915785810182015185820160c001528101612375565b828111156123a2578360c084870101525b5050601f017fffffffffffffffffffffffffffffffffffffffffffffffffffffffffffffffe0169190910160c0019695505050505050565b73ffffffffffffffffffffffffffffffffffffffff84811682526040602080840182905283820185905260009260609182860188865b89811015612445578461242283612000565b168352818401358484015286820135878401529185019190850190600101612410565b50909a9950505050505050505050565b73ffffffffffffffffffffffffffffffffffffffff94851681529290931660208301526040820152606081019190915260a06080820181905260009082015260c00190565b602080825282518282018190526000919060409081850190868401855b828110156124dc578151805185528601518685015292840192908501906001016124b7565b5091979650505050505050565b602080825282518282018190526000919060409081850190868401855b828110156124dc578151805173ffffffffffffffffffffffffffffffffffffffff168552868101518786015285810151868601526060908101519085015260809093019290850190600101612506565b602080825282518282018190526000919060409081850190868401855b828110156124dc578151805173ffffffffffffffffffffffffffffffffffffffff908116865287820151151588870152868201511686860152606080820151908601526080908101519085015260a09093019290850190600101612573565b7fffffffff0000000000000000000000000000000000000000000000000000000091909116815260200190565b60208082526030908201527f526166666c653a2043616e277420616363657074207472616e7366657220666f60408201527f72206578706972656420726166666c6500000000000000000000000000000000606082015260800190565b6020808252601d908201527f526166666c653a20526166666c6520646f6573206e6f74206578697374000000604082015260600190565b60208082526030908201527f526166666c653a205374616b65206974656d20646f65736e277420657869737460408201527f20666f72207468697320726166666c6500000000000000000000000000000000606082015260800190565b6020808252602e908201527f526166666c653a205f726166666c65456e64206d75737420626520677265617460408201527f6572207468616e203120686f7572000000000000000000000000000000000000606082015260800190565b60208082526038908201527f526166666c653a20416e79207072697a657320666f72206163636f756e74206860408201527f61766520616c7265616479206265656e20636c61696d65640000000000000000606082015260800190565b60208082526027908201527f526166666c653a2052616e646f6d206e756d626572206e6f742067656e65726160408201527f7465642079657400000000000000000000000000000000000000000000000000606082015260800190565b60208082526023908201527f526166666c653a20526166666c652074696d6520686173206e6f74206578706960408201527f7265640000000000000000000000000000000000000000000000000000000000606082015260800190565b6020808252601f908201527f526166666c653a20526166666c652074696d6520686173206578706972656400604082015260600190565b60208082526027908201527f526166666c653a20496e636f727265637420646174612073656e74206f6e207460408201527f72616e7366657200000000000000000000000000000000000000000000000000606082015260800190565b60208082526027908201527f526166666c653a2052616e646f6d206e756d62657220616c726561647920676560408201527f6e65726174656400000000000000000000000000000000000000000000000000606082015260800190565b6020808252601e908201527f526166666c653a204d75737420626520636f6e7472616374206f776e65720000604082015260600190565b838152604060208083018290528282018490526000919060609081850187855b88811015612a145773ffffffffffffffffffffffffffffffffffffffff806129d384612000565b1684528483013585850152806129ea888501612000565b16848801525081850135858401526080808301359084015260a092830192909101906001016129ac565b50909998505050505050505050565b6000604080830185845260208281860152818651808452606093508387019150828801865b82811015612aa3578151805173ffffffffffffffffffffffffffffffffffffffff9081168652868201518787015288820151168886015286810151878601526080908101519085015260a09093019290840190600101612a48565b50919998505050505050505050565b60405181810167ffffffffffffffff81118282101715612ace57fe5b60405291905056fea264697066735822122083d82128229c7a5b24fbef0259604b7f3b14151f50e1522d2e1fe27124545ea064736f6c63430007040033",
          "opcodes": "PUSH1 0x80 PUSH1 0x40 MSTORE CALLVALUE DUP1 ISZERO PUSH3 0x11 JUMPI PUSH1 0x0 DUP1 REVERT JUMPDEST POP PUSH1 0x40 MLOAD PUSH3 0x2BA6 CODESIZE SUB DUP1 PUSH3 0x2BA6 DUP4 CODECOPY DUP2 ADD PUSH1 0x40 DUP2 SWAP1 MSTORE PUSH3 0x34 SWAP2 PUSH3 0x5A JUMP JUMPDEST PUSH1 0x1 DUP1 SLOAD PUSH1 0x1 PUSH1 0x1 PUSH1 0xA0 SHL SUB NOT AND PUSH1 0x1 PUSH1 0x1 PUSH1 0xA0 SHL SUB SWAP3 SWAP1 SWAP3 AND SWAP2 SWAP1 SWAP2 OR SWAP1 SSTORE PUSH3 0x8A JUMP JUMPDEST PUSH1 0x0 PUSH1 0x20 DUP3 DUP5 SUB SLT ISZERO PUSH3 0x6C JUMPI DUP1 DUP2 REVERT JUMPDEST DUP2 MLOAD PUSH1 0x1 PUSH1 0x1 PUSH1 0xA0 SHL SUB DUP2 AND DUP2 EQ PUSH3 0x83 JUMPI DUP2 DUP3 REVERT JUMPDEST SWAP4 SWAP3 POP POP POP JUMP JUMPDEST PUSH2 0x2B0C DUP1 PUSH3 0x9A PUSH1 0x0 CODECOPY PUSH1 0x0 RETURN INVALID PUSH1 0x80 PUSH1 0x40 MSTORE CALLVALUE DUP1 ISZERO PUSH2 0x10 JUMPI PUSH1 0x0 DUP1 REVERT JUMPDEST POP PUSH1 0x4 CALLDATASIZE LT PUSH2 0xDF JUMPI PUSH1 0x0 CALLDATALOAD PUSH1 0xE0 SHR DUP1 PUSH4 0xA2FB1175 GT PUSH2 0x8C JUMPI DUP1 PUSH4 0xD7098154 GT PUSH2 0x66 JUMPI DUP1 PUSH4 0xD7098154 EQ PUSH2 0x1C6 JUMPI DUP1 PUSH4 0xDF745925 EQ PUSH2 0x1D9 JUMPI DUP1 PUSH4 0xF23A6E61 EQ PUSH2 0x1EE JUMPI DUP1 PUSH4 0xF2FDE38B EQ PUSH2 0x20E JUMPI PUSH2 0xDF JUMP JUMPDEST DUP1 PUSH4 0xA2FB1175 EQ PUSH2 0x172 JUMPI DUP1 PUSH4 0xBF30D790 EQ PUSH2 0x192 JUMPI DUP1 PUSH4 0xD1A4692A EQ PUSH2 0x1B3 JUMPI PUSH2 0xDF JUMP JUMPDEST DUP1 PUSH4 0x553D6833 GT PUSH2 0xBD JUMPI DUP1 PUSH4 0x553D6833 EQ PUSH2 0x135 JUMPI DUP1 PUSH4 0x599D127A EQ PUSH2 0x148 JUMPI DUP1 PUSH4 0x8DA5CB5B EQ PUSH2 0x15D JUMPI PUSH2 0xDF JUMP JUMPDEST DUP1 PUSH4 0xDA31F46 EQ PUSH2 0xE4 JUMPI DUP1 PUSH4 0x339A6403 EQ PUSH2 0x10D JUMPI DUP1 PUSH4 0x51A749F3 EQ PUSH2 0x122 JUMPI JUMPDEST PUSH1 0x0 DUP1 REVERT JUMPDEST PUSH2 0xF7 PUSH2 0xF2 CALLDATASIZE PUSH1 0x4 PUSH2 0x20E4 JUMP JUMPDEST PUSH2 0x221 JUMP JUMPDEST PUSH1 0x40 MLOAD PUSH2 0x104 SWAP2 SWAP1 PUSH2 0x24E9 JUMP JUMPDEST PUSH1 0x40 MLOAD DUP1 SWAP2 SUB SWAP1 RETURN JUMPDEST PUSH2 0x120 PUSH2 0x11B CALLDATASIZE PUSH1 0x4 PUSH2 0x20E4 JUMP JUMPDEST PUSH2 0x569 JUMP JUMPDEST STOP JUMPDEST PUSH2 0x120 PUSH2 0x130 CALLDATASIZE PUSH1 0x4 PUSH2 0x222A JUMP JUMPDEST PUSH2 0x6CB JUMP JUMPDEST PUSH2 0x120 PUSH2 0x143 CALLDATASIZE PUSH1 0x4 PUSH2 0x21B0 JUMP JUMPDEST PUSH2 0xB10 JUMP JUMPDEST PUSH2 0x150 PUSH2 0xF9F JUMP JUMPDEST PUSH1 0x40 MLOAD PUSH2 0x104 SWAP2 SWAP1 PUSH2 0x2291 JUMP JUMPDEST PUSH2 0x165 PUSH2 0xFA5 JUMP JUMPDEST PUSH1 0x40 MLOAD PUSH2 0x104 SWAP2 SWAP1 PUSH2 0x22DA JUMP JUMPDEST PUSH2 0x185 PUSH2 0x180 CALLDATASIZE PUSH1 0x4 PUSH2 0x20E4 JUMP JUMPDEST PUSH2 0xFC1 JUMP JUMPDEST PUSH1 0x40 MLOAD PUSH2 0x104 SWAP2 SWAP1 PUSH2 0x2556 JUMP JUMPDEST PUSH2 0x1A5 PUSH2 0x1A0 CALLDATASIZE PUSH1 0x4 PUSH2 0x20E4 JUMP JUMPDEST PUSH2 0x109A JUMP JUMPDEST PUSH1 0x40 MLOAD PUSH2 0x104 SWAP3 SWAP2 SWAP1 PUSH2 0x2A23 JUMP JUMPDEST PUSH2 0x185 PUSH2 0x1C1 CALLDATASIZE PUSH1 0x4 PUSH2 0x20FC JUMP JUMPDEST PUSH2 0x1393 JUMP JUMPDEST PUSH2 0x120 PUSH2 0x1D4 CALLDATASIZE PUSH1 0x4 PUSH2 0x20E4 JUMP JUMPDEST PUSH2 0x181D JUMP JUMPDEST PUSH2 0x1E1 PUSH2 0x1C5B JUMP JUMPDEST PUSH1 0x40 MLOAD PUSH2 0x104 SWAP2 SWAP1 PUSH2 0x249A JUMP JUMPDEST PUSH2 0x201 PUSH2 0x1FC CALLDATASIZE PUSH1 0x4 PUSH2 0x2043 JUMP JUMPDEST PUSH2 0x1D3D JUMP JUMPDEST PUSH1 0x40 MLOAD PUSH2 0x104 SWAP2 SWAP1 PUSH2 0x25D2 JUMP JUMPDEST PUSH2 0x120 PUSH2 0x21C CALLDATASIZE PUSH1 0x4 PUSH2 0x2029 JUMP JUMPDEST PUSH2 0x1E57 JUMP JUMPDEST PUSH1 0x0 SLOAD PUSH1 0x60 SWAP1 DUP3 LT PUSH2 0x268 JUMPI PUSH1 0x40 MLOAD PUSH32 0x8C379A000000000000000000000000000000000000000000000000000000000 DUP2 MSTORE PUSH1 0x4 ADD PUSH2 0x25F SWAP1 PUSH2 0x265C JUMP JUMPDEST PUSH1 0x40 MLOAD DUP1 SWAP2 SUB SWAP1 REVERT JUMPDEST PUSH1 0x0 DUP1 PUSH1 0x0 ADD DUP4 DUP2 SLOAD DUP2 LT PUSH2 0x279 JUMPI INVALID JUMPDEST SWAP1 PUSH1 0x0 MSTORE PUSH1 0x20 PUSH1 0x0 KECCAK256 SWAP1 PUSH1 0x8 MUL ADD SWAP1 POP DUP1 PUSH1 0x1 ADD DUP1 SLOAD SWAP1 POP PUSH8 0xFFFFFFFFFFFFFFFF DUP2 GT DUP1 ISZERO PUSH2 0x2A7 JUMPI PUSH1 0x0 DUP1 REVERT JUMPDEST POP PUSH1 0x40 MLOAD SWAP1 DUP1 DUP3 MSTORE DUP1 PUSH1 0x20 MUL PUSH1 0x20 ADD DUP3 ADD PUSH1 0x40 MSTORE DUP1 ISZERO PUSH2 0x2E1 JUMPI DUP2 PUSH1 0x20 ADD JUMPDEST PUSH2 0x2CE PUSH2 0x1F1F JUMP JUMPDEST DUP2 MSTORE PUSH1 0x20 ADD SWAP1 PUSH1 0x1 SWAP1 SUB SWAP1 DUP2 PUSH2 0x2C6 JUMPI SWAP1 POP JUMPDEST POP SWAP2 POP PUSH1 0x0 JUMPDEST PUSH1 0x1 DUP3 ADD SLOAD DUP2 LT ISZERO PUSH2 0x562 JUMPI DUP2 PUSH1 0x1 ADD DUP2 DUP2 SLOAD DUP2 LT PUSH2 0x302 JUMPI INVALID JUMPDEST PUSH1 0x0 SWAP2 DUP3 MSTORE PUSH1 0x20 SWAP1 SWAP2 KECCAK256 PUSH1 0x3 SWAP1 SWAP2 MUL ADD SLOAD DUP4 MLOAD PUSH20 0xFFFFFFFFFFFFFFFFFFFFFFFFFFFFFFFFFFFFFFFF SWAP1 SWAP2 AND SWAP1 DUP5 SWAP1 DUP4 SWAP1 DUP2 LT PUSH2 0x33A JUMPI INVALID JUMPDEST PUSH1 0x20 SWAP1 DUP2 MUL SWAP2 SWAP1 SWAP2 ADD ADD MLOAD PUSH20 0xFFFFFFFFFFFFFFFFFFFFFFFFFFFFFFFFFFFFFFFF SWAP1 SWAP2 AND SWAP1 MSTORE PUSH1 0x1 DUP3 ADD DUP1 SLOAD DUP3 SWAP1 DUP2 LT PUSH2 0x36F JUMPI INVALID JUMPDEST SWAP1 PUSH1 0x0 MSTORE PUSH1 0x20 PUSH1 0x0 KECCAK256 SWAP1 PUSH1 0x3 MUL ADD PUSH1 0x1 ADD SLOAD DUP4 DUP3 DUP2 MLOAD DUP2 LT PUSH2 0x38D JUMPI INVALID JUMPDEST PUSH1 0x20 MUL PUSH1 0x20 ADD ADD MLOAD PUSH1 0x20 ADD DUP2 DUP2 MSTORE POP POP DUP2 PUSH1 0x1 ADD DUP2 DUP2 SLOAD DUP2 LT PUSH2 0x3AC JUMPI INVALID JUMPDEST SWAP1 PUSH1 0x0 MSTORE PUSH1 0x20 PUSH1 0x0 KECCAK256 SWAP1 PUSH1 0x3 MUL ADD PUSH1 0x2 ADD SLOAD DUP4 DUP3 DUP2 MLOAD DUP2 LT PUSH2 0x3CA JUMPI INVALID JUMPDEST PUSH1 0x20 MUL PUSH1 0x20 ADD ADD MLOAD PUSH1 0x60 ADD DUP2 DUP2 MSTORE POP POP PUSH1 0x0 PUSH1 0x1 DUP4 PUSH1 0x0 ADD PUSH1 0x0 DUP7 DUP6 DUP2 MLOAD DUP2 LT PUSH2 0x3F0 JUMPI INVALID JUMPDEST PUSH1 0x20 MUL PUSH1 0x20 ADD ADD MLOAD PUSH1 0x0 ADD MLOAD PUSH20 0xFFFFFFFFFFFFFFFFFFFFFFFFFFFFFFFFFFFFFFFF AND PUSH20 0xFFFFFFFFFFFFFFFFFFFFFFFFFFFFFFFFFFFFFFFF AND DUP2 MSTORE PUSH1 0x20 ADD SWAP1 DUP2 MSTORE PUSH1 0x20 ADD PUSH1 0x0 KECCAK256 PUSH1 0x0 DUP7 DUP6 DUP2 MLOAD DUP2 LT PUSH2 0x444 JUMPI INVALID JUMPDEST PUSH1 0x20 MUL PUSH1 0x20 ADD ADD MLOAD PUSH1 0x20 ADD MLOAD DUP2 MSTORE PUSH1 0x20 ADD SWAP1 DUP2 MSTORE PUSH1 0x20 ADD PUSH1 0x0 KECCAK256 SLOAD SUB SWAP1 POP PUSH1 0x0 JUMPDEST PUSH1 0x5 DUP5 ADD SLOAD DUP2 LT ISZERO PUSH2 0x558 JUMPI PUSH1 0x0 DUP5 PUSH1 0x5 ADD DUP3 DUP2 SLOAD DUP2 LT PUSH2 0x482 JUMPI INVALID JUMPDEST PUSH1 0x0 SWAP2 DUP3 MSTORE PUSH1 0x20 DUP3 KECCAK256 ADD SLOAD PUSH20 0xFFFFFFFFFFFFFFFFFFFFFFFFFFFFFFFFFFFFFFFF AND SWAP2 POP JUMPDEST PUSH20 0xFFFFFFFFFFFFFFFFFFFFFFFFFFFFFFFFFFFFFFFF DUP3 AND PUSH1 0x0 SWAP1 DUP2 MSTORE PUSH1 0x3 DUP8 ADD PUSH1 0x20 MSTORE PUSH1 0x40 SWAP1 KECCAK256 SLOAD DUP2 LT ISZERO PUSH2 0x54E JUMPI PUSH20 0xFFFFFFFFFFFFFFFFFFFFFFFFFFFFFFFFFFFFFFFF DUP3 AND PUSH1 0x0 SWAP1 DUP2 MSTORE PUSH1 0x3 DUP8 ADD PUSH1 0x20 MSTORE PUSH1 0x40 SWAP1 KECCAK256 DUP1 SLOAD DUP3 SWAP1 DUP2 LT PUSH2 0x508 JUMPI INVALID JUMPDEST PUSH1 0x0 SWAP2 DUP3 MSTORE PUSH1 0x20 SWAP1 SWAP2 KECCAK256 ADD SLOAD PUSH3 0xFFFFFF AND DUP5 EQ ISZERO PUSH2 0x546 JUMPI DUP7 DUP6 DUP2 MLOAD DUP2 LT PUSH2 0x52C JUMPI INVALID JUMPDEST PUSH1 0x20 SWAP1 DUP2 MUL SWAP2 SWAP1 SWAP2 ADD ADD MLOAD PUSH1 0x40 ADD DUP1 MLOAD PUSH1 0x1 ADD SWAP1 MSTORE PUSH2 0x54E JUMP JUMPDEST PUSH1 0x1 ADD PUSH2 0x4A6 JUMP JUMPDEST POP POP PUSH1 0x1 ADD PUSH2 0x465 JUMP JUMPDEST POP POP PUSH1 0x1 ADD PUSH2 0x2E7 JUMP JUMPDEST POP POP SWAP2 SWAP1 POP JUMP JUMPDEST PUSH1 0x0 SLOAD DUP2 LT PUSH2 0x5A4 JUMPI PUSH1 0x40 MLOAD PUSH32 0x8C379A000000000000000000000000000000000000000000000000000000000 DUP2 MSTORE PUSH1 0x4 ADD PUSH2 0x25F SWAP1 PUSH2 0x265C JUMP JUMPDEST PUSH1 0x0 DUP1 PUSH1 0x0 ADD DUP3 DUP2 SLOAD DUP2 LT PUSH2 0x5B5 JUMPI INVALID JUMPDEST SWAP1 PUSH1 0x0 MSTORE PUSH1 0x20 PUSH1 0x0 KECCAK256 SWAP1 PUSH1 0x8 MUL ADD SWAP1 POP TIMESTAMP DUP2 PUSH1 0x7 ADD SLOAD LT PUSH2 0x602 JUMPI PUSH1 0x40 MLOAD PUSH32 0x8C379A000000000000000000000000000000000000000000000000000000000 DUP2 MSTORE PUSH1 0x4 ADD PUSH2 0x25F SWAP1 PUSH2 0x2807 JUMP JUMPDEST PUSH1 0x6 DUP2 ADD SLOAD ISZERO PUSH2 0x63E JUMPI PUSH1 0x40 MLOAD PUSH32 0x8C379A000000000000000000000000000000000000000000000000000000000 DUP2 MSTORE PUSH1 0x4 ADD PUSH2 0x25F SWAP1 PUSH2 0x28F8 JUMP JUMPDEST PUSH1 0x0 NUMBER PUSH1 0x40 MLOAD PUSH1 0x20 ADD PUSH2 0x651 SWAP2 SWAP1 PUSH2 0x2291 JUMP JUMPDEST PUSH1 0x40 MLOAD PUSH1 0x20 DUP2 DUP4 SUB SUB DUP2 MSTORE SWAP1 PUSH1 0x40 MSTORE DUP1 MLOAD SWAP1 PUSH1 0x20 ADD KECCAK256 PUSH1 0x0 SHR PUSH28 0xFFFFFFFFFFFFFFFFFFFFFFFFFFFFFFFFFFFFFFFFFFFFFFFFFFFFFFFF AND SWAP1 POP DUP3 PUSH32 0x37E68548BED90AA11745696116F838A60B0BBA40FC3F77A139AEE9E3B828A08E DUP3 PUSH1 0x40 MLOAD PUSH2 0x6BA SWAP2 SWAP1 PUSH2 0x2291 JUMP JUMPDEST PUSH1 0x40 MLOAD DUP1 SWAP2 SUB SWAP1 LOG2 PUSH1 0x6 SWAP1 SWAP2 ADD SSTORE POP JUMP JUMPDEST PUSH1 0x0 SLOAD DUP4 LT PUSH2 0x706 JUMPI PUSH1 0x40 MLOAD PUSH32 0x8C379A000000000000000000000000000000000000000000000000000000000 DUP2 MSTORE PUSH1 0x4 ADD PUSH2 0x25F SWAP1 PUSH2 0x265C JUMP JUMPDEST PUSH1 0x0 DUP1 PUSH1 0x0 ADD DUP5 DUP2 SLOAD DUP2 LT PUSH2 0x717 JUMPI INVALID JUMPDEST SWAP1 PUSH1 0x0 MSTORE PUSH1 0x20 PUSH1 0x0 KECCAK256 SWAP1 PUSH1 0x8 MUL ADD SWAP1 POP TIMESTAMP DUP2 PUSH1 0x7 ADD SLOAD GT PUSH2 0x764 JUMPI PUSH1 0x40 MLOAD PUSH32 0x8C379A000000000000000000000000000000000000000000000000000000000 DUP2 MSTORE PUSH1 0x4 ADD PUSH2 0x25F SWAP1 PUSH2 0x2864 JUMP JUMPDEST DUP4 PUSH32 0x2EFD8659D1439AE776EB6B979A5711C36ADDADBC593D16672323D0E57A3572AD CALLER DUP6 DUP6 PUSH1 0x40 MLOAD PUSH2 0x798 SWAP4 SWAP3 SWAP2 SWAP1 PUSH2 0x23DA JUMP JUMPDEST PUSH1 0x40 MLOAD DUP1 SWAP2 SUB SWAP1 LOG2 CALLER PUSH1 0x0 SWAP1 DUP2 MSTORE PUSH1 0x3 DUP3 ADD PUSH1 0x20 MSTORE PUSH1 0x40 SWAP1 KECCAK256 SLOAD PUSH2 0x7F6 JUMPI PUSH1 0x5 DUP2 ADD DUP1 SLOAD PUSH1 0x1 DUP2 ADD DUP3 SSTORE PUSH1 0x0 SWAP2 DUP3 MSTORE PUSH1 0x20 SWAP1 SWAP2 KECCAK256 ADD DUP1 SLOAD PUSH32 0xFFFFFFFFFFFFFFFFFFFFFFFF0000000000000000000000000000000000000000 AND CALLER OR SWAP1 SSTORE JUMPDEST PUSH1 0x0 JUMPDEST DUP3 DUP2 LT ISZERO PUSH2 0xB09 JUMPI PUSH1 0x0 DUP5 DUP5 DUP4 DUP2 DUP2 LT PUSH2 0x80F JUMPI INVALID JUMPDEST PUSH2 0x825 SWAP3 PUSH1 0x20 PUSH1 0x60 SWAP1 SWAP3 MUL ADD SWAP1 DUP2 ADD SWAP2 POP PUSH2 0x2029 JUMP JUMPDEST SWAP1 POP PUSH1 0x0 DUP6 DUP6 DUP5 DUP2 DUP2 LT PUSH2 0x835 JUMPI INVALID JUMPDEST SWAP1 POP PUSH1 0x60 MUL ADD PUSH1 0x20 ADD CALLDATALOAD SWAP1 POP PUSH1 0x0 DUP7 DUP7 DUP6 DUP2 DUP2 LT PUSH2 0x84F JUMPI INVALID JUMPDEST PUSH20 0xFFFFFFFFFFFFFFFFFFFFFFFFFFFFFFFFFFFFFFFF DUP7 AND PUSH1 0x0 SWAP1 DUP2 MSTORE PUSH1 0x20 DUP10 DUP2 MSTORE PUSH1 0x40 DUP1 DUP4 KECCAK256 DUP9 DUP5 MSTORE SWAP1 SWAP2 MSTORE SWAP1 DUP2 SWAP1 KECCAK256 SLOAD PUSH1 0x60 SWAP1 SWAP3 MUL SWAP4 SWAP1 SWAP4 ADD SWAP3 SWAP1 SWAP3 ADD CALLDATALOAD SWAP3 POP POP DUP1 PUSH2 0x8C8 JUMPI PUSH1 0x40 MLOAD PUSH32 0x8C379A000000000000000000000000000000000000000000000000000000000 DUP2 MSTORE PUSH1 0x4 ADD PUSH2 0x25F SWAP1 PUSH2 0x2693 JUMP JUMPDEST DUP1 DUP1 PUSH1 0x1 SWAP1 SUB SWAP2 POP POP PUSH1 0x0 DUP7 PUSH1 0x1 ADD DUP3 DUP2 SLOAD DUP2 LT PUSH2 0x8E2 JUMPI INVALID JUMPDEST PUSH1 0x0 SWAP2 DUP3 MSTORE PUSH1 0x20 DUP1 DUP4 KECCAK256 PUSH1 0x2 PUSH1 0x3 SWAP4 DUP5 MUL SWAP1 SWAP2 ADD ADD SLOAD CALLER DUP5 MSTORE SWAP2 DUP11 ADD DUP2 MSTORE PUSH1 0x40 DUP1 DUP5 KECCAK256 DUP2 MLOAD PUSH1 0x60 DUP2 ADD DUP4 MSTORE PUSH3 0xFFFFFF DUP1 DUP10 AND DUP3 MSTORE PUSH14 0xFFFFFFFFFFFFFFFFFFFFFFFFFFFF DUP1 DUP8 AND DUP4 DUP8 ADD SWAP1 DUP2 MSTORE DUP12 DUP9 ADD DUP1 DUP4 AND SWAP7 DUP6 ADD SWAP7 DUP8 MSTORE DUP6 SLOAD PUSH1 0x1 DUP2 DUP2 ADD DUP9 SSTORE SWAP7 DUP12 MSTORE SWAP8 SWAP1 SWAP10 KECCAK256 SWAP4 MLOAD SWAP4 SWAP1 SWAP7 ADD DUP1 SLOAD SWAP7 MLOAD SWAP6 MLOAD DUP3 AND PUSH18 0x10000000000000000000000000000000000 MUL PUSH32 0xFF0000000000000000000000000000FFFFFFFFFFFFFFFFFFFFFFFFFFFFFFFFFF SWAP7 SWAP1 SWAP3 AND PUSH4 0x1000000 MUL PUSH32 0xFFFFFFFFFFFFFFFFFFFFFFFFFFFFFF0000000000000000000000000000FFFFFF SWAP5 SWAP1 SWAP4 AND PUSH32 0xFFFFFFFFFFFFFFFFFFFFFFFFFFFFFFFFFFFFFFFFFFFFFFFFFFFFFFFFFF000000 SWAP1 SWAP8 AND SWAP7 SWAP1 SWAP7 OR SWAP3 SWAP1 SWAP3 AND OR SWAP3 SWAP1 SWAP3 AND SWAP2 SWAP1 SWAP2 OR SWAP1 SWAP2 SSTORE DUP10 ADD DUP1 SLOAD SWAP2 SWAP4 POP SWAP1 DUP5 SWAP1 DUP2 LT PUSH2 0xA06 JUMPI INVALID JUMPDEST SWAP1 PUSH1 0x0 MSTORE PUSH1 0x20 PUSH1 0x0 KECCAK256 SWAP1 PUSH1 0x3 MUL ADD PUSH1 0x2 ADD DUP2 SWAP1 SSTORE POP DUP9 DUP9 DUP8 DUP2 DUP2 LT PUSH2 0xA27 JUMPI INVALID JUMPDEST PUSH2 0xA3D SWAP3 PUSH1 0x20 PUSH1 0x60 SWAP1 SWAP3 MUL ADD SWAP1 DUP2 ADD SWAP2 POP PUSH2 0x2029 JUMP JUMPDEST PUSH20 0xFFFFFFFFFFFFFFFFFFFFFFFFFFFFFFFFFFFFFFFF AND PUSH4 0xF242432A CALLER ADDRESS DUP13 DUP13 DUP12 DUP2 DUP2 LT PUSH2 0xA66 JUMPI INVALID JUMPDEST SWAP1 POP PUSH1 0x60 MUL ADD PUSH1 0x20 ADD CALLDATALOAD DUP14 DUP14 DUP13 DUP2 DUP2 LT PUSH2 0xA7C JUMPI INVALID JUMPDEST SWAP1 POP PUSH1 0x60 MUL ADD PUSH1 0x40 ADD CALLDATALOAD DUP16 PUSH1 0x40 MLOAD PUSH1 0x20 ADD PUSH2 0xA97 SWAP2 SWAP1 PUSH2 0x2291 JUMP JUMPDEST PUSH1 0x40 MLOAD PUSH1 0x20 DUP2 DUP4 SUB SUB DUP2 MSTORE SWAP1 PUSH1 0x40 MSTORE PUSH1 0x40 MLOAD DUP7 PUSH4 0xFFFFFFFF AND PUSH1 0xE0 SHL DUP2 MSTORE PUSH1 0x4 ADD PUSH2 0xAC6 SWAP6 SWAP5 SWAP4 SWAP3 SWAP2 SWAP1 PUSH2 0x2331 JUMP JUMPDEST PUSH1 0x0 PUSH1 0x40 MLOAD DUP1 DUP4 SUB DUP2 PUSH1 0x0 DUP8 DUP1 EXTCODESIZE ISZERO DUP1 ISZERO PUSH2 0xAE0 JUMPI PUSH1 0x0 DUP1 REVERT JUMPDEST POP GAS CALL ISZERO DUP1 ISZERO PUSH2 0xAF4 JUMPI RETURNDATASIZE PUSH1 0x0 DUP1 RETURNDATACOPY RETURNDATASIZE PUSH1 0x0 REVERT JUMPDEST POP POP PUSH1 0x1 SWAP1 SWAP8 ADD SWAP7 POP PUSH2 0x7F9 SWAP6 POP POP POP POP POP POP JUMP JUMPDEST POP POP POP POP POP JUMP JUMPDEST PUSH1 0x1 SLOAD PUSH20 0xFFFFFFFFFFFFFFFFFFFFFFFFFFFFFFFFFFFFFFFF AND CALLER EQ PUSH2 0xB61 JUMPI PUSH1 0x40 MLOAD PUSH32 0x8C379A000000000000000000000000000000000000000000000000000000000 DUP2 MSTORE PUSH1 0x4 ADD PUSH2 0x25F SWAP1 PUSH2 0x2955 JUMP JUMPDEST TIMESTAMP PUSH2 0xE10 ADD DUP4 GT PUSH2 0xB9E JUMPI PUSH1 0x40 MLOAD PUSH32 0x8C379A000000000000000000000000000000000000000000000000000000000 DUP2 MSTORE PUSH1 0x4 ADD PUSH2 0x25F SWAP1 PUSH2 0x26F0 JUMP JUMPDEST PUSH1 0x0 SLOAD PUSH1 0x40 MLOAD DUP2 SWAP1 PUSH32 0xEB019A222C1B7DA6901010B3C251B88A20F3895D2D3C9D1F433CFACE4B934300 SWAP1 PUSH2 0xBD7 SWAP1 DUP8 SWAP1 DUP8 SWAP1 DUP8 SWAP1 PUSH2 0x298C JUMP JUMPDEST PUSH1 0x40 MLOAD DUP1 SWAP2 SUB SWAP1 LOG2 PUSH1 0x0 DUP1 SLOAD PUSH1 0x1 DUP2 ADD DUP3 SSTORE DUP2 DUP1 MSTORE PUSH1 0x8 MUL PUSH32 0x290DECD9548B62A8D60345A988386FC84BA6BC95484008F6362F93160EF3E56A DUP2 ADD DUP7 SWAP1 SSTORE PUSH32 0x290DECD9548B62A8D60345A988386FC84BA6BC95484008F6362F93160EF3E563 ADD SWAP1 JUMPDEST DUP4 DUP2 LT ISZERO PUSH2 0xF97 JUMPI PUSH1 0x0 DUP6 DUP6 DUP4 DUP2 DUP2 LT PUSH2 0xC4F JUMPI INVALID JUMPDEST PUSH2 0xC65 SWAP3 PUSH1 0x20 PUSH1 0xA0 SWAP1 SWAP3 MUL ADD SWAP1 DUP2 ADD SWAP2 POP PUSH2 0x2029 JUMP JUMPDEST SWAP1 POP PUSH1 0x0 DUP7 DUP7 DUP5 DUP2 DUP2 LT PUSH2 0xC75 JUMPI INVALID JUMPDEST PUSH20 0xFFFFFFFFFFFFFFFFFFFFFFFFFFFFFFFFFFFFFFFF DUP6 AND PUSH1 0x0 SWAP1 DUP2 MSTORE PUSH1 0x20 DUP9 DUP2 MSTORE PUSH1 0x40 DUP1 DUP4 KECCAK256 PUSH1 0xA0 SWAP1 SWAP5 MUL SWAP6 SWAP1 SWAP6 ADD DUP2 ADD CALLDATALOAD DUP1 DUP4 MSTORE SWAP3 SWAP1 MSTORE SWAP3 SWAP1 SWAP3 KECCAK256 SLOAD SWAP2 SWAP3 POP POP DUP1 PUSH2 0xD68 JUMPI POP PUSH1 0x40 DUP1 MLOAD PUSH1 0x60 DUP2 ADD DUP3 MSTORE PUSH20 0xFFFFFFFFFFFFFFFFFFFFFFFFFFFFFFFFFFFFFFFF DUP5 DUP2 AND DUP1 DUP4 MSTORE PUSH1 0x20 DUP1 DUP5 ADD DUP7 DUP2 MSTORE PUSH1 0x0 DUP6 DUP8 ADD DUP2 DUP2 MSTORE PUSH1 0x1 DUP13 DUP2 ADD DUP1 SLOAD DUP1 DUP4 ADD DUP3 SSTORE DUP2 DUP6 MSTORE DUP7 DUP6 KECCAK256 SWAP10 MLOAD PUSH1 0x3 SWAP1 SWAP2 MUL SWAP1 SWAP10 ADD DUP1 SLOAD PUSH32 0xFFFFFFFFFFFFFFFFFFFFFFFF0000000000000000000000000000000000000000 AND SWAP10 SWAP1 SWAP9 AND SWAP9 SWAP1 SWAP9 OR DUP8 SSTORE SWAP3 MLOAD SWAP3 DUP7 ADD SWAP3 SWAP1 SWAP3 SSTORE SWAP1 MLOAD PUSH1 0x2 SWAP1 SWAP5 ADD SWAP4 SWAP1 SWAP4 SSTORE SWAP3 SLOAD SWAP1 DUP3 MSTORE DUP8 DUP4 MSTORE DUP4 DUP3 KECCAK256 DUP6 DUP4 MSTORE SWAP1 SWAP3 MSTORE SWAP2 SWAP1 SWAP2 KECCAK256 DUP2 SWAP1 SSTORE JUMPDEST DUP5 PUSH1 0x2 ADD PUSH1 0x0 PUSH1 0x1 DUP4 SUB DUP2 MSTORE PUSH1 0x20 ADD SWAP1 DUP2 MSTORE PUSH1 0x20 ADD PUSH1 0x0 KECCAK256 PUSH1 0x40 MLOAD DUP1 PUSH1 0x60 ADD PUSH1 0x40 MSTORE DUP1 DUP11 DUP11 DUP9 DUP2 DUP2 LT PUSH2 0xD97 JUMPI INVALID JUMPDEST SWAP1 POP PUSH1 0xA0 MUL ADD PUSH1 0x40 ADD PUSH1 0x20 DUP2 ADD SWAP1 PUSH2 0xDAF SWAP2 SWAP1 PUSH2 0x2029 JUMP JUMPDEST PUSH20 0xFFFFFFFFFFFFFFFFFFFFFFFFFFFFFFFFFFFFFFFF AND DUP2 MSTORE PUSH1 0x20 ADD DUP11 DUP11 DUP9 DUP2 DUP2 LT PUSH2 0xDD6 JUMPI INVALID JUMPDEST SWAP1 POP PUSH1 0xA0 MUL ADD PUSH1 0x80 ADD CALLDATALOAD PUSH12 0xFFFFFFFFFFFFFFFFFFFFFFFF AND DUP2 MSTORE PUSH1 0x20 ADD DUP11 DUP11 DUP9 DUP2 DUP2 LT PUSH2 0xDFF JUMPI INVALID JUMPDEST PUSH1 0xA0 MUL SWAP2 SWAP1 SWAP2 ADD PUSH1 0x60 ADD CALLDATALOAD SWAP1 SWAP2 MSTORE POP DUP2 SLOAD PUSH1 0x1 DUP1 DUP3 ADD DUP5 SSTORE PUSH1 0x0 SWAP4 DUP5 MSTORE PUSH1 0x20 SWAP4 DUP5 SWAP1 KECCAK256 DUP4 MLOAD PUSH1 0x2 SWAP1 SWAP4 MUL ADD DUP1 SLOAD SWAP5 DUP5 ADD MLOAD PUSH32 0xFFFFFFFFFFFFFFFFFFFFFFFF0000000000000000000000000000000000000000 SWAP1 SWAP6 AND PUSH20 0xFFFFFFFFFFFFFFFFFFFFFFFFFFFFFFFFFFFFFFFF SWAP4 DUP5 AND OR SWAP1 SWAP3 AND PUSH21 0x10000000000000000000000000000000000000000 PUSH12 0xFFFFFFFFFFFFFFFFFFFFFFFF SWAP1 SWAP6 AND SWAP5 SWAP1 SWAP5 MUL SWAP4 SWAP1 SWAP4 OR DUP2 SSTORE PUSH1 0x40 SWAP1 SWAP2 ADD MLOAD SWAP2 ADD SSTORE DUP8 DUP8 DUP6 DUP2 DUP2 LT PUSH2 0xEB5 JUMPI INVALID JUMPDEST SWAP1 POP PUSH1 0xA0 MUL ADD PUSH1 0x40 ADD PUSH1 0x20 DUP2 ADD SWAP1 PUSH2 0xECD SWAP2 SWAP1 PUSH2 0x2029 JUMP JUMPDEST PUSH20 0xFFFFFFFFFFFFFFFFFFFFFFFFFFFFFFFFFFFFFFFF AND PUSH4 0xF242432A CALLER ADDRESS DUP12 DUP12 DUP10 DUP2 DUP2 LT PUSH2 0xEF6 JUMPI INVALID JUMPDEST SWAP1 POP PUSH1 0xA0 MUL ADD PUSH1 0x60 ADD CALLDATALOAD DUP13 DUP13 DUP11 DUP2 DUP2 LT PUSH2 0xF0C JUMPI INVALID JUMPDEST SWAP1 POP PUSH1 0xA0 MUL ADD PUSH1 0x80 ADD CALLDATALOAD DUP12 PUSH1 0x40 MLOAD PUSH1 0x20 ADD PUSH2 0xF27 SWAP2 SWAP1 PUSH2 0x2291 JUMP JUMPDEST PUSH1 0x40 MLOAD PUSH1 0x20 DUP2 DUP4 SUB SUB DUP2 MSTORE SWAP1 PUSH1 0x40 MSTORE PUSH1 0x40 MLOAD DUP7 PUSH4 0xFFFFFFFF AND PUSH1 0xE0 SHL DUP2 MSTORE PUSH1 0x4 ADD PUSH2 0xF56 SWAP6 SWAP5 SWAP4 SWAP3 SWAP2 SWAP1 PUSH2 0x2331 JUMP JUMPDEST PUSH1 0x0 PUSH1 0x40 MLOAD DUP1 DUP4 SUB DUP2 PUSH1 0x0 DUP8 DUP1 EXTCODESIZE ISZERO DUP1 ISZERO PUSH2 0xF70 JUMPI PUSH1 0x0 DUP1 REVERT JUMPDEST POP GAS CALL ISZERO DUP1 ISZERO PUSH2 0xF84 JUMPI RETURNDATASIZE PUSH1 0x0 DUP1 RETURNDATACOPY RETURNDATASIZE PUSH1 0x0 REVERT JUMPDEST POP POP PUSH1 0x1 SWAP1 SWAP6 ADD SWAP5 POP PUSH2 0xC39 SWAP4 POP POP POP POP JUMP JUMPDEST POP POP POP POP POP POP JUMP JUMPDEST PUSH1 0x0 SLOAD SWAP1 JUMP JUMPDEST PUSH1 0x1 SLOAD PUSH20 0xFFFFFFFFFFFFFFFFFFFFFFFFFFFFFFFFFFFFFFFF AND SWAP1 JUMP JUMPDEST PUSH1 0x0 SLOAD PUSH1 0x60 SWAP1 DUP3 LT PUSH2 0xFFF JUMPI PUSH1 0x40 MLOAD PUSH32 0x8C379A000000000000000000000000000000000000000000000000000000000 DUP2 MSTORE PUSH1 0x4 ADD PUSH2 0x25F SWAP1 PUSH2 0x265C JUMP JUMPDEST PUSH1 0x0 DUP1 PUSH1 0x0 ADD DUP4 DUP2 SLOAD DUP2 LT PUSH2 0x1010 JUMPI INVALID JUMPDEST SWAP1 PUSH1 0x0 MSTORE PUSH1 0x20 PUSH1 0x0 KECCAK256 SWAP1 PUSH1 0x8 MUL ADD SWAP1 POP PUSH2 0x1093 DUP4 DUP3 PUSH1 0x5 ADD DUP1 SLOAD DUP1 PUSH1 0x20 MUL PUSH1 0x20 ADD PUSH1 0x40 MLOAD SWAP1 DUP2 ADD PUSH1 0x40 MSTORE DUP1 SWAP3 SWAP2 SWAP1 DUP2 DUP2 MSTORE PUSH1 0x20 ADD DUP3 DUP1 SLOAD DUP1 ISZERO PUSH2 0x1089 JUMPI PUSH1 0x20 MUL DUP3 ADD SWAP2 SWAP1 PUSH1 0x0 MSTORE PUSH1 0x20 PUSH1 0x0 KECCAK256 SWAP1 JUMPDEST DUP2 SLOAD PUSH20 0xFFFFFFFFFFFFFFFFFFFFFFFFFFFFFFFFFFFFFFFF AND DUP2 MSTORE PUSH1 0x1 SWAP1 SWAP2 ADD SWAP1 PUSH1 0x20 ADD DUP1 DUP4 GT PUSH2 0x105E JUMPI JUMPDEST POP POP POP POP POP PUSH2 0x1393 JUMP JUMPDEST SWAP4 SWAP3 POP POP POP JUMP JUMPDEST PUSH1 0x0 DUP1 SLOAD PUSH1 0x60 SWAP1 DUP4 LT PUSH2 0x10D9 JUMPI PUSH1 0x40 MLOAD PUSH32 0x8C379A000000000000000000000000000000000000000000000000000000000 DUP2 MSTORE PUSH1 0x4 ADD PUSH2 0x25F SWAP1 PUSH2 0x265C JUMP JUMPDEST PUSH1 0x0 DUP1 PUSH1 0x0 ADD DUP5 DUP2 SLOAD DUP2 LT PUSH2 0x10EA JUMPI INVALID JUMPDEST SWAP1 PUSH1 0x0 MSTORE PUSH1 0x20 PUSH1 0x0 KECCAK256 SWAP1 PUSH1 0x8 MUL ADD SWAP1 POP DUP1 PUSH1 0x7 ADD SLOAD SWAP3 POP PUSH1 0x0 DUP1 JUMPDEST PUSH1 0x1 DUP4 ADD SLOAD DUP2 LT ISZERO PUSH2 0x112F JUMPI PUSH1 0x0 DUP2 DUP2 MSTORE PUSH1 0x2 DUP5 ADD PUSH1 0x20 MSTORE PUSH1 0x40 SWAP1 KECCAK256 SLOAD SWAP2 SWAP1 SWAP2 ADD SWAP1 PUSH1 0x1 ADD PUSH2 0x1105 JUMP JUMPDEST POP DUP1 PUSH8 0xFFFFFFFFFFFFFFFF DUP2 GT DUP1 ISZERO PUSH2 0x1147 JUMPI PUSH1 0x0 DUP1 REVERT JUMPDEST POP PUSH1 0x40 MLOAD SWAP1 DUP1 DUP3 MSTORE DUP1 PUSH1 0x20 MUL PUSH1 0x20 ADD DUP3 ADD PUSH1 0x40 MSTORE DUP1 ISZERO PUSH2 0x1181 JUMPI DUP2 PUSH1 0x20 ADD JUMPDEST PUSH2 0x116E PUSH2 0x1F5D JUMP JUMPDEST DUP2 MSTORE PUSH1 0x20 ADD SWAP1 PUSH1 0x1 SWAP1 SUB SWAP1 DUP2 PUSH2 0x1166 JUMPI SWAP1 POP JUMPDEST POP SWAP3 POP PUSH1 0x0 DUP1 JUMPDEST PUSH1 0x1 DUP5 ADD SLOAD DUP2 LT ISZERO PUSH2 0x138A JUMPI PUSH1 0x0 DUP2 DUP2 MSTORE PUSH1 0x2 DUP6 ADD PUSH1 0x20 MSTORE PUSH1 0x40 DUP2 KECCAK256 SWAP1 JUMPDEST DUP2 SLOAD DUP2 LT ISZERO PUSH2 0x1380 JUMPI DUP6 PUSH1 0x1 ADD DUP4 DUP2 SLOAD DUP2 LT PUSH2 0x11BE JUMPI INVALID JUMPDEST PUSH1 0x0 SWAP2 DUP3 MSTORE PUSH1 0x20 SWAP1 SWAP2 KECCAK256 PUSH1 0x3 SWAP1 SWAP2 MUL ADD SLOAD DUP8 MLOAD PUSH20 0xFFFFFFFFFFFFFFFFFFFFFFFFFFFFFFFFFFFFFFFF SWAP1 SWAP2 AND SWAP1 DUP9 SWAP1 DUP7 SWAP1 DUP2 LT PUSH2 0x11F6 JUMPI INVALID JUMPDEST PUSH1 0x20 SWAP1 DUP2 MUL SWAP2 SWAP1 SWAP2 ADD ADD MLOAD PUSH20 0xFFFFFFFFFFFFFFFFFFFFFFFFFFFFFFFFFFFFFFFF SWAP1 SWAP2 AND SWAP1 MSTORE PUSH1 0x1 DUP7 ADD DUP1 SLOAD DUP5 SWAP1 DUP2 LT PUSH2 0x122B JUMPI INVALID JUMPDEST SWAP1 PUSH1 0x0 MSTORE PUSH1 0x20 PUSH1 0x0 KECCAK256 SWAP1 PUSH1 0x3 MUL ADD PUSH1 0x1 ADD SLOAD DUP8 DUP6 DUP2 MLOAD DUP2 LT PUSH2 0x1249 JUMPI INVALID JUMPDEST PUSH1 0x20 MUL PUSH1 0x20 ADD ADD MLOAD PUSH1 0x20 ADD DUP2 DUP2 MSTORE POP POP DUP2 DUP2 DUP2 SLOAD DUP2 LT PUSH2 0x1265 JUMPI INVALID JUMPDEST PUSH1 0x0 SWAP2 DUP3 MSTORE PUSH1 0x20 SWAP1 SWAP2 KECCAK256 PUSH1 0x2 SWAP1 SWAP2 MUL ADD SLOAD DUP8 MLOAD PUSH20 0xFFFFFFFFFFFFFFFFFFFFFFFFFFFFFFFFFFFFFFFF SWAP1 SWAP2 AND SWAP1 DUP9 SWAP1 DUP7 SWAP1 DUP2 LT PUSH2 0x129D JUMPI INVALID JUMPDEST PUSH1 0x20 MUL PUSH1 0x20 ADD ADD MLOAD PUSH1 0x40 ADD SWAP1 PUSH20 0xFFFFFFFFFFFFFFFFFFFFFFFFFFFFFFFFFFFFFFFF AND SWAP1 DUP2 PUSH20 0xFFFFFFFFFFFFFFFFFFFFFFFFFFFFFFFFFFFFFFFF AND DUP2 MSTORE POP POP DUP2 DUP2 DUP2 SLOAD DUP2 LT PUSH2 0x12E7 JUMPI INVALID JUMPDEST SWAP1 PUSH1 0x0 MSTORE PUSH1 0x20 PUSH1 0x0 KECCAK256 SWAP1 PUSH1 0x2 MUL ADD PUSH1 0x1 ADD SLOAD DUP8 DUP6 DUP2 MLOAD DUP2 LT PUSH2 0x1305 JUMPI INVALID JUMPDEST PUSH1 0x20 MUL PUSH1 0x20 ADD ADD MLOAD PUSH1 0x60 ADD DUP2 DUP2 MSTORE POP POP DUP2 DUP2 DUP2 SLOAD DUP2 LT PUSH2 0x1321 JUMPI INVALID JUMPDEST SWAP1 PUSH1 0x0 MSTORE PUSH1 0x20 PUSH1 0x0 KECCAK256 SWAP1 PUSH1 0x2 MUL ADD PUSH1 0x0 ADD PUSH1 0x14 SWAP1 SLOAD SWAP1 PUSH2 0x100 EXP SWAP1 DIV PUSH12 0xFFFFFFFFFFFFFFFFFFFFFFFF AND PUSH12 0xFFFFFFFFFFFFFFFFFFFFFFFF AND DUP8 DUP6 DUP2 MLOAD DUP2 LT PUSH2 0x1365 JUMPI INVALID JUMPDEST PUSH1 0x20 SWAP1 DUP2 MUL SWAP2 SWAP1 SWAP2 ADD ADD MLOAD PUSH1 0x80 ADD MSTORE PUSH1 0x1 SWAP4 DUP5 ADD SWAP4 ADD PUSH2 0x11A6 JUMP JUMPDEST POP POP PUSH1 0x1 ADD PUSH2 0x1188 JUMP JUMPDEST POP POP POP POP SWAP2 POP SWAP2 JUMP JUMPDEST PUSH1 0x0 SLOAD PUSH1 0x60 SWAP1 DUP4 LT PUSH2 0x13D1 JUMPI PUSH1 0x40 MLOAD PUSH32 0x8C379A000000000000000000000000000000000000000000000000000000000 DUP2 MSTORE PUSH1 0x4 ADD PUSH2 0x25F SWAP1 PUSH2 0x265C JUMP JUMPDEST PUSH1 0x0 DUP1 PUSH1 0x0 ADD DUP5 DUP2 SLOAD DUP2 LT PUSH2 0x13E2 JUMPI INVALID JUMPDEST SWAP1 PUSH1 0x0 MSTORE PUSH1 0x20 PUSH1 0x0 KECCAK256 SWAP1 PUSH1 0x8 MUL ADD SWAP1 POP TIMESTAMP DUP2 PUSH1 0x7 ADD SLOAD LT PUSH2 0x142F JUMPI PUSH1 0x40 MLOAD PUSH32 0x8C379A000000000000000000000000000000000000000000000000000000000 DUP2 MSTORE PUSH1 0x4 ADD PUSH2 0x25F SWAP1 PUSH2 0x2807 JUMP JUMPDEST PUSH1 0x6 DUP2 ADD SLOAD DUP1 PUSH2 0x146B JUMPI PUSH1 0x40 MLOAD PUSH32 0x8C379A000000000000000000000000000000000000000000000000000000000 DUP2 MSTORE PUSH1 0x4 ADD PUSH2 0x25F SWAP1 PUSH2 0x27AA JUMP JUMPDEST PUSH1 0x0 DUP1 JUMPDEST PUSH1 0x1 DUP5 ADD SLOAD DUP2 LT ISZERO PUSH2 0x1499 JUMPI PUSH1 0x0 DUP2 DUP2 MSTORE PUSH1 0x2 DUP6 ADD PUSH1 0x20 MSTORE PUSH1 0x40 SWAP1 KECCAK256 SLOAD SWAP2 SWAP1 SWAP2 ADD SWAP1 PUSH1 0x1 ADD PUSH2 0x146F JUMP JUMPDEST POP DUP1 DUP6 MLOAD MUL PUSH8 0xFFFFFFFFFFFFFFFF DUP2 GT DUP1 ISZERO PUSH2 0x14B4 JUMPI PUSH1 0x0 DUP1 REVERT JUMPDEST POP PUSH1 0x40 MLOAD SWAP1 DUP1 DUP3 MSTORE DUP1 PUSH1 0x20 MUL PUSH1 0x20 ADD DUP3 ADD PUSH1 0x40 MSTORE DUP1 ISZERO PUSH2 0x14EE JUMPI DUP2 PUSH1 0x20 ADD JUMPDEST PUSH2 0x14DB PUSH2 0x1FB8 JUMP JUMPDEST DUP2 MSTORE PUSH1 0x20 ADD SWAP1 PUSH1 0x1 SWAP1 SUB SWAP1 DUP2 PUSH2 0x14D3 JUMPI SWAP1 POP JUMPDEST POP SWAP4 POP POP PUSH1 0x0 DUP1 JUMPDEST DUP6 MLOAD DUP2 LT ISZERO PUSH2 0x1811 JUMPI PUSH1 0x0 DUP7 DUP3 DUP2 MLOAD DUP2 LT PUSH2 0x150D JUMPI INVALID JUMPDEST PUSH1 0x20 SWAP1 DUP2 MUL SWAP2 SWAP1 SWAP2 ADD DUP2 ADD MLOAD PUSH20 0xFFFFFFFFFFFFFFFFFFFFFFFFFFFFFFFFFFFFFFFF DUP2 AND PUSH1 0x0 SWAP1 DUP2 MSTORE PUSH1 0x3 DUP9 ADD SWAP1 SWAP3 MSTORE PUSH1 0x40 DUP3 KECCAK256 SWAP1 SWAP3 POP SWAP1 JUMPDEST DUP2 SLOAD DUP2 LT ISZERO PUSH2 0x1806 JUMPI PUSH1 0x0 DUP3 DUP3 DUP2 SLOAD DUP2 LT PUSH2 0x155C JUMPI INVALID JUMPDEST PUSH1 0x0 SWAP2 DUP3 MSTORE PUSH1 0x20 DUP3 KECCAK256 ADD SLOAD PUSH1 0x1 DUP11 ADD DUP1 SLOAD PUSH3 0xFFFFFF SWAP1 SWAP3 AND SWAP4 POP SWAP1 DUP4 SWAP1 DUP2 LT PUSH2 0x1581 JUMPI INVALID JUMPDEST PUSH1 0x0 SWAP2 DUP3 MSTORE PUSH1 0x20 DUP1 DUP4 KECCAK256 PUSH1 0x2 PUSH1 0x3 SWAP1 SWAP4 MUL ADD DUP3 ADD SLOAD DUP6 DUP5 MSTORE SWAP2 DUP13 ADD SWAP1 MSTORE PUSH1 0x40 DUP3 KECCAK256 SWAP1 SWAP3 POP SWAP1 JUMPDEST DUP2 SLOAD DUP2 LT ISZERO PUSH2 0x17F6 JUMPI PUSH1 0x0 DUP1 DUP4 DUP4 DUP2 SLOAD DUP2 LT PUSH2 0x15BF JUMPI INVALID JUMPDEST PUSH1 0x0 SWAP2 DUP3 MSTORE PUSH1 0x20 DUP3 KECCAK256 PUSH1 0x2 SWAP1 SWAP2 MUL ADD SLOAD DUP6 SLOAD PUSH20 0xFFFFFFFFFFFFFFFFFFFFFFFFFFFFFFFFFFFFFFFF SWAP1 SWAP2 AND SWAP3 POP DUP6 SWAP1 DUP6 SWAP1 DUP2 LT PUSH2 0x15F7 JUMPI INVALID JUMPDEST SWAP1 PUSH1 0x0 MSTORE PUSH1 0x20 PUSH1 0x0 KECCAK256 SWAP1 PUSH1 0x2 MUL ADD PUSH1 0x1 ADD SLOAD SWAP1 POP PUSH1 0x0 JUMPDEST DUP6 DUP6 DUP2 SLOAD DUP2 LT PUSH2 0x161A JUMPI INVALID JUMPDEST PUSH1 0x0 SWAP2 DUP3 MSTORE PUSH1 0x20 SWAP1 SWAP2 KECCAK256 PUSH1 0x2 SWAP1 SWAP2 MUL ADD SLOAD PUSH21 0x10000000000000000000000000000000000000000 SWAP1 DIV PUSH12 0xFFFFFFFFFFFFFFFFFFFFFFFF AND DUP2 LT ISZERO PUSH2 0x1723 JUMPI PUSH1 0x0 DUP8 DUP16 DUP6 DUP6 DUP6 PUSH1 0x40 MLOAD PUSH1 0x20 ADD PUSH2 0x1672 SWAP5 SWAP4 SWAP3 SWAP2 SWAP1 PUSH2 0x229A JUMP JUMPDEST PUSH1 0x40 MLOAD PUSH1 0x20 DUP2 DUP4 SUB SUB DUP2 MSTORE SWAP1 PUSH1 0x40 MSTORE DUP1 MLOAD SWAP1 PUSH1 0x20 ADD KECCAK256 PUSH1 0x0 SHR DUP2 PUSH2 0x1692 JUMPI INVALID JUMPDEST MOD SWAP1 POP DUP11 DUP11 DUP2 SLOAD DUP2 LT PUSH2 0x16A1 JUMPI INVALID JUMPDEST PUSH1 0x0 SWAP2 DUP3 MSTORE PUSH1 0x20 SWAP1 SWAP2 KECCAK256 ADD SLOAD PUSH4 0x1000000 SWAP1 DIV PUSH14 0xFFFFFFFFFFFFFFFFFFFFFFFFFFFF AND DUP2 LT DUP1 ISZERO SWAP1 PUSH2 0x170E JUMPI POP DUP11 DUP11 DUP2 SLOAD DUP2 LT PUSH2 0x16DA JUMPI INVALID JUMPDEST PUSH1 0x0 SWAP2 DUP3 MSTORE PUSH1 0x20 SWAP1 SWAP2 KECCAK256 ADD SLOAD PUSH18 0x10000000000000000000000000000000000 SWAP1 DIV PUSH14 0xFFFFFFFFFFFFFFFFFFFFFFFFFFFF AND DUP2 LT JUMPDEST ISZERO PUSH2 0x171A JUMPI PUSH1 0x1 SWAP1 SWAP5 ADD SWAP4 JUMPDEST POP PUSH1 0x1 ADD PUSH2 0x160E JUMP JUMPDEST POP DUP3 ISZERO PUSH2 0x17EB JUMPI PUSH1 0x40 MLOAD DUP1 PUSH1 0xA0 ADD PUSH1 0x40 MSTORE DUP1 DUP12 PUSH20 0xFFFFFFFFFFFFFFFFFFFFFFFFFFFFFFFFFFFFFFFF AND DUP2 MSTORE PUSH1 0x20 ADD DUP16 PUSH1 0x4 ADD PUSH1 0x0 CALLER PUSH20 0xFFFFFFFFFFFFFFFFFFFFFFFFFFFFFFFFFFFFFFFF AND PUSH20 0xFFFFFFFFFFFFFFFFFFFFFFFFFFFFFFFFFFFFFFFF AND DUP2 MSTORE PUSH1 0x20 ADD SWAP1 DUP2 MSTORE PUSH1 0x20 ADD PUSH1 0x0 KECCAK256 PUSH1 0x0 SWAP1 SLOAD SWAP1 PUSH2 0x100 EXP SWAP1 DIV PUSH1 0xFF AND ISZERO ISZERO DUP2 MSTORE PUSH1 0x20 ADD DUP4 PUSH20 0xFFFFFFFFFFFFFFFFFFFFFFFFFFFFFFFFFFFFFFFF AND DUP2 MSTORE PUSH1 0x20 ADD DUP3 DUP2 MSTORE PUSH1 0x20 ADD DUP5 DUP2 MSTORE POP DUP16 DUP14 DUP2 MLOAD DUP2 LT PUSH2 0x17D9 JUMPI INVALID JUMPDEST PUSH1 0x20 SWAP1 DUP2 MUL SWAP2 SWAP1 SWAP2 ADD ADD MSTORE PUSH1 0x1 SWAP1 SWAP12 ADD SWAP11 JUMPDEST POP POP POP PUSH1 0x1 ADD PUSH2 0x15A7 JUMP JUMPDEST POP POP PUSH1 0x1 SWAP1 SWAP3 ADD SWAP2 POP PUSH2 0x1545 SWAP1 POP JUMP JUMPDEST POP POP POP PUSH1 0x1 ADD PUSH2 0x14F6 JUMP JUMPDEST POP DUP4 MSTORE POP SWAP1 SWAP4 SWAP3 POP POP POP JUMP JUMPDEST PUSH1 0x0 SLOAD DUP2 LT PUSH2 0x1858 JUMPI PUSH1 0x40 MLOAD PUSH32 0x8C379A000000000000000000000000000000000000000000000000000000000 DUP2 MSTORE PUSH1 0x4 ADD PUSH2 0x25F SWAP1 PUSH2 0x265C JUMP JUMPDEST PUSH1 0x0 DUP1 PUSH1 0x0 ADD DUP3 DUP2 SLOAD DUP2 LT PUSH2 0x1869 JUMPI INVALID JUMPDEST SWAP1 PUSH1 0x0 MSTORE PUSH1 0x20 PUSH1 0x0 KECCAK256 SWAP1 PUSH1 0x8 MUL ADD SWAP1 POP TIMESTAMP DUP2 PUSH1 0x7 ADD SLOAD LT PUSH2 0x18B6 JUMPI PUSH1 0x40 MLOAD PUSH32 0x8C379A000000000000000000000000000000000000000000000000000000000 DUP2 MSTORE PUSH1 0x4 ADD PUSH2 0x25F SWAP1 PUSH2 0x2807 JUMP JUMPDEST PUSH1 0x6 DUP2 ADD SLOAD DUP1 PUSH2 0x18F2 JUMPI PUSH1 0x40 MLOAD PUSH32 0x8C379A000000000000000000000000000000000000000000000000000000000 DUP2 MSTORE PUSH1 0x4 ADD PUSH2 0x25F SWAP1 PUSH2 0x27AA JUMP JUMPDEST CALLER PUSH1 0x0 SWAP1 DUP2 MSTORE PUSH1 0x4 DUP4 ADD PUSH1 0x20 MSTORE PUSH1 0x40 SWAP1 KECCAK256 SLOAD PUSH1 0xFF AND ISZERO PUSH2 0x193E JUMPI PUSH1 0x40 MLOAD PUSH32 0x8C379A000000000000000000000000000000000000000000000000000000000 DUP2 MSTORE PUSH1 0x4 ADD PUSH2 0x25F SWAP1 PUSH2 0x274D JUMP JUMPDEST CALLER PUSH1 0x0 SWAP1 DUP2 MSTORE PUSH1 0x4 DUP4 ADD PUSH1 0x20 SWAP1 DUP2 MSTORE PUSH1 0x40 DUP1 DUP4 KECCAK256 DUP1 SLOAD PUSH32 0xFFFFFFFFFFFFFFFFFFFFFFFFFFFFFFFFFFFFFFFFFFFFFFFFFFFFFFFFFFFFFF00 AND PUSH1 0x1 OR SWAP1 SSTORE PUSH1 0x3 DUP6 ADD SWAP1 SWAP2 MSTORE DUP2 KECCAK256 SWAP1 JUMPDEST DUP2 SLOAD DUP2 LT ISZERO PUSH2 0xB09 JUMPI PUSH1 0x0 DUP3 DUP3 DUP2 SLOAD DUP2 LT PUSH2 0x199D JUMPI INVALID JUMPDEST PUSH1 0x0 SWAP2 DUP3 MSTORE PUSH1 0x20 DUP3 KECCAK256 ADD SLOAD DUP5 SLOAD PUSH4 0x1000000 SWAP1 SWAP2 DIV PUSH14 0xFFFFFFFFFFFFFFFFFFFFFFFFFFFF AND SWAP3 POP DUP5 SWAP1 DUP5 SWAP1 DUP2 LT PUSH2 0x19D0 JUMPI INVALID JUMPDEST PUSH1 0x0 SWAP2 DUP3 MSTORE PUSH1 0x20 DUP3 KECCAK256 ADD SLOAD DUP6 SLOAD PUSH18 0x10000000000000000000000000000000000 SWAP1 SWAP2 DIV PUSH14 0xFFFFFFFFFFFFFFFFFFFFFFFFFFFF AND SWAP3 POP DUP6 SWAP1 DUP6 SWAP1 DUP2 LT PUSH2 0x1A11 JUMPI INVALID JUMPDEST PUSH1 0x0 SWAP2 DUP3 MSTORE PUSH1 0x20 DUP3 KECCAK256 ADD SLOAD PUSH1 0x1 DUP10 ADD DUP1 SLOAD PUSH3 0xFFFFFF SWAP1 SWAP3 AND SWAP4 POP SWAP1 DUP4 SWAP1 DUP2 LT PUSH2 0x1A36 JUMPI INVALID JUMPDEST PUSH1 0x0 SWAP2 DUP3 MSTORE PUSH1 0x20 DUP1 DUP4 KECCAK256 PUSH1 0x2 PUSH1 0x3 SWAP1 SWAP4 MUL ADD DUP3 ADD SLOAD DUP6 DUP5 MSTORE SWAP2 DUP12 ADD SWAP1 MSTORE PUSH1 0x40 DUP3 KECCAK256 SWAP1 SWAP3 POP SWAP1 JUMPDEST DUP2 SLOAD DUP2 LT ISZERO PUSH2 0x1C49 JUMPI PUSH1 0x0 DUP1 DUP4 DUP4 DUP2 SLOAD DUP2 LT PUSH2 0x1A74 JUMPI INVALID JUMPDEST PUSH1 0x0 SWAP2 DUP3 MSTORE PUSH1 0x20 DUP3 KECCAK256 PUSH1 0x2 SWAP1 SWAP2 MUL ADD SLOAD DUP6 SLOAD PUSH20 0xFFFFFFFFFFFFFFFFFFFFFFFFFFFFFFFFFFFFFFFF SWAP1 SWAP2 AND SWAP3 POP DUP6 SWAP1 DUP6 SWAP1 DUP2 LT PUSH2 0x1AAC JUMPI INVALID JUMPDEST SWAP1 PUSH1 0x0 MSTORE PUSH1 0x20 PUSH1 0x0 KECCAK256 SWAP1 PUSH1 0x2 MUL ADD PUSH1 0x1 ADD SLOAD SWAP1 POP PUSH1 0x0 JUMPDEST DUP6 DUP6 DUP2 SLOAD DUP2 LT PUSH2 0x1ACF JUMPI INVALID JUMPDEST PUSH1 0x0 SWAP2 DUP3 MSTORE PUSH1 0x20 SWAP1 SWAP2 KECCAK256 PUSH1 0x2 SWAP1 SWAP2 MUL ADD SLOAD PUSH21 0x10000000000000000000000000000000000000000 SWAP1 DIV PUSH12 0xFFFFFFFFFFFFFFFFFFFFFFFF AND DUP2 LT ISZERO PUSH2 0x1B6E JUMPI PUSH1 0x0 DUP8 DUP15 DUP6 DUP6 DUP6 PUSH1 0x40 MLOAD PUSH1 0x20 ADD PUSH2 0x1B27 SWAP5 SWAP4 SWAP3 SWAP2 SWAP1 PUSH2 0x229A JUMP JUMPDEST PUSH1 0x40 MLOAD PUSH1 0x20 DUP2 DUP4 SUB SUB DUP2 MSTORE SWAP1 PUSH1 0x40 MSTORE DUP1 MLOAD SWAP1 PUSH1 0x20 ADD KECCAK256 PUSH1 0x0 SHR DUP2 PUSH2 0x1B47 JUMPI INVALID JUMPDEST MOD SWAP1 POP DUP11 DUP2 LT ISZERO DUP1 ISZERO PUSH2 0x1B59 JUMPI POP DUP10 DUP2 LT JUMPDEST ISZERO PUSH2 0x1B65 JUMPI PUSH1 0x1 SWAP1 SWAP5 ADD SWAP4 JUMPDEST POP PUSH1 0x1 ADD PUSH2 0x1AC3 JUMP JUMPDEST POP DUP3 ISZERO PUSH2 0x1C3E JUMPI DUP14 PUSH32 0x61DD2CF3E9F248B4453E8ABB61B6AD73C53CF482D1C506F868A3885F533233CF CALLER DUP5 DUP5 DUP8 PUSH1 0x40 MLOAD PUSH2 0x1BAB SWAP5 SWAP4 SWAP3 SWAP2 SWAP1 PUSH2 0x22FB JUMP JUMPDEST PUSH1 0x40 MLOAD DUP1 SWAP2 SUB SWAP1 LOG2 PUSH1 0x40 MLOAD PUSH32 0xF242432A00000000000000000000000000000000000000000000000000000000 DUP2 MSTORE PUSH20 0xFFFFFFFFFFFFFFFFFFFFFFFFFFFFFFFFFFFFFFFF DUP4 AND SWAP1 PUSH4 0xF242432A SWAP1 PUSH2 0x1C0B SWAP1 ADDRESS SWAP1 CALLER SWAP1 DUP7 SWAP1 DUP10 SWAP1 PUSH1 0x4 ADD PUSH2 0x2455 JUMP JUMPDEST PUSH1 0x0 PUSH1 0x40 MLOAD DUP1 DUP4 SUB DUP2 PUSH1 0x0 DUP8 DUP1 EXTCODESIZE ISZERO DUP1 ISZERO PUSH2 0x1C25 JUMPI PUSH1 0x0 DUP1 REVERT JUMPDEST POP GAS CALL ISZERO DUP1 ISZERO PUSH2 0x1C39 JUMPI RETURNDATASIZE PUSH1 0x0 DUP1 RETURNDATACOPY RETURNDATASIZE PUSH1 0x0 REVERT JUMPDEST POP POP POP POP JUMPDEST POP POP POP PUSH1 0x1 ADD PUSH2 0x1A5C JUMP JUMPDEST POP POP PUSH1 0x1 SWAP1 SWAP5 ADD SWAP4 POP PUSH2 0x1986 SWAP3 POP POP POP JUMP JUMPDEST PUSH1 0x0 SLOAD PUSH1 0x60 SWAP1 PUSH8 0xFFFFFFFFFFFFFFFF DUP2 GT DUP1 ISZERO PUSH2 0x1C77 JUMPI PUSH1 0x0 DUP1 REVERT JUMPDEST POP PUSH1 0x40 MLOAD SWAP1 DUP1 DUP3 MSTORE DUP1 PUSH1 0x20 MUL PUSH1 0x20 ADD DUP3 ADD PUSH1 0x40 MSTORE DUP1 ISZERO PUSH2 0x1CB1 JUMPI DUP2 PUSH1 0x20 ADD JUMPDEST PUSH2 0x1C9E PUSH2 0x1FE6 JUMP JUMPDEST DUP2 MSTORE PUSH1 0x20 ADD SWAP1 PUSH1 0x1 SWAP1 SUB SWAP1 DUP2 PUSH2 0x1C96 JUMPI SWAP1 POP JUMPDEST POP SWAP1 POP PUSH1 0x0 DUP1 JUMPDEST PUSH1 0x0 SLOAD DUP2 LT ISZERO PUSH2 0x1D37 JUMPI PUSH1 0x0 DUP1 PUSH1 0x0 ADD DUP3 DUP2 SLOAD DUP2 LT PUSH2 0x1CD3 JUMPI INVALID JUMPDEST SWAP1 PUSH1 0x0 MSTORE PUSH1 0x20 PUSH1 0x0 KECCAK256 SWAP1 PUSH1 0x8 MUL ADD PUSH1 0x7 ADD SLOAD SWAP1 POP TIMESTAMP DUP2 GT ISZERO PUSH2 0x1D2E JUMPI DUP2 DUP5 DUP5 DUP2 MLOAD DUP2 LT PUSH2 0x1CFC JUMPI INVALID JUMPDEST PUSH1 0x20 MUL PUSH1 0x20 ADD ADD MLOAD PUSH1 0x0 ADD DUP2 DUP2 MSTORE POP POP DUP1 DUP5 DUP5 DUP2 MLOAD DUP2 LT PUSH2 0x1D19 JUMPI INVALID JUMPDEST PUSH1 0x20 SWAP1 DUP2 MUL SWAP2 SWAP1 SWAP2 ADD DUP2 ADD MLOAD ADD MSTORE PUSH1 0x1 SWAP1 SWAP3 ADD SWAP2 JUMPDEST POP PUSH1 0x1 ADD PUSH2 0x1CB8 JUMP JUMPDEST POP DUP2 MSTORE SWAP1 JUMP JUMPDEST PUSH1 0x0 PUSH1 0x20 DUP3 EQ PUSH2 0x1D79 JUMPI PUSH1 0x40 MLOAD PUSH32 0x8C379A000000000000000000000000000000000000000000000000000000000 DUP2 MSTORE PUSH1 0x4 ADD PUSH2 0x25F SWAP1 PUSH2 0x289B JUMP JUMPDEST PUSH1 0x0 PUSH2 0x1D87 DUP4 DUP6 ADD DUP6 PUSH2 0x20E4 JUMP JUMPDEST PUSH1 0x0 SLOAD SWAP1 SWAP2 POP DUP2 LT PUSH2 0x1DC5 JUMPI PUSH1 0x40 MLOAD PUSH32 0x8C379A000000000000000000000000000000000000000000000000000000000 DUP2 MSTORE PUSH1 0x4 ADD PUSH2 0x25F SWAP1 PUSH2 0x265C JUMP JUMPDEST PUSH1 0x0 DUP1 PUSH1 0x0 ADD DUP3 DUP2 SLOAD DUP2 LT PUSH2 0x1DD6 JUMPI INVALID JUMPDEST SWAP1 PUSH1 0x0 MSTORE PUSH1 0x20 PUSH1 0x0 KECCAK256 SWAP1 PUSH1 0x8 MUL ADD SWAP1 POP PUSH1 0x0 DUP2 PUSH1 0x7 ADD SLOAD SWAP1 POP TIMESTAMP DUP2 GT PUSH2 0x1E28 JUMPI PUSH1 0x40 MLOAD PUSH32 0x8C379A000000000000000000000000000000000000000000000000000000000 DUP2 MSTORE PUSH1 0x4 ADD PUSH2 0x25F SWAP1 PUSH2 0x25FF JUMP JUMPDEST POP PUSH32 0xF23A6E6100000000000000000000000000000000000000000000000000000000 SWAP10 SWAP9 POP POP POP POP POP POP POP POP POP JUMP JUMPDEST PUSH1 0x1 SLOAD PUSH20 0xFFFFFFFFFFFFFFFFFFFFFFFFFFFFFFFFFFFFFFFF AND CALLER DUP2 EQ PUSH2 0x1EA9 JUMPI PUSH1 0x40 MLOAD PUSH32 0x8C379A000000000000000000000000000000000000000000000000000000000 DUP2 MSTORE PUSH1 0x4 ADD PUSH2 0x25F SWAP1 PUSH2 0x2955 JUMP JUMPDEST PUSH1 0x1 DUP1 SLOAD PUSH32 0xFFFFFFFFFFFFFFFFFFFFFFFF0000000000000000000000000000000000000000 AND PUSH20 0xFFFFFFFFFFFFFFFFFFFFFFFFFFFFFFFFFFFFFFFF DUP5 DUP2 AND SWAP2 DUP3 OR SWAP1 SWAP3 SSTORE PUSH1 0x40 MLOAD SWAP1 SWAP2 DUP4 AND SWAP1 PUSH32 0x8BE0079C531659141344CD1FD0A4F28419497F9722A3DAAFE3B4186F6B6457E0 SWAP1 PUSH1 0x0 SWAP1 LOG3 POP POP JUMP JUMPDEST PUSH1 0x40 MLOAD DUP1 PUSH1 0x80 ADD PUSH1 0x40 MSTORE DUP1 PUSH1 0x0 PUSH20 0xFFFFFFFFFFFFFFFFFFFFFFFFFFFFFFFFFFFFFFFF AND DUP2 MSTORE PUSH1 0x20 ADD PUSH1 0x0 DUP2 MSTORE PUSH1 0x20 ADD PUSH1 0x0 DUP2 MSTORE PUSH1 0x20 ADD PUSH1 0x0 DUP2 MSTORE POP SWAP1 JUMP JUMPDEST PUSH1 0x40 MLOAD DUP1 PUSH1 0xA0 ADD PUSH1 0x40 MSTORE DUP1 PUSH1 0x0 PUSH20 0xFFFFFFFFFFFFFFFFFFFFFFFFFFFFFFFFFFFFFFFF AND DUP2 MSTORE PUSH1 0x20 ADD PUSH1 0x0 DUP2 MSTORE PUSH1 0x20 ADD PUSH1 0x0 PUSH20 0xFFFFFFFFFFFFFFFFFFFFFFFFFFFFFFFFFFFFFFFF AND DUP2 MSTORE PUSH1 0x20 ADD PUSH1 0x0 DUP2 MSTORE PUSH1 0x20 ADD PUSH1 0x0 DUP2 MSTORE POP SWAP1 JUMP JUMPDEST PUSH1 0x40 DUP1 MLOAD PUSH1 0xA0 DUP2 ADD DUP3 MSTORE PUSH1 0x0 DUP1 DUP3 MSTORE PUSH1 0x20 DUP3 ADD DUP2 SWAP1 MSTORE SWAP2 DUP2 ADD DUP3 SWAP1 MSTORE PUSH1 0x60 DUP2 ADD DUP3 SWAP1 MSTORE PUSH1 0x80 DUP2 ADD SWAP2 SWAP1 SWAP2 MSTORE SWAP1 JUMP JUMPDEST PUSH1 0x40 MLOAD DUP1 PUSH1 0x40 ADD PUSH1 0x40 MSTORE DUP1 PUSH1 0x0 DUP2 MSTORE PUSH1 0x20 ADD PUSH1 0x0 DUP2 MSTORE POP SWAP1 JUMP JUMPDEST DUP1 CALLDATALOAD PUSH20 0xFFFFFFFFFFFFFFFFFFFFFFFFFFFFFFFFFFFFFFFF DUP2 AND DUP2 EQ PUSH2 0x2024 JUMPI PUSH1 0x0 DUP1 REVERT JUMPDEST SWAP2 SWAP1 POP JUMP JUMPDEST PUSH1 0x0 PUSH1 0x20 DUP3 DUP5 SUB SLT ISZERO PUSH2 0x203A JUMPI DUP1 DUP2 REVERT JUMPDEST PUSH2 0x1093 DUP3 PUSH2 0x2000 JUMP JUMPDEST PUSH1 0x0 DUP1 PUSH1 0x0 DUP1 PUSH1 0x0 DUP1 PUSH1 0xA0 DUP8 DUP10 SUB SLT ISZERO PUSH2 0x205B JUMPI DUP2 DUP3 REVERT JUMPDEST PUSH2 0x2064 DUP8 PUSH2 0x2000 JUMP JUMPDEST SWAP6 POP PUSH2 0x2072 PUSH1 0x20 DUP9 ADD PUSH2 0x2000 JUMP JUMPDEST SWAP5 POP PUSH1 0x40 DUP8 ADD CALLDATALOAD SWAP4 POP PUSH1 0x60 DUP8 ADD CALLDATALOAD SWAP3 POP PUSH1 0x80 DUP8 ADD CALLDATALOAD PUSH8 0xFFFFFFFFFFFFFFFF DUP1 DUP3 GT ISZERO PUSH2 0x209C JUMPI DUP4 DUP5 REVERT JUMPDEST DUP2 DUP10 ADD SWAP2 POP DUP10 PUSH1 0x1F DUP4 ADD SLT PUSH2 0x20AF JUMPI DUP4 DUP5 REVERT JUMPDEST DUP2 CALLDATALOAD DUP2 DUP2 GT ISZERO PUSH2 0x20BD JUMPI DUP5 DUP6 REVERT JUMPDEST DUP11 PUSH1 0x20 DUP3 DUP6 ADD ADD GT ISZERO PUSH2 0x20CE JUMPI DUP5 DUP6 REVERT JUMPDEST PUSH1 0x20 DUP4 ADD SWAP5 POP DUP1 SWAP4 POP POP POP POP SWAP3 SWAP6 POP SWAP3 SWAP6 POP SWAP3 SWAP6 JUMP JUMPDEST PUSH1 0x0 PUSH1 0x20 DUP3 DUP5 SUB SLT ISZERO PUSH2 0x20F5 JUMPI DUP1 DUP2 REVERT JUMPDEST POP CALLDATALOAD SWAP2 SWAP1 POP JUMP JUMPDEST PUSH1 0x0 DUP1 PUSH1 0x40 DUP4 DUP6 SUB SLT ISZERO PUSH2 0x210E JUMPI DUP2 DUP3 REVERT JUMPDEST DUP3 CALLDATALOAD SWAP2 POP PUSH1 0x20 DUP1 DUP5 ADD CALLDATALOAD PUSH8 0xFFFFFFFFFFFFFFFF DUP1 DUP3 GT ISZERO PUSH2 0x212D JUMPI DUP4 DUP5 REVERT JUMPDEST DUP2 DUP7 ADD SWAP2 POP DUP7 PUSH1 0x1F DUP4 ADD SLT PUSH2 0x2140 JUMPI DUP4 DUP5 REVERT JUMPDEST DUP2 CALLDATALOAD DUP2 DUP2 GT ISZERO PUSH2 0x214C JUMPI INVALID JUMPDEST DUP4 DUP2 MUL SWAP2 POP PUSH2 0x215C DUP5 DUP4 ADD PUSH2 0x2AB2 JUMP JUMPDEST DUP2 DUP2 MSTORE DUP5 DUP2 ADD SWAP1 DUP5 DUP7 ADD DUP5 DUP7 ADD DUP8 ADD DUP12 LT ISZERO PUSH2 0x2176 JUMPI DUP8 DUP9 REVERT JUMPDEST DUP8 SWAP6 POP JUMPDEST DUP4 DUP7 LT ISZERO PUSH2 0x219F JUMPI PUSH2 0x218B DUP2 PUSH2 0x2000 JUMP JUMPDEST DUP4 MSTORE PUSH1 0x1 SWAP6 SWAP1 SWAP6 ADD SWAP5 SWAP2 DUP7 ADD SWAP2 DUP7 ADD PUSH2 0x217A JUMP JUMPDEST POP DUP1 SWAP7 POP POP POP POP POP POP POP SWAP3 POP SWAP3 SWAP1 POP JUMP JUMPDEST PUSH1 0x0 DUP1 PUSH1 0x0 PUSH1 0x40 DUP5 DUP7 SUB SLT ISZERO PUSH2 0x21C4 JUMPI DUP3 DUP4 REVERT JUMPDEST DUP4 CALLDATALOAD SWAP3 POP PUSH1 0x20 DUP5 ADD CALLDATALOAD PUSH8 0xFFFFFFFFFFFFFFFF DUP1 DUP3 GT ISZERO PUSH2 0x21E2 JUMPI DUP4 DUP5 REVERT JUMPDEST DUP2 DUP7 ADD SWAP2 POP DUP7 PUSH1 0x1F DUP4 ADD SLT PUSH2 0x21F5 JUMPI DUP4 DUP5 REVERT JUMPDEST DUP2 CALLDATALOAD DUP2 DUP2 GT ISZERO PUSH2 0x2203 JUMPI DUP5 DUP6 REVERT JUMPDEST DUP8 PUSH1 0x20 PUSH1 0xA0 DUP4 MUL DUP6 ADD ADD GT ISZERO PUSH2 0x2217 JUMPI DUP5 DUP6 REVERT JUMPDEST PUSH1 0x20 DUP4 ADD SWAP5 POP DUP1 SWAP4 POP POP POP POP SWAP3 POP SWAP3 POP SWAP3 JUMP JUMPDEST PUSH1 0x0 DUP1 PUSH1 0x0 PUSH1 0x40 DUP5 DUP7 SUB SLT ISZERO PUSH2 0x223E JUMPI DUP3 DUP4 REVERT JUMPDEST DUP4 CALLDATALOAD SWAP3 POP PUSH1 0x20 DUP5 ADD CALLDATALOAD PUSH8 0xFFFFFFFFFFFFFFFF DUP1 DUP3 GT ISZERO PUSH2 0x225C JUMPI DUP4 DUP5 REVERT JUMPDEST DUP2 DUP7 ADD SWAP2 POP DUP7 PUSH1 0x1F DUP4 ADD SLT PUSH2 0x226F JUMPI DUP4 DUP5 REVERT JUMPDEST DUP2 CALLDATALOAD DUP2 DUP2 GT ISZERO PUSH2 0x227D JUMPI DUP5 DUP6 REVERT JUMPDEST DUP8 PUSH1 0x20 PUSH1 0x60 DUP4 MUL DUP6 ADD ADD GT ISZERO PUSH2 0x2217 JUMPI DUP5 DUP6 REVERT JUMPDEST SWAP1 DUP2 MSTORE PUSH1 0x20 ADD SWAP1 JUMP JUMPDEST SWAP4 DUP5 MSTORE PUSH1 0x60 SWAP3 SWAP1 SWAP3 SHL PUSH32 0xFFFFFFFFFFFFFFFFFFFFFFFFFFFFFFFFFFFFFFFF000000000000000000000000 AND PUSH1 0x20 DUP5 ADD MSTORE PUSH1 0x34 DUP4 ADD MSTORE PUSH1 0x54 DUP3 ADD MSTORE PUSH1 0x74 ADD SWAP1 JUMP JUMPDEST PUSH20 0xFFFFFFFFFFFFFFFFFFFFFFFFFFFFFFFFFFFFFFFF SWAP2 SWAP1 SWAP2 AND DUP2 MSTORE PUSH1 0x20 ADD SWAP1 JUMP JUMPDEST PUSH20 0xFFFFFFFFFFFFFFFFFFFFFFFFFFFFFFFFFFFFFFFF SWAP5 DUP6 AND DUP2 MSTORE SWAP3 SWAP1 SWAP4 AND PUSH1 0x20 DUP4 ADD MSTORE PUSH1 0x40 DUP3 ADD MSTORE PUSH1 0x60 DUP2 ADD SWAP2 SWAP1 SWAP2 MSTORE PUSH1 0x80 ADD SWAP1 JUMP JUMPDEST PUSH1 0x0 PUSH20 0xFFFFFFFFFFFFFFFFFFFFFFFFFFFFFFFFFFFFFFFF DUP1 DUP9 AND DUP4 MSTORE PUSH1 0x20 DUP2 DUP9 AND DUP2 DUP6 ADD MSTORE DUP7 PUSH1 0x40 DUP6 ADD MSTORE DUP6 PUSH1 0x60 DUP6 ADD MSTORE PUSH1 0xA0 PUSH1 0x80 DUP6 ADD MSTORE DUP5 MLOAD SWAP2 POP DUP2 PUSH1 0xA0 DUP6 ADD MSTORE DUP3 JUMPDEST DUP3 DUP2 LT ISZERO PUSH2 0x2391 JUMPI DUP6 DUP2 ADD DUP3 ADD MLOAD DUP6 DUP3 ADD PUSH1 0xC0 ADD MSTORE DUP2 ADD PUSH2 0x2375 JUMP JUMPDEST DUP3 DUP2 GT ISZERO PUSH2 0x23A2 JUMPI DUP4 PUSH1 0xC0 DUP5 DUP8 ADD ADD MSTORE JUMPDEST POP POP PUSH1 0x1F ADD PUSH32 0xFFFFFFFFFFFFFFFFFFFFFFFFFFFFFFFFFFFFFFFFFFFFFFFFFFFFFFFFFFFFFFE0 AND SWAP2 SWAP1 SWAP2 ADD PUSH1 0xC0 ADD SWAP7 SWAP6 POP POP POP POP POP POP JUMP JUMPDEST PUSH20 0xFFFFFFFFFFFFFFFFFFFFFFFFFFFFFFFFFFFFFFFF DUP5 DUP2 AND DUP3 MSTORE PUSH1 0x40 PUSH1 0x20 DUP1 DUP5 ADD DUP3 SWAP1 MSTORE DUP4 DUP3 ADD DUP6 SWAP1 MSTORE PUSH1 0x0 SWAP3 PUSH1 0x60 SWAP2 DUP3 DUP7 ADD DUP9 DUP7 JUMPDEST DUP10 DUP2 LT ISZERO PUSH2 0x2445 JUMPI DUP5 PUSH2 0x2422 DUP4 PUSH2 0x2000 JUMP JUMPDEST AND DUP4 MSTORE DUP2 DUP5 ADD CALLDATALOAD DUP5 DUP5 ADD MSTORE DUP7 DUP3 ADD CALLDATALOAD DUP8 DUP5 ADD MSTORE SWAP2 DUP6 ADD SWAP2 SWAP1 DUP6 ADD SWAP1 PUSH1 0x1 ADD PUSH2 0x2410 JUMP JUMPDEST POP SWAP1 SWAP11 SWAP10 POP POP POP POP POP POP POP POP POP POP JUMP JUMPDEST PUSH20 0xFFFFFFFFFFFFFFFFFFFFFFFFFFFFFFFFFFFFFFFF SWAP5 DUP6 AND DUP2 MSTORE SWAP3 SWAP1 SWAP4 AND PUSH1 0x20 DUP4 ADD MSTORE PUSH1 0x40 DUP3 ADD MSTORE PUSH1 0x60 DUP2 ADD SWAP2 SWAP1 SWAP2 MSTORE PUSH1 0xA0 PUSH1 0x80 DUP3 ADD DUP2 SWAP1 MSTORE PUSH1 0x0 SWAP1 DUP3 ADD MSTORE PUSH1 0xC0 ADD SWAP1 JUMP JUMPDEST PUSH1 0x20 DUP1 DUP3 MSTORE DUP3 MLOAD DUP3 DUP3 ADD DUP2 SWAP1 MSTORE PUSH1 0x0 SWAP2 SWAP1 PUSH1 0x40 SWAP1 DUP2 DUP6 ADD SWAP1 DUP7 DUP5 ADD DUP6 JUMPDEST DUP3 DUP2 LT ISZERO PUSH2 0x24DC JUMPI DUP2 MLOAD DUP1 MLOAD DUP6 MSTORE DUP7 ADD MLOAD DUP7 DUP6 ADD MSTORE SWAP3 DUP5 ADD SWAP3 SWAP1 DUP6 ADD SWAP1 PUSH1 0x1 ADD PUSH2 0x24B7 JUMP JUMPDEST POP SWAP2 SWAP8 SWAP7 POP POP POP POP POP POP POP JUMP JUMPDEST PUSH1 0x20 DUP1 DUP3 MSTORE DUP3 MLOAD DUP3 DUP3 ADD DUP2 SWAP1 MSTORE PUSH1 0x0 SWAP2 SWAP1 PUSH1 0x40 SWAP1 DUP2 DUP6 ADD SWAP1 DUP7 DUP5 ADD DUP6 JUMPDEST DUP3 DUP2 LT ISZERO PUSH2 0x24DC JUMPI DUP2 MLOAD DUP1 MLOAD PUSH20 0xFFFFFFFFFFFFFFFFFFFFFFFFFFFFFFFFFFFFFFFF AND DUP6 MSTORE DUP7 DUP2 ADD MLOAD DUP8 DUP7 ADD MSTORE DUP6 DUP2 ADD MLOAD DUP7 DUP7 ADD MSTORE PUSH1 0x60 SWAP1 DUP2 ADD MLOAD SWAP1 DUP6 ADD MSTORE PUSH1 0x80 SWAP1 SWAP4 ADD SWAP3 SWAP1 DUP6 ADD SWAP1 PUSH1 0x1 ADD PUSH2 0x2506 JUMP JUMPDEST PUSH1 0x20 DUP1 DUP3 MSTORE DUP3 MLOAD DUP3 DUP3 ADD DUP2 SWAP1 MSTORE PUSH1 0x0 SWAP2 SWAP1 PUSH1 0x40 SWAP1 DUP2 DUP6 ADD SWAP1 DUP7 DUP5 ADD DUP6 JUMPDEST DUP3 DUP2 LT ISZERO PUSH2 0x24DC JUMPI DUP2 MLOAD DUP1 MLOAD PUSH20 0xFFFFFFFFFFFFFFFFFFFFFFFFFFFFFFFFFFFFFFFF SWAP1 DUP2 AND DUP7 MSTORE DUP8 DUP3 ADD MLOAD ISZERO ISZERO DUP9 DUP8 ADD MSTORE DUP7 DUP3 ADD MLOAD AND DUP7 DUP7 ADD MSTORE PUSH1 0x60 DUP1 DUP3 ADD MLOAD SWAP1 DUP7 ADD MSTORE PUSH1 0x80 SWAP1 DUP2 ADD MLOAD SWAP1 DUP6 ADD MSTORE PUSH1 0xA0 SWAP1 SWAP4 ADD SWAP3 SWAP1 DUP6 ADD SWAP1 PUSH1 0x1 ADD PUSH2 0x2573 JUMP JUMPDEST PUSH32 0xFFFFFFFF00000000000000000000000000000000000000000000000000000000 SWAP2 SWAP1 SWAP2 AND DUP2 MSTORE PUSH1 0x20 ADD SWAP1 JUMP JUMPDEST PUSH1 0x20 DUP1 DUP3 MSTORE PUSH1 0x30 SWAP1 DUP3 ADD MSTORE PUSH32 0x526166666C653A2043616E277420616363657074207472616E7366657220666F PUSH1 0x40 DUP3 ADD MSTORE PUSH32 0x72206578706972656420726166666C6500000000000000000000000000000000 PUSH1 0x60 DUP3 ADD MSTORE PUSH1 0x80 ADD SWAP1 JUMP JUMPDEST PUSH1 0x20 DUP1 DUP3 MSTORE PUSH1 0x1D SWAP1 DUP3 ADD MSTORE PUSH32 0x526166666C653A20526166666C6520646F6573206E6F74206578697374000000 PUSH1 0x40 DUP3 ADD MSTORE PUSH1 0x60 ADD SWAP1 JUMP JUMPDEST PUSH1 0x20 DUP1 DUP3 MSTORE PUSH1 0x30 SWAP1 DUP3 ADD MSTORE PUSH32 0x526166666C653A205374616B65206974656D20646F65736E2774206578697374 PUSH1 0x40 DUP3 ADD MSTORE PUSH32 0x20666F72207468697320726166666C6500000000000000000000000000000000 PUSH1 0x60 DUP3 ADD MSTORE PUSH1 0x80 ADD SWAP1 JUMP JUMPDEST PUSH1 0x20 DUP1 DUP3 MSTORE PUSH1 0x2E SWAP1 DUP3 ADD MSTORE PUSH32 0x526166666C653A205F726166666C65456E64206D757374206265206772656174 PUSH1 0x40 DUP3 ADD MSTORE PUSH32 0x6572207468616E203120686F7572000000000000000000000000000000000000 PUSH1 0x60 DUP3 ADD MSTORE PUSH1 0x80 ADD SWAP1 JUMP JUMPDEST PUSH1 0x20 DUP1 DUP3 MSTORE PUSH1 0x38 SWAP1 DUP3 ADD MSTORE PUSH32 0x526166666C653A20416E79207072697A657320666F72206163636F756E742068 PUSH1 0x40 DUP3 ADD MSTORE PUSH32 0x61766520616C7265616479206265656E20636C61696D65640000000000000000 PUSH1 0x60 DUP3 ADD MSTORE PUSH1 0x80 ADD SWAP1 JUMP JUMPDEST PUSH1 0x20 DUP1 DUP3 MSTORE PUSH1 0x27 SWAP1 DUP3 ADD MSTORE PUSH32 0x526166666C653A2052616E646F6D206E756D626572206E6F742067656E657261 PUSH1 0x40 DUP3 ADD MSTORE PUSH32 0x7465642079657400000000000000000000000000000000000000000000000000 PUSH1 0x60 DUP3 ADD MSTORE PUSH1 0x80 ADD SWAP1 JUMP JUMPDEST PUSH1 0x20 DUP1 DUP3 MSTORE PUSH1 0x23 SWAP1 DUP3 ADD MSTORE PUSH32 0x526166666C653A20526166666C652074696D6520686173206E6F742065787069 PUSH1 0x40 DUP3 ADD MSTORE PUSH32 0x7265640000000000000000000000000000000000000000000000000000000000 PUSH1 0x60 DUP3 ADD MSTORE PUSH1 0x80 ADD SWAP1 JUMP JUMPDEST PUSH1 0x20 DUP1 DUP3 MSTORE PUSH1 0x1F SWAP1 DUP3 ADD MSTORE PUSH32 0x526166666C653A20526166666C652074696D6520686173206578706972656400 PUSH1 0x40 DUP3 ADD MSTORE PUSH1 0x60 ADD SWAP1 JUMP JUMPDEST PUSH1 0x20 DUP1 DUP3 MSTORE PUSH1 0x27 SWAP1 DUP3 ADD MSTORE PUSH32 0x526166666C653A20496E636F727265637420646174612073656E74206F6E2074 PUSH1 0x40 DUP3 ADD MSTORE PUSH32 0x72616E7366657200000000000000000000000000000000000000000000000000 PUSH1 0x60 DUP3 ADD MSTORE PUSH1 0x80 ADD SWAP1 JUMP JUMPDEST PUSH1 0x20 DUP1 DUP3 MSTORE PUSH1 0x27 SWAP1 DUP3 ADD MSTORE PUSH32 0x526166666C653A2052616E646F6D206E756D62657220616C7265616479206765 PUSH1 0x40 DUP3 ADD MSTORE PUSH32 0x6E65726174656400000000000000000000000000000000000000000000000000 PUSH1 0x60 DUP3 ADD MSTORE PUSH1 0x80 ADD SWAP1 JUMP JUMPDEST PUSH1 0x20 DUP1 DUP3 MSTORE PUSH1 0x1E SWAP1 DUP3 ADD MSTORE PUSH32 0x526166666C653A204D75737420626520636F6E7472616374206F776E65720000 PUSH1 0x40 DUP3 ADD MSTORE PUSH1 0x60 ADD SWAP1 JUMP JUMPDEST DUP4 DUP2 MSTORE PUSH1 0x40 PUSH1 0x20 DUP1 DUP4 ADD DUP3 SWAP1 MSTORE DUP3 DUP3 ADD DUP5 SWAP1 MSTORE PUSH1 0x0 SWAP2 SWAP1 PUSH1 0x60 SWAP1 DUP2 DUP6 ADD DUP8 DUP6 JUMPDEST DUP9 DUP2 LT ISZERO PUSH2 0x2A14 JUMPI PUSH20 0xFFFFFFFFFFFFFFFFFFFFFFFFFFFFFFFFFFFFFFFF DUP1 PUSH2 0x29D3 DUP5 PUSH2 0x2000 JUMP JUMPDEST AND DUP5 MSTORE DUP5 DUP4 ADD CALLDATALOAD DUP6 DUP6 ADD MSTORE DUP1 PUSH2 0x29EA DUP9 DUP6 ADD PUSH2 0x2000 JUMP JUMPDEST AND DUP5 DUP9 ADD MSTORE POP DUP2 DUP6 ADD CALLDATALOAD DUP6 DUP5 ADD MSTORE PUSH1 0x80 DUP1 DUP4 ADD CALLDATALOAD SWAP1 DUP5 ADD MSTORE PUSH1 0xA0 SWAP3 DUP4 ADD SWAP3 SWAP1 SWAP2 ADD SWAP1 PUSH1 0x1 ADD PUSH2 0x29AC JUMP JUMPDEST POP SWAP1 SWAP10 SWAP9 POP POP POP POP POP POP POP POP POP JUMP JUMPDEST PUSH1 0x0 PUSH1 0x40 DUP1 DUP4 ADD DUP6 DUP5 MSTORE PUSH1 0x20 DUP3 DUP2 DUP7 ADD MSTORE DUP2 DUP7 MLOAD DUP1 DUP5 MSTORE PUSH1 0x60 SWAP4 POP DUP4 DUP8 ADD SWAP2 POP DUP3 DUP9 ADD DUP7 JUMPDEST DUP3 DUP2 LT ISZERO PUSH2 0x2AA3 JUMPI DUP2 MLOAD DUP1 MLOAD PUSH20 0xFFFFFFFFFFFFFFFFFFFFFFFFFFFFFFFFFFFFFFFF SWAP1 DUP2 AND DUP7 MSTORE DUP7 DUP3 ADD MLOAD DUP8 DUP8 ADD MSTORE DUP9 DUP3 ADD MLOAD AND DUP9 DUP7 ADD MSTORE DUP7 DUP2 ADD MLOAD DUP8 DUP7 ADD MSTORE PUSH1 0x80 SWAP1 DUP2 ADD MLOAD SWAP1 DUP6 ADD MSTORE PUSH1 0xA0 SWAP1 SWAP4 ADD SWAP3 SWAP1 DUP5 ADD SWAP1 PUSH1 0x1 ADD PUSH2 0x2A48 JUMP JUMPDEST POP SWAP2 SWAP10 SWAP9 POP POP POP POP POP POP POP POP POP JUMP JUMPDEST PUSH1 0x40 MLOAD DUP2 DUP2 ADD PUSH8 0xFFFFFFFFFFFFFFFF DUP2 GT DUP3 DUP3 LT OR ISZERO PUSH2 0x2ACE JUMPI INVALID JUMPDEST PUSH1 0x40 MSTORE SWAP2 SWAP1 POP JUMP INVALID LOG2 PUSH5 0x6970667358 0x22 SLT KECCAK256 DUP4 0xD8 0x21 0x28 0x22 SWAP13 PUSH27 0x5B24FBEF0259604B7F3B14151F50E1522D2E1FE27124545EA06473 PUSH16 0x6C634300070400330000000000000000 "
        },
        "methodIdentifiers": {
          "claimPrize(uint256)": "d7098154",
          "drawRandomNumber(uint256)": "339a6403",
          "onERC1155Received(address,address,uint256,uint256,bytes)": "f23a6e61",
          "openRaffles()": "df745925",
          "owner()": "8da5cb5b",
          "raffleInfo(uint256)": "bf30d790",
          "raffleSupply()": "599d127a",
          "stake(uint256,(address,uint256,uint256)[])": "51a749f3",
          "stakerStats(uint256)": "0da31f46",
          "startRaffle(uint256,(address,uint256,address,uint256,uint256)[])": "553d6833",
          "transferOwnership(address)": "f2fde38b",
          "winners(uint256)": "a2fb1175",
          "winners(uint256,address[])": "d1a4692a"
        }
      }
    }
  }
}