{
  "contracts/RaffleContract.sol": {
    "RaffleContract": {
      "abi": [
        {
          "inputs": [
            {
              "internalType": "address",
              "name": "_contractOwner",
              "type": "address"
            }
          ],
          "stateMutability": "nonpayable",
          "type": "constructor"
        },
        {
          "anonymous": false,
          "inputs": [
            {
              "indexed": true,
              "internalType": "address",
              "name": "previousOwner",
              "type": "address"
            },
            {
              "indexed": true,
              "internalType": "address",
              "name": "newOwner",
              "type": "address"
            }
          ],
          "name": "OwnershipTransferred",
          "type": "event"
        },
        {
          "anonymous": false,
          "inputs": [
            {
              "indexed": true,
              "internalType": "uint256",
              "name": "raffleId",
              "type": "uint256"
            },
            {
              "indexed": false,
              "internalType": "address",
              "name": "staker",
              "type": "address"
            },
            {
              "indexed": false,
              "internalType": "address",
              "name": "prizeAddress",
              "type": "address"
            },
            {
              "indexed": false,
              "internalType": "uint256",
              "name": "prizeId",
              "type": "uint256"
            },
            {
              "indexed": false,
              "internalType": "uint256",
              "name": "prizeValue",
              "type": "uint256"
            }
          ],
          "name": "RaffleClaimPrize",
          "type": "event"
        },
        {
          "anonymous": false,
          "inputs": [
            {
              "indexed": true,
              "internalType": "uint256",
              "name": "raffleId",
              "type": "uint256"
            },
            {
              "indexed": false,
              "internalType": "uint256",
              "name": "randomNumber",
              "type": "uint256"
            }
          ],
          "name": "RaffleRandomNumber",
          "type": "event"
        },
        {
          "anonymous": false,
          "inputs": [
            {
              "indexed": true,
              "internalType": "uint256",
              "name": "raffleId",
              "type": "uint256"
            },
            {
              "indexed": false,
              "internalType": "address",
              "name": "staker",
              "type": "address"
            },
            {
              "components": [
                {
                  "internalType": "address",
                  "name": "stakeAddress",
                  "type": "address"
                },
                {
                  "internalType": "uint256",
                  "name": "stakeId",
                  "type": "uint256"
                },
                {
                  "internalType": "uint256",
                  "name": "stakeValue",
                  "type": "uint256"
                }
              ],
              "indexed": false,
              "internalType": "struct RaffleContract.StakeItemInput[]",
              "name": "stakeItems",
              "type": "tuple[]"
            }
          ],
          "name": "RaffleStaker",
          "type": "event"
        },
        {
          "anonymous": false,
          "inputs": [
            {
              "indexed": true,
              "internalType": "uint256",
              "name": "raffleId",
              "type": "uint256"
            },
            {
              "indexed": false,
              "internalType": "uint256",
              "name": "raffleEnd",
              "type": "uint256"
            },
            {
              "components": [
                {
                  "internalType": "address",
                  "name": "stakeAddress",
                  "type": "address"
                },
                {
                  "internalType": "uint256",
                  "name": "stakeId",
                  "type": "uint256"
                },
                {
                  "internalType": "address",
                  "name": "prizeAddress",
                  "type": "address"
                },
                {
                  "internalType": "uint256",
                  "name": "prizeId",
                  "type": "uint256"
                },
                {
                  "internalType": "uint256",
                  "name": "prizeValue",
                  "type": "uint256"
                }
              ],
              "indexed": false,
              "internalType": "struct RaffleItem[]",
              "name": "raffleItems",
              "type": "tuple[]"
            }
          ],
          "name": "RaffleStarted",
          "type": "event"
        },
        {
          "inputs": [
            {
              "internalType": "uint256",
              "name": "_raffleId",
              "type": "uint256"
            }
          ],
          "name": "claimPrize",
          "outputs": [],
          "stateMutability": "nonpayable",
          "type": "function"
        },
        {
          "inputs": [
            {
              "internalType": "uint256",
              "name": "_raffleId",
              "type": "uint256"
            }
          ],
          "name": "drawRandomNumber",
          "outputs": [],
          "stateMutability": "nonpayable",
          "type": "function"
        },
        {
          "inputs": [
            {
              "internalType": "address",
              "name": "_operator",
              "type": "address"
            },
            {
              "internalType": "address",
              "name": "_from",
              "type": "address"
            },
            {
              "internalType": "uint256",
              "name": "_id",
              "type": "uint256"
            },
            {
              "internalType": "uint256",
              "name": "_value",
              "type": "uint256"
            },
            {
              "internalType": "bytes",
              "name": "_data",
              "type": "bytes"
            }
          ],
          "name": "onERC1155Received",
          "outputs": [
            {
              "internalType": "bytes4",
              "name": "",
              "type": "bytes4"
            }
          ],
          "stateMutability": "view",
          "type": "function"
        },
        {
          "inputs": [],
          "name": "openRaffles",
          "outputs": [
            {
              "components": [
                {
                  "internalType": "uint256",
                  "name": "raffleId",
                  "type": "uint256"
                },
                {
                  "internalType": "uint256",
                  "name": "raffleEnd",
                  "type": "uint256"
                }
              ],
              "internalType": "struct RaffleContract.OpenRaffle[]",
              "name": "openRaffles_",
              "type": "tuple[]"
            }
          ],
          "stateMutability": "view",
          "type": "function"
        },
        {
          "inputs": [],
          "name": "owner",
          "outputs": [
            {
              "internalType": "address",
              "name": "",
              "type": "address"
            }
          ],
          "stateMutability": "view",
          "type": "function"
        },
        {
          "inputs": [
            {
              "internalType": "uint256",
              "name": "_raffleId",
              "type": "uint256"
            }
          ],
          "name": "raffleInfo",
          "outputs": [
            {
              "internalType": "uint256",
              "name": "raffleEnd_",
              "type": "uint256"
            },
            {
              "components": [
                {
                  "internalType": "address",
                  "name": "stakeAddress",
                  "type": "address"
                },
                {
                  "internalType": "uint256",
                  "name": "stakeId",
                  "type": "uint256"
                },
                {
                  "internalType": "address",
                  "name": "prizeAddress",
                  "type": "address"
                },
                {
                  "internalType": "uint256",
                  "name": "prizeId",
                  "type": "uint256"
                },
                {
                  "internalType": "uint256",
                  "name": "prizeValue",
                  "type": "uint256"
                }
              ],
              "internalType": "struct RaffleItem[]",
              "name": "raffleItems_",
              "type": "tuple[]"
            }
          ],
          "stateMutability": "view",
          "type": "function"
        },
        {
          "inputs": [],
          "name": "raffleSupply",
          "outputs": [
            {
              "internalType": "uint256",
              "name": "raffleSupply_",
              "type": "uint256"
            }
          ],
          "stateMutability": "view",
          "type": "function"
        },
        {
          "inputs": [
            {
              "internalType": "uint256",
              "name": "_raffleId",
              "type": "uint256"
            },
            {
              "components": [
                {
                  "internalType": "address",
                  "name": "stakeAddress",
                  "type": "address"
                },
                {
                  "internalType": "uint256",
                  "name": "stakeId",
                  "type": "uint256"
                },
                {
                  "internalType": "uint256",
                  "name": "stakeValue",
                  "type": "uint256"
                }
              ],
              "internalType": "struct RaffleContract.StakeItemInput[]",
              "name": "_stakeItems",
              "type": "tuple[]"
            }
          ],
          "name": "stake",
          "outputs": [],
          "stateMutability": "nonpayable",
          "type": "function"
        },
        {
          "inputs": [
            {
              "internalType": "uint256",
              "name": "_raffleId",
              "type": "uint256"
            }
          ],
          "name": "stakerStats",
          "outputs": [
            {
              "components": [
                {
                  "internalType": "address",
                  "name": "stakeAddress",
                  "type": "address"
                },
                {
                  "internalType": "uint256",
                  "name": "stakeId",
                  "type": "uint256"
                },
                {
                  "internalType": "uint256",
                  "name": "numberOfStakers",
                  "type": "uint256"
                },
                {
                  "internalType": "uint256",
                  "name": "stakeTotal",
                  "type": "uint256"
                }
              ],
              "internalType": "struct RaffleContract.StakerStats[]",
              "name": "stakerStats_",
              "type": "tuple[]"
            }
          ],
          "stateMutability": "view",
          "type": "function"
        },
        {
          "inputs": [
            {
              "internalType": "uint256",
              "name": "_raffleEnd",
              "type": "uint256"
            },
            {
              "components": [
                {
                  "internalType": "address",
                  "name": "stakeAddress",
                  "type": "address"
                },
                {
                  "internalType": "uint256",
                  "name": "stakeId",
                  "type": "uint256"
                },
                {
                  "internalType": "address",
                  "name": "prizeAddress",
                  "type": "address"
                },
                {
                  "internalType": "uint256",
                  "name": "prizeId",
                  "type": "uint256"
                },
                {
                  "internalType": "uint256",
                  "name": "prizeValue",
                  "type": "uint256"
                }
              ],
              "internalType": "struct RaffleItem[]",
              "name": "_raffleItems",
              "type": "tuple[]"
            }
          ],
          "name": "startRaffle",
          "outputs": [],
          "stateMutability": "nonpayable",
          "type": "function"
        },
        {
          "inputs": [
            {
              "internalType": "address",
              "name": "_newContractOwner",
              "type": "address"
            }
          ],
          "name": "transferOwnership",
          "outputs": [],
          "stateMutability": "nonpayable",
          "type": "function"
        },
        {
          "inputs": [
            {
              "internalType": "uint256",
              "name": "_raffleId",
              "type": "uint256"
            }
          ],
          "name": "winners",
          "outputs": [
            {
              "components": [
                {
                  "internalType": "address",
                  "name": "staker",
                  "type": "address"
                },
                {
                  "internalType": "bool",
                  "name": "claimed",
                  "type": "bool"
                },
                {
                  "internalType": "address",
                  "name": "prizeAddress",
                  "type": "address"
                },
                {
                  "internalType": "uint256",
                  "name": "prizeId",
                  "type": "uint256"
                },
                {
                  "internalType": "uint256",
                  "name": "prizeValue",
                  "type": "uint256"
                }
              ],
              "internalType": "struct RaffleContract.Winner[]",
              "name": "winners_",
              "type": "tuple[]"
            }
          ],
          "stateMutability": "view",
          "type": "function"
        },
        {
          "inputs": [
            {
              "internalType": "uint256",
              "name": "_raffleId",
              "type": "uint256"
            },
            {
              "internalType": "address[]",
              "name": "_stakers",
              "type": "address[]"
            }
          ],
          "name": "winners",
          "outputs": [
            {
              "components": [
                {
                  "internalType": "address",
                  "name": "staker",
                  "type": "address"
                },
                {
                  "internalType": "bool",
                  "name": "claimed",
                  "type": "bool"
                },
                {
                  "internalType": "address",
                  "name": "prizeAddress",
                  "type": "address"
                },
                {
                  "internalType": "uint256",
                  "name": "prizeId",
                  "type": "uint256"
                },
                {
                  "internalType": "uint256",
                  "name": "prizeValue",
                  "type": "uint256"
                }
              ],
              "internalType": "struct RaffleContract.Winner[]",
              "name": "winners_",
              "type": "tuple[]"
            }
          ],
          "stateMutability": "view",
          "type": "function"
        }
      ],
      "evm": {
        "bytecode": {
          "linkReferences": {},
          "object": "60806040523480156200001157600080fd5b5060405162002c0438038062002c0483398101604081905262000034916200005a565b600180546001600160a01b0319166001600160a01b03929092169190911790556200008a565b6000602082840312156200006c578081fd5b81516001600160a01b038116811462000083578182fd5b9392505050565b612b6a806200009a6000396000f3fe608060405234801561001057600080fd5b50600436106100df5760003560e01c8063a2fb11751161008c578063d709815411610066578063d7098154146101c6578063df745925146101d9578063f23a6e61146101ee578063f2fde38b1461020e576100df565b8063a2fb117514610172578063bf30d79014610192578063d1a4692a146101b3576100df565b8063553d6833116100bd578063553d683314610135578063599d127a146101485780638da5cb5b1461015d576100df565b80630da31f46146100e4578063339a64031461010d57806351a749f314610122575b600080fd5b6100f76100f2366004612142565b610221565b6040516101049190612547565b60405180910390f35b61012061011b366004612142565b610569565b005b610120610130366004612288565b6106cb565b61012061014336600461220e565b610b10565b610150610fbd565b60405161010491906122ef565b610165610fc3565b6040516101049190612338565b610185610180366004612142565b610fdf565b60405161010491906125b4565b6101a56101a0366004612142565b6110b8565b604051610104929190612a81565b6101856101c136600461215a565b6113f5565b6101206101d4366004612142565b61187d565b6101e1611cb9565b60405161010491906124f8565b6102016101fc3660046120a1565b611d9b565b6040516101049190612630565b61012061021c366004612087565b611eb5565b6000546060908210610268576040517f08c379a000000000000000000000000000000000000000000000000000000000815260040161025f906126ba565b60405180910390fd5b600080600001838154811061027957fe5b90600052602060002090600802019050806001018054905067ffffffffffffffff811180156102a757600080fd5b506040519080825280602002602001820160405280156102e157816020015b6102ce611f7d565b8152602001906001900390816102c65790505b50915060005b60018201548110156105625781600101818154811061030257fe5b6000918252602090912060039091020154835173ffffffffffffffffffffffffffffffffffffffff9091169084908390811061033a57fe5b602090810291909101015173ffffffffffffffffffffffffffffffffffffffff90911690526001820180548290811061036f57fe5b90600052602060002090600302016001015483828151811061038d57fe5b602002602001015160200181815250508160010181815481106103ac57fe5b9060005260206000209060030201600201548382815181106103ca57fe5b60200260200101516060018181525050600060018360000160008685815181106103f057fe5b60200260200101516000015173ffffffffffffffffffffffffffffffffffffffff1673ffffffffffffffffffffffffffffffffffffffff168152602001908152602001600020600086858151811061044457fe5b60200260200101516020015181526020019081526020016000205403905060005b600584015481101561055857600084600501828154811061048257fe5b600091825260208220015473ffffffffffffffffffffffffffffffffffffffff1691505b73ffffffffffffffffffffffffffffffffffffffff8216600090815260038701602052604090205481101561054e5773ffffffffffffffffffffffffffffffffffffffff82166000908152600387016020526040902080548290811061050857fe5b60009182526020909120015462ffffff168414156105465786858151811061052c57fe5b60209081029190910101516040018051600101905261054e565b6001016104a6565b5050600101610465565b50506001016102e7565b5050919050565b60005481106105a4576040517f08c379a000000000000000000000000000000000000000000000000000000000815260040161025f906126ba565b60008060000182815481106105b557fe5b9060005260206000209060080201905042816007015410610602576040517f08c379a000000000000000000000000000000000000000000000000000000000815260040161025f90612865565b60068101541561063e576040517f08c379a000000000000000000000000000000000000000000000000000000000815260040161025f90612956565b60004360405160200161065191906122ef565b6040516020818303038152906040528051906020012060001c7bffffffffffffffffffffffffffffffffffffffffffffffffffffffff169050827f37e68548bed90aa11745696116f838a60b0bba40fc3f77a139aee9e3b828a08e826040516106ba91906122ef565b60405180910390a260069091015550565b6000548310610706576040517f08c379a000000000000000000000000000000000000000000000000000000000815260040161025f906126ba565b600080600001848154811061071757fe5b9060005260206000209060080201905042816007015411610764576040517f08c379a000000000000000000000000000000000000000000000000000000000815260040161025f906128c2565b837f2efd8659d1439ae776eb6b979a5711c36addadbc593d16672323d0e57a3572ad33858560405161079893929190612438565b60405180910390a23360009081526003820160205260409020546107f657600581018054600181018255600091825260209091200180547fffffffffffffffffffffffff000000000000000000000000000000000000000016331790555b60005b82811015610b0957600084848381811061080f57fe5b6108259260206060909202019081019150612087565b9050600085858481811061083557fe5b905060600201602001359050600086868581811061084f57fe5b73ffffffffffffffffffffffffffffffffffffffff861660009081526020898152604080832088845290915290819020546060909202939093019290920135925050806108c8576040517f08c379a000000000000000000000000000000000000000000000000000000000815260040161025f906126f1565b80806001900391505060008660010182815481106108e257fe5b60009182526020808320600260039384029091010154338452918a0181526040808420815160608101835262ffffff80891682526dffffffffffffffffffffffffffff8087168387019081528b8801808316968501968752855460018181018855968b5297909920935193909601805496519551821671010000000000000000000000000000000000027fff0000000000000000000000000000ffffffffffffffffffffffffffffffffff969092166301000000027fffffffffffffffffffffffffffffff0000000000000000000000000000ffffff949093167fffffffffffffffffffffffffffffffffffffffffffffffffffffffffff0000009097169690961792909216179290921691909117909155890180549193509084908110610a0657fe5b906000526020600020906003020160020181905550888887818110610a2757fe5b610a3d9260206060909202019081019150612087565b73ffffffffffffffffffffffffffffffffffffffff1663f242432a33308c8c8b818110610a6657fe5b905060600201602001358d8d8c818110610a7c57fe5b905060600201604001358f604051602001610a9791906122ef565b6040516020818303038152906040526040518663ffffffff1660e01b8152600401610ac695949392919061238f565b600060405180830381600087803b158015610ae057600080fd5b505af1158015610af4573d6000803e3d6000fd5b5050600190970196506107f995505050505050565b5050505050565b60015473ffffffffffffffffffffffffffffffffffffffff163314610b61576040517f08c379a000000000000000000000000000000000000000000000000000000000815260040161025f906129b3565b42610e10018311610b9e576040517f08c379a000000000000000000000000000000000000000000000000000000000815260040161025f9061274e565b60005460405181907feb019a222c1b7da6901010b3c251b88a20f3895d2d3c9d1f433cface4b93430090610bd7908790879087906129ea565b60405180910390a2600080546001810182558180526008027f290decd9548b62a8d60345a988386fc84ba6bc95484008f6362f93160ef3e56a81018690557f290decd9548b62a8d60345a988386fc84ba6bc95484008f6362f93160ef3e56301905b83811015610fb5576000858583818110610c4f57fe5b610c6592602060a0909202019081019150612087565b90506000868684818110610c7557fe5b73ffffffffffffffffffffffffffffffffffffffff851660009081526020888152604080832060a09094029590950181013580835292905292909220549192505080610d6857506040805160608101825273ffffffffffffffffffffffffffffffffffffffff8481168083526020808401868152600085870181815260018c8101805480830182558185528685209951600390910290990180547fffffffffffffffffffffffff0000000000000000000000000000000000000000169990981698909817875592519286019290925590516002909401939093559254908252878352838220858352909252919091208190555b84600201600060018303815260200190815260200160002060405180606001604052808a8a88818110610d9757fe5b905060a002016040016020810190610daf9190612087565b73ffffffffffffffffffffffffffffffffffffffff1681526020018a8a88818110610dd657fe5b905060a002016080013569ffffffffffffffffffff1681526020018a8a88818110610dfd57fe5b60a002919091016060013590915250815460018082018455600093845260209384902083516002909302018054948401517fffffffffffffffffffffffff000000000000000000000000000000000000000090951673ffffffffffffffffffffffffffffffffffffffff909316929092177fffff00000000000000000000ffffffffffffffffffffffffffffffffffffffff167401000000000000000000000000000000000000000069ffffffffffffffffffff90951694909402939093178155604090910151910155878785818110610ed357fe5b905060a002016040016020810190610eeb9190612087565b73ffffffffffffffffffffffffffffffffffffffff1663f242432a33308b8b89818110610f1457fe5b905060a00201606001358c8c8a818110610f2a57fe5b905060a00201608001358b604051602001610f4591906122ef565b6040516020818303038152906040526040518663ffffffff1660e01b8152600401610f7495949392919061238f565b600060405180830381600087803b158015610f8e57600080fd5b505af1158015610fa2573d6000803e3d6000fd5b505060019095019450610c399350505050565b505050505050565b60005490565b60015473ffffffffffffffffffffffffffffffffffffffff1690565b600054606090821061101d576040517f08c379a000000000000000000000000000000000000000000000000000000000815260040161025f906126ba565b600080600001838154811061102e57fe5b906000526020600020906008020190506110b183826005018054806020026020016040519081016040528092919081815260200182805480156110a757602002820191906000526020600020905b815473ffffffffffffffffffffffffffffffffffffffff16815260019091019060200180831161107c575b50505050506113f5565b9392505050565b6000805460609083106110f7576040517f08c379a000000000000000000000000000000000000000000000000000000000815260040161025f906126ba565b600080600001848154811061110857fe5b90600052602060002090600802019050806007015492506000805b600183015481101561114d5760008181526002840160205260409020549190910190600101611123565b508067ffffffffffffffff8111801561116557600080fd5b5060405190808252806020026020018201604052801561119f57816020015b61118c611fbb565b8152602001906001900390816111845790505b5092506000805b60018401548110156113ec5760008181526002850160205260408120905b81548110156113e2578560010183815481106111dc57fe5b6000918252602090912060039091020154875173ffffffffffffffffffffffffffffffffffffffff9091169088908690811061121457fe5b602090810291909101015173ffffffffffffffffffffffffffffffffffffffff90911690526001860180548490811061124957fe5b90600052602060002090600302016001015487858151811061126757fe5b6020026020010151602001818152505081818154811061128357fe5b6000918252602090912060029091020154875173ffffffffffffffffffffffffffffffffffffffff909116908890869081106112bb57fe5b60200260200101516040019073ffffffffffffffffffffffffffffffffffffffff16908173ffffffffffffffffffffffffffffffffffffffff168152505081818154811061130557fe5b6000918252602090912060029091020154875173ffffffffffffffffffffffffffffffffffffffff9091169088908690811061133d57fe5b60200260200101516040019073ffffffffffffffffffffffffffffffffffffffff16908173ffffffffffffffffffffffffffffffffffffffff168152505081818154811061138757fe5b906000526020600020906002020160000160149054906101000a900469ffffffffffffffffffff1669ffffffffffffffffffff168785815181106113c757fe5b602090810291909101015160800152600193840193016111c4565b50506001016111a6565b50505050915091565b6000546060908310611433576040517f08c379a000000000000000000000000000000000000000000000000000000000815260040161025f906126ba565b600080600001848154811061144457fe5b9060005260206000209060080201905042816007015410611491576040517f08c379a000000000000000000000000000000000000000000000000000000000815260040161025f90612865565b6006810154806114cd576040517f08c379a000000000000000000000000000000000000000000000000000000000815260040161025f90612808565b6000805b60018401548110156114fb57600081815260028501602052604090205491909101906001016114d1565b508085510267ffffffffffffffff8111801561151657600080fd5b5060405190808252806020026020018201604052801561155057816020015b61153d612016565b8152602001906001900390816115355790505b509350506000805b855181101561187157600086828151811061156f57fe5b60209081029190910181015173ffffffffffffffffffffffffffffffffffffffff811660009081526003880190925260408220909250905b81548110156118665760008282815481106115be57fe5b600091825260208220015460018a01805462ffffff909216935090839081106115e357fe5b600091825260208083206002600390930201820154858452918c01905260408220909250905b81548110156118565760008083838154811061162157fe5b60009182526020822060029091020154855473ffffffffffffffffffffffffffffffffffffffff909116925085908590811061165957fe5b906000526020600020906002020160010154905060005b85858154811061167c57fe5b600091825260209091206002909102015474010000000000000000000000000000000000000000900469ffffffffffffffffffff16811015611783576000878f8585856040516020016116d294939291906122f8565b6040516020818303038152906040528051906020012060001c816116f257fe5b0690508a8a8154811061170157fe5b600091825260209091200154630100000090046dffffffffffffffffffffffffffff16811080159061176e57508a8a8154811061173a57fe5b6000918252602090912001547101000000000000000000000000000000000090046dffffffffffffffffffffffffffff1681105b1561177a576001909401935b50600101611670565b50821561184b576040518060a001604052808b73ffffffffffffffffffffffffffffffffffffffff1681526020018f60040160003373ffffffffffffffffffffffffffffffffffffffff1673ffffffffffffffffffffffffffffffffffffffff16815260200190815260200160002060009054906101000a900460ff16151581526020018373ffffffffffffffffffffffffffffffffffffffff168152602001828152602001848152508f8d8151811061183957fe5b60209081029190910101526001909b019a5b505050600101611609565b5050600190920191506115a79050565b505050600101611558565b50835250909392505050565b60005481106118b8576040517f08c379a000000000000000000000000000000000000000000000000000000000815260040161025f906126ba565b60008060000182815481106118c957fe5b9060005260206000209060080201905042816007015410611916576040517f08c379a000000000000000000000000000000000000000000000000000000000815260040161025f90612865565b600681015480611952576040517f08c379a000000000000000000000000000000000000000000000000000000000815260040161025f90612808565b33600090815260048301602052604090205460ff161561199e576040517f08c379a000000000000000000000000000000000000000000000000000000000815260040161025f906127ab565b336000908152600483016020908152604080832080547fffffffffffffffffffffffffffffffffffffffffffffffffffffffffffffff00166001179055600385019091528120905b8154811015610b095760008282815481106119fd57fe5b6000918252602082200154845463010000009091046dffffffffffffffffffffffffffff169250849084908110611a3057fe5b60009182526020822001548554710100000000000000000000000000000000009091046dffffffffffffffffffffffffffff169250859085908110611a7157fe5b600091825260208220015460018901805462ffffff90921693509083908110611a9657fe5b600091825260208083206002600390930201820154858452918b01905260408220909250905b8154811015611ca757600080838381548110611ad457fe5b60009182526020822060029091020154855473ffffffffffffffffffffffffffffffffffffffff9091169250859085908110611b0c57fe5b906000526020600020906002020160010154905060005b858581548110611b2f57fe5b600091825260209091206002909102015474010000000000000000000000000000000000000000900469ffffffffffffffffffff16811015611bcc576000878e858585604051602001611b8594939291906122f8565b6040516020818303038152906040528051906020012060001c81611ba557fe5b0690508a8110158015611bb757508981105b15611bc3576001909401935b50600101611b23565b508215611c9c578d7f61dd2cf3e9f248b4453e8abb61b6ad73c53cf482d1c506f868a3885f533233cf33848487604051611c099493929190612359565b60405180910390a26040517ff242432a00000000000000000000000000000000000000000000000000000000815273ffffffffffffffffffffffffffffffffffffffff83169063f242432a90611c699030903390869089906004016124b3565b600060405180830381600087803b158015611c8357600080fd5b505af1158015611c97573d6000803e3d6000fd5b505050505b505050600101611abc565b5050600190940193506119e692505050565b60005460609067ffffffffffffffff81118015611cd557600080fd5b50604051908082528060200260200182016040528015611d0f57816020015b611cfc612044565b815260200190600190039081611cf45790505b5090506000805b600054811015611d95576000806000018281548110611d3157fe5b906000526020600020906008020160070154905042811115611d8c5781848481518110611d5a57fe5b6020026020010151600001818152505080848481518110611d7757fe5b60209081029190910181015101526001909201915b50600101611d16565b50815290565b600060208214611dd7576040517f08c379a000000000000000000000000000000000000000000000000000000000815260040161025f906128f9565b6000611de583850185612142565b6000549091508110611e23576040517f08c379a000000000000000000000000000000000000000000000000000000000815260040161025f906126ba565b6000806000018281548110611e3457fe5b90600052602060002090600802019050600081600701549050428111611e86576040517f08c379a000000000000000000000000000000000000000000000000000000000815260040161025f9061265d565b507ff23a6e61000000000000000000000000000000000000000000000000000000009998505050505050505050565b60015473ffffffffffffffffffffffffffffffffffffffff16338114611f07576040517f08c379a000000000000000000000000000000000000000000000000000000000815260040161025f906129b3565b600180547fffffffffffffffffffffffff00000000000000000000000000000000000000001673ffffffffffffffffffffffffffffffffffffffff84811691821790925560405190918316907f8be0079c531659141344cd1fd0a4f28419497f9722a3daafe3b4186f6b6457e090600090a35050565b6040518060800160405280600073ffffffffffffffffffffffffffffffffffffffff1681526020016000815260200160008152602001600081525090565b6040518060a00160405280600073ffffffffffffffffffffffffffffffffffffffff16815260200160008152602001600073ffffffffffffffffffffffffffffffffffffffff16815260200160008152602001600081525090565b6040805160a08101825260008082526020820181905291810182905260608101829052608081019190915290565b604051806040016040528060008152602001600081525090565b803573ffffffffffffffffffffffffffffffffffffffff8116811461208257600080fd5b919050565b600060208284031215612098578081fd5b6110b18261205e565b60008060008060008060a087890312156120b9578182fd5b6120c28761205e565b95506120d06020880161205e565b94506040870135935060608701359250608087013567ffffffffffffffff808211156120fa578384fd5b818901915089601f83011261210d578384fd5b81358181111561211b578485fd5b8a602082850101111561212c578485fd5b6020830194508093505050509295509295509295565b600060208284031215612153578081fd5b5035919050565b6000806040838503121561216c578182fd5b8235915060208084013567ffffffffffffffff8082111561218b578384fd5b818601915086601f83011261219e578384fd5b8135818111156121aa57fe5b83810291506121ba848301612b10565b8181528481019084860184860187018b10156121d4578788fd5b8795505b838610156121fd576121e98161205e565b8352600195909501949186019186016121d8565b508096505050505050509250929050565b600080600060408486031215612222578283fd5b83359250602084013567ffffffffffffffff80821115612240578384fd5b818601915086601f830112612253578384fd5b813581811115612261578485fd5b87602060a083028501011115612275578485fd5b6020830194508093505050509250925092565b60008060006040848603121561229c578283fd5b83359250602084013567ffffffffffffffff808211156122ba578384fd5b818601915086601f8301126122cd578384fd5b8135818111156122db578485fd5b876020606083028501011115612275578485fd5b90815260200190565b93845260609290921b7fffffffffffffffffffffffffffffffffffffffff0000000000000000000000001660208401526034830152605482015260740190565b73ffffffffffffffffffffffffffffffffffffffff91909116815260200190565b73ffffffffffffffffffffffffffffffffffffffff94851681529290931660208301526040820152606081019190915260800190565b600073ffffffffffffffffffffffffffffffffffffffff808816835260208188168185015286604085015285606085015260a06080850152845191508160a0850152825b828110156123ef5785810182015185820160c0015281016123d3565b82811115612400578360c084870101525b5050601f017fffffffffffffffffffffffffffffffffffffffffffffffffffffffffffffffe0169190910160c0019695505050505050565b73ffffffffffffffffffffffffffffffffffffffff84811682526040602080840182905283820185905260009260609182860188865b898110156124a357846124808361205e565b16835281840135848401528682013587840152918501919085019060010161246e565b50909a9950505050505050505050565b73ffffffffffffffffffffffffffffffffffffffff94851681529290931660208301526040820152606081019190915260a06080820181905260009082015260c00190565b602080825282518282018190526000919060409081850190868401855b8281101561253a57815180518552860151868501529284019290850190600101612515565b5091979650505050505050565b602080825282518282018190526000919060409081850190868401855b8281101561253a578151805173ffffffffffffffffffffffffffffffffffffffff168552868101518786015285810151868601526060908101519085015260809093019290850190600101612564565b602080825282518282018190526000919060409081850190868401855b8281101561253a578151805173ffffffffffffffffffffffffffffffffffffffff908116865287820151151588870152868201511686860152606080820151908601526080908101519085015260a090930192908501906001016125d1565b7fffffffff0000000000000000000000000000000000000000000000000000000091909116815260200190565b60208082526030908201527f526166666c653a2043616e277420616363657074207472616e7366657220666f60408201527f72206578706972656420726166666c6500000000000000000000000000000000606082015260800190565b6020808252601d908201527f526166666c653a20526166666c6520646f6573206e6f74206578697374000000604082015260600190565b60208082526030908201527f526166666c653a205374616b65206974656d20646f65736e277420657869737460408201527f20666f72207468697320726166666c6500000000000000000000000000000000606082015260800190565b6020808252602e908201527f526166666c653a205f726166666c65456e64206d75737420626520677265617460408201527f6572207468616e203120686f7572000000000000000000000000000000000000606082015260800190565b60208082526038908201527f526166666c653a20416e79207072697a657320666f72206163636f756e74206860408201527f61766520616c7265616479206265656e20636c61696d65640000000000000000606082015260800190565b60208082526027908201527f526166666c653a2052616e646f6d206e756d626572206e6f742067656e65726160408201527f7465642079657400000000000000000000000000000000000000000000000000606082015260800190565b60208082526023908201527f526166666c653a20526166666c652074696d6520686173206e6f74206578706960408201527f7265640000000000000000000000000000000000000000000000000000000000606082015260800190565b6020808252601f908201527f526166666c653a20526166666c652074696d6520686173206578706972656400604082015260600190565b60208082526027908201527f526166666c653a20496e636f727265637420646174612073656e74206f6e207460408201527f72616e7366657200000000000000000000000000000000000000000000000000606082015260800190565b60208082526027908201527f526166666c653a2052616e646f6d206e756d62657220616c726561647920676560408201527f6e65726174656400000000000000000000000000000000000000000000000000606082015260800190565b6020808252601e908201527f526166666c653a204d75737420626520636f6e7472616374206f776e65720000604082015260600190565b838152604060208083018290528282018490526000919060609081850187855b88811015612a725773ffffffffffffffffffffffffffffffffffffffff80612a318461205e565b168452848301358585015280612a4888850161205e565b16848801525081850135858401526080808301359084015260a09283019290910190600101612a0a565b50909998505050505050505050565b6000604080830185845260208281860152818651808452606093508387019150828801865b82811015612b01578151805173ffffffffffffffffffffffffffffffffffffffff9081168652868201518787015288820151168886015286810151878601526080908101519085015260a09093019290840190600101612aa6565b50919998505050505050505050565b60405181810167ffffffffffffffff81118282101715612b2c57fe5b60405291905056fea2646970667358221220eddb3811b1a1a9e972fc572fb48106b2fd939d04114853148d44a233bf0a0b1b64736f6c63430007030033",
          "opcodes": "PUSH1 0x80 PUSH1 0x40 MSTORE CALLVALUE DUP1 ISZERO PUSH3 0x11 JUMPI PUSH1 0x0 DUP1 REVERT JUMPDEST POP PUSH1 0x40 MLOAD PUSH3 0x2C04 CODESIZE SUB DUP1 PUSH3 0x2C04 DUP4 CODECOPY DUP2 ADD PUSH1 0x40 DUP2 SWAP1 MSTORE PUSH3 0x34 SWAP2 PUSH3 0x5A JUMP JUMPDEST PUSH1 0x1 DUP1 SLOAD PUSH1 0x1 PUSH1 0x1 PUSH1 0xA0 SHL SUB NOT AND PUSH1 0x1 PUSH1 0x1 PUSH1 0xA0 SHL SUB SWAP3 SWAP1 SWAP3 AND SWAP2 SWAP1 SWAP2 OR SWAP1 SSTORE PUSH3 0x8A JUMP JUMPDEST PUSH1 0x0 PUSH1 0x20 DUP3 DUP5 SUB SLT ISZERO PUSH3 0x6C JUMPI DUP1 DUP2 REVERT JUMPDEST DUP2 MLOAD PUSH1 0x1 PUSH1 0x1 PUSH1 0xA0 SHL SUB DUP2 AND DUP2 EQ PUSH3 0x83 JUMPI DUP2 DUP3 REVERT JUMPDEST SWAP4 SWAP3 POP POP POP JUMP JUMPDEST PUSH2 0x2B6A DUP1 PUSH3 0x9A PUSH1 0x0 CODECOPY PUSH1 0x0 RETURN INVALID PUSH1 0x80 PUSH1 0x40 MSTORE CALLVALUE DUP1 ISZERO PUSH2 0x10 JUMPI PUSH1 0x0 DUP1 REVERT JUMPDEST POP PUSH1 0x4 CALLDATASIZE LT PUSH2 0xDF JUMPI PUSH1 0x0 CALLDATALOAD PUSH1 0xE0 SHR DUP1 PUSH4 0xA2FB1175 GT PUSH2 0x8C JUMPI DUP1 PUSH4 0xD7098154 GT PUSH2 0x66 JUMPI DUP1 PUSH4 0xD7098154 EQ PUSH2 0x1C6 JUMPI DUP1 PUSH4 0xDF745925 EQ PUSH2 0x1D9 JUMPI DUP1 PUSH4 0xF23A6E61 EQ PUSH2 0x1EE JUMPI DUP1 PUSH4 0xF2FDE38B EQ PUSH2 0x20E JUMPI PUSH2 0xDF JUMP JUMPDEST DUP1 PUSH4 0xA2FB1175 EQ PUSH2 0x172 JUMPI DUP1 PUSH4 0xBF30D790 EQ PUSH2 0x192 JUMPI DUP1 PUSH4 0xD1A4692A EQ PUSH2 0x1B3 JUMPI PUSH2 0xDF JUMP JUMPDEST DUP1 PUSH4 0x553D6833 GT PUSH2 0xBD JUMPI DUP1 PUSH4 0x553D6833 EQ PUSH2 0x135 JUMPI DUP1 PUSH4 0x599D127A EQ PUSH2 0x148 JUMPI DUP1 PUSH4 0x8DA5CB5B EQ PUSH2 0x15D JUMPI PUSH2 0xDF JUMP JUMPDEST DUP1 PUSH4 0xDA31F46 EQ PUSH2 0xE4 JUMPI DUP1 PUSH4 0x339A6403 EQ PUSH2 0x10D JUMPI DUP1 PUSH4 0x51A749F3 EQ PUSH2 0x122 JUMPI JUMPDEST PUSH1 0x0 DUP1 REVERT JUMPDEST PUSH2 0xF7 PUSH2 0xF2 CALLDATASIZE PUSH1 0x4 PUSH2 0x2142 JUMP JUMPDEST PUSH2 0x221 JUMP JUMPDEST PUSH1 0x40 MLOAD PUSH2 0x104 SWAP2 SWAP1 PUSH2 0x2547 JUMP JUMPDEST PUSH1 0x40 MLOAD DUP1 SWAP2 SUB SWAP1 RETURN JUMPDEST PUSH2 0x120 PUSH2 0x11B CALLDATASIZE PUSH1 0x4 PUSH2 0x2142 JUMP JUMPDEST PUSH2 0x569 JUMP JUMPDEST STOP JUMPDEST PUSH2 0x120 PUSH2 0x130 CALLDATASIZE PUSH1 0x4 PUSH2 0x2288 JUMP JUMPDEST PUSH2 0x6CB JUMP JUMPDEST PUSH2 0x120 PUSH2 0x143 CALLDATASIZE PUSH1 0x4 PUSH2 0x220E JUMP JUMPDEST PUSH2 0xB10 JUMP JUMPDEST PUSH2 0x150 PUSH2 0xFBD JUMP JUMPDEST PUSH1 0x40 MLOAD PUSH2 0x104 SWAP2 SWAP1 PUSH2 0x22EF JUMP JUMPDEST PUSH2 0x165 PUSH2 0xFC3 JUMP JUMPDEST PUSH1 0x40 MLOAD PUSH2 0x104 SWAP2 SWAP1 PUSH2 0x2338 JUMP JUMPDEST PUSH2 0x185 PUSH2 0x180 CALLDATASIZE PUSH1 0x4 PUSH2 0x2142 JUMP JUMPDEST PUSH2 0xFDF JUMP JUMPDEST PUSH1 0x40 MLOAD PUSH2 0x104 SWAP2 SWAP1 PUSH2 0x25B4 JUMP JUMPDEST PUSH2 0x1A5 PUSH2 0x1A0 CALLDATASIZE PUSH1 0x4 PUSH2 0x2142 JUMP JUMPDEST PUSH2 0x10B8 JUMP JUMPDEST PUSH1 0x40 MLOAD PUSH2 0x104 SWAP3 SWAP2 SWAP1 PUSH2 0x2A81 JUMP JUMPDEST PUSH2 0x185 PUSH2 0x1C1 CALLDATASIZE PUSH1 0x4 PUSH2 0x215A JUMP JUMPDEST PUSH2 0x13F5 JUMP JUMPDEST PUSH2 0x120 PUSH2 0x1D4 CALLDATASIZE PUSH1 0x4 PUSH2 0x2142 JUMP JUMPDEST PUSH2 0x187D JUMP JUMPDEST PUSH2 0x1E1 PUSH2 0x1CB9 JUMP JUMPDEST PUSH1 0x40 MLOAD PUSH2 0x104 SWAP2 SWAP1 PUSH2 0x24F8 JUMP JUMPDEST PUSH2 0x201 PUSH2 0x1FC CALLDATASIZE PUSH1 0x4 PUSH2 0x20A1 JUMP JUMPDEST PUSH2 0x1D9B JUMP JUMPDEST PUSH1 0x40 MLOAD PUSH2 0x104 SWAP2 SWAP1 PUSH2 0x2630 JUMP JUMPDEST PUSH2 0x120 PUSH2 0x21C CALLDATASIZE PUSH1 0x4 PUSH2 0x2087 JUMP JUMPDEST PUSH2 0x1EB5 JUMP JUMPDEST PUSH1 0x0 SLOAD PUSH1 0x60 SWAP1 DUP3 LT PUSH2 0x268 JUMPI PUSH1 0x40 MLOAD PUSH32 0x8C379A000000000000000000000000000000000000000000000000000000000 DUP2 MSTORE PUSH1 0x4 ADD PUSH2 0x25F SWAP1 PUSH2 0x26BA JUMP JUMPDEST PUSH1 0x40 MLOAD DUP1 SWAP2 SUB SWAP1 REVERT JUMPDEST PUSH1 0x0 DUP1 PUSH1 0x0 ADD DUP4 DUP2 SLOAD DUP2 LT PUSH2 0x279 JUMPI INVALID JUMPDEST SWAP1 PUSH1 0x0 MSTORE PUSH1 0x20 PUSH1 0x0 KECCAK256 SWAP1 PUSH1 0x8 MUL ADD SWAP1 POP DUP1 PUSH1 0x1 ADD DUP1 SLOAD SWAP1 POP PUSH8 0xFFFFFFFFFFFFFFFF DUP2 GT DUP1 ISZERO PUSH2 0x2A7 JUMPI PUSH1 0x0 DUP1 REVERT JUMPDEST POP PUSH1 0x40 MLOAD SWAP1 DUP1 DUP3 MSTORE DUP1 PUSH1 0x20 MUL PUSH1 0x20 ADD DUP3 ADD PUSH1 0x40 MSTORE DUP1 ISZERO PUSH2 0x2E1 JUMPI DUP2 PUSH1 0x20 ADD JUMPDEST PUSH2 0x2CE PUSH2 0x1F7D JUMP JUMPDEST DUP2 MSTORE PUSH1 0x20 ADD SWAP1 PUSH1 0x1 SWAP1 SUB SWAP1 DUP2 PUSH2 0x2C6 JUMPI SWAP1 POP JUMPDEST POP SWAP2 POP PUSH1 0x0 JUMPDEST PUSH1 0x1 DUP3 ADD SLOAD DUP2 LT ISZERO PUSH2 0x562 JUMPI DUP2 PUSH1 0x1 ADD DUP2 DUP2 SLOAD DUP2 LT PUSH2 0x302 JUMPI INVALID JUMPDEST PUSH1 0x0 SWAP2 DUP3 MSTORE PUSH1 0x20 SWAP1 SWAP2 KECCAK256 PUSH1 0x3 SWAP1 SWAP2 MUL ADD SLOAD DUP4 MLOAD PUSH20 0xFFFFFFFFFFFFFFFFFFFFFFFFFFFFFFFFFFFFFFFF SWAP1 SWAP2 AND SWAP1 DUP5 SWAP1 DUP4 SWAP1 DUP2 LT PUSH2 0x33A JUMPI INVALID JUMPDEST PUSH1 0x20 SWAP1 DUP2 MUL SWAP2 SWAP1 SWAP2 ADD ADD MLOAD PUSH20 0xFFFFFFFFFFFFFFFFFFFFFFFFFFFFFFFFFFFFFFFF SWAP1 SWAP2 AND SWAP1 MSTORE PUSH1 0x1 DUP3 ADD DUP1 SLOAD DUP3 SWAP1 DUP2 LT PUSH2 0x36F JUMPI INVALID JUMPDEST SWAP1 PUSH1 0x0 MSTORE PUSH1 0x20 PUSH1 0x0 KECCAK256 SWAP1 PUSH1 0x3 MUL ADD PUSH1 0x1 ADD SLOAD DUP4 DUP3 DUP2 MLOAD DUP2 LT PUSH2 0x38D JUMPI INVALID JUMPDEST PUSH1 0x20 MUL PUSH1 0x20 ADD ADD MLOAD PUSH1 0x20 ADD DUP2 DUP2 MSTORE POP POP DUP2 PUSH1 0x1 ADD DUP2 DUP2 SLOAD DUP2 LT PUSH2 0x3AC JUMPI INVALID JUMPDEST SWAP1 PUSH1 0x0 MSTORE PUSH1 0x20 PUSH1 0x0 KECCAK256 SWAP1 PUSH1 0x3 MUL ADD PUSH1 0x2 ADD SLOAD DUP4 DUP3 DUP2 MLOAD DUP2 LT PUSH2 0x3CA JUMPI INVALID JUMPDEST PUSH1 0x20 MUL PUSH1 0x20 ADD ADD MLOAD PUSH1 0x60 ADD DUP2 DUP2 MSTORE POP POP PUSH1 0x0 PUSH1 0x1 DUP4 PUSH1 0x0 ADD PUSH1 0x0 DUP7 DUP6 DUP2 MLOAD DUP2 LT PUSH2 0x3F0 JUMPI INVALID JUMPDEST PUSH1 0x20 MUL PUSH1 0x20 ADD ADD MLOAD PUSH1 0x0 ADD MLOAD PUSH20 0xFFFFFFFFFFFFFFFFFFFFFFFFFFFFFFFFFFFFFFFF AND PUSH20 0xFFFFFFFFFFFFFFFFFFFFFFFFFFFFFFFFFFFFFFFF AND DUP2 MSTORE PUSH1 0x20 ADD SWAP1 DUP2 MSTORE PUSH1 0x20 ADD PUSH1 0x0 KECCAK256 PUSH1 0x0 DUP7 DUP6 DUP2 MLOAD DUP2 LT PUSH2 0x444 JUMPI INVALID JUMPDEST PUSH1 0x20 MUL PUSH1 0x20 ADD ADD MLOAD PUSH1 0x20 ADD MLOAD DUP2 MSTORE PUSH1 0x20 ADD SWAP1 DUP2 MSTORE PUSH1 0x20 ADD PUSH1 0x0 KECCAK256 SLOAD SUB SWAP1 POP PUSH1 0x0 JUMPDEST PUSH1 0x5 DUP5 ADD SLOAD DUP2 LT ISZERO PUSH2 0x558 JUMPI PUSH1 0x0 DUP5 PUSH1 0x5 ADD DUP3 DUP2 SLOAD DUP2 LT PUSH2 0x482 JUMPI INVALID JUMPDEST PUSH1 0x0 SWAP2 DUP3 MSTORE PUSH1 0x20 DUP3 KECCAK256 ADD SLOAD PUSH20 0xFFFFFFFFFFFFFFFFFFFFFFFFFFFFFFFFFFFFFFFF AND SWAP2 POP JUMPDEST PUSH20 0xFFFFFFFFFFFFFFFFFFFFFFFFFFFFFFFFFFFFFFFF DUP3 AND PUSH1 0x0 SWAP1 DUP2 MSTORE PUSH1 0x3 DUP8 ADD PUSH1 0x20 MSTORE PUSH1 0x40 SWAP1 KECCAK256 SLOAD DUP2 LT ISZERO PUSH2 0x54E JUMPI PUSH20 0xFFFFFFFFFFFFFFFFFFFFFFFFFFFFFFFFFFFFFFFF DUP3 AND PUSH1 0x0 SWAP1 DUP2 MSTORE PUSH1 0x3 DUP8 ADD PUSH1 0x20 MSTORE PUSH1 0x40 SWAP1 KECCAK256 DUP1 SLOAD DUP3 SWAP1 DUP2 LT PUSH2 0x508 JUMPI INVALID JUMPDEST PUSH1 0x0 SWAP2 DUP3 MSTORE PUSH1 0x20 SWAP1 SWAP2 KECCAK256 ADD SLOAD PUSH3 0xFFFFFF AND DUP5 EQ ISZERO PUSH2 0x546 JUMPI DUP7 DUP6 DUP2 MLOAD DUP2 LT PUSH2 0x52C JUMPI INVALID JUMPDEST PUSH1 0x20 SWAP1 DUP2 MUL SWAP2 SWAP1 SWAP2 ADD ADD MLOAD PUSH1 0x40 ADD DUP1 MLOAD PUSH1 0x1 ADD SWAP1 MSTORE PUSH2 0x54E JUMP JUMPDEST PUSH1 0x1 ADD PUSH2 0x4A6 JUMP JUMPDEST POP POP PUSH1 0x1 ADD PUSH2 0x465 JUMP JUMPDEST POP POP PUSH1 0x1 ADD PUSH2 0x2E7 JUMP JUMPDEST POP POP SWAP2 SWAP1 POP JUMP JUMPDEST PUSH1 0x0 SLOAD DUP2 LT PUSH2 0x5A4 JUMPI PUSH1 0x40 MLOAD PUSH32 0x8C379A000000000000000000000000000000000000000000000000000000000 DUP2 MSTORE PUSH1 0x4 ADD PUSH2 0x25F SWAP1 PUSH2 0x26BA JUMP JUMPDEST PUSH1 0x0 DUP1 PUSH1 0x0 ADD DUP3 DUP2 SLOAD DUP2 LT PUSH2 0x5B5 JUMPI INVALID JUMPDEST SWAP1 PUSH1 0x0 MSTORE PUSH1 0x20 PUSH1 0x0 KECCAK256 SWAP1 PUSH1 0x8 MUL ADD SWAP1 POP TIMESTAMP DUP2 PUSH1 0x7 ADD SLOAD LT PUSH2 0x602 JUMPI PUSH1 0x40 MLOAD PUSH32 0x8C379A000000000000000000000000000000000000000000000000000000000 DUP2 MSTORE PUSH1 0x4 ADD PUSH2 0x25F SWAP1 PUSH2 0x2865 JUMP JUMPDEST PUSH1 0x6 DUP2 ADD SLOAD ISZERO PUSH2 0x63E JUMPI PUSH1 0x40 MLOAD PUSH32 0x8C379A000000000000000000000000000000000000000000000000000000000 DUP2 MSTORE PUSH1 0x4 ADD PUSH2 0x25F SWAP1 PUSH2 0x2956 JUMP JUMPDEST PUSH1 0x0 NUMBER PUSH1 0x40 MLOAD PUSH1 0x20 ADD PUSH2 0x651 SWAP2 SWAP1 PUSH2 0x22EF JUMP JUMPDEST PUSH1 0x40 MLOAD PUSH1 0x20 DUP2 DUP4 SUB SUB DUP2 MSTORE SWAP1 PUSH1 0x40 MSTORE DUP1 MLOAD SWAP1 PUSH1 0x20 ADD KECCAK256 PUSH1 0x0 SHR PUSH28 0xFFFFFFFFFFFFFFFFFFFFFFFFFFFFFFFFFFFFFFFFFFFFFFFFFFFFFFFF AND SWAP1 POP DUP3 PUSH32 0x37E68548BED90AA11745696116F838A60B0BBA40FC3F77A139AEE9E3B828A08E DUP3 PUSH1 0x40 MLOAD PUSH2 0x6BA SWAP2 SWAP1 PUSH2 0x22EF JUMP JUMPDEST PUSH1 0x40 MLOAD DUP1 SWAP2 SUB SWAP1 LOG2 PUSH1 0x6 SWAP1 SWAP2 ADD SSTORE POP JUMP JUMPDEST PUSH1 0x0 SLOAD DUP4 LT PUSH2 0x706 JUMPI PUSH1 0x40 MLOAD PUSH32 0x8C379A000000000000000000000000000000000000000000000000000000000 DUP2 MSTORE PUSH1 0x4 ADD PUSH2 0x25F SWAP1 PUSH2 0x26BA JUMP JUMPDEST PUSH1 0x0 DUP1 PUSH1 0x0 ADD DUP5 DUP2 SLOAD DUP2 LT PUSH2 0x717 JUMPI INVALID JUMPDEST SWAP1 PUSH1 0x0 MSTORE PUSH1 0x20 PUSH1 0x0 KECCAK256 SWAP1 PUSH1 0x8 MUL ADD SWAP1 POP TIMESTAMP DUP2 PUSH1 0x7 ADD SLOAD GT PUSH2 0x764 JUMPI PUSH1 0x40 MLOAD PUSH32 0x8C379A000000000000000000000000000000000000000000000000000000000 DUP2 MSTORE PUSH1 0x4 ADD PUSH2 0x25F SWAP1 PUSH2 0x28C2 JUMP JUMPDEST DUP4 PUSH32 0x2EFD8659D1439AE776EB6B979A5711C36ADDADBC593D16672323D0E57A3572AD CALLER DUP6 DUP6 PUSH1 0x40 MLOAD PUSH2 0x798 SWAP4 SWAP3 SWAP2 SWAP1 PUSH2 0x2438 JUMP JUMPDEST PUSH1 0x40 MLOAD DUP1 SWAP2 SUB SWAP1 LOG2 CALLER PUSH1 0x0 SWAP1 DUP2 MSTORE PUSH1 0x3 DUP3 ADD PUSH1 0x20 MSTORE PUSH1 0x40 SWAP1 KECCAK256 SLOAD PUSH2 0x7F6 JUMPI PUSH1 0x5 DUP2 ADD DUP1 SLOAD PUSH1 0x1 DUP2 ADD DUP3 SSTORE PUSH1 0x0 SWAP2 DUP3 MSTORE PUSH1 0x20 SWAP1 SWAP2 KECCAK256 ADD DUP1 SLOAD PUSH32 0xFFFFFFFFFFFFFFFFFFFFFFFF0000000000000000000000000000000000000000 AND CALLER OR SWAP1 SSTORE JUMPDEST PUSH1 0x0 JUMPDEST DUP3 DUP2 LT ISZERO PUSH2 0xB09 JUMPI PUSH1 0x0 DUP5 DUP5 DUP4 DUP2 DUP2 LT PUSH2 0x80F JUMPI INVALID JUMPDEST PUSH2 0x825 SWAP3 PUSH1 0x20 PUSH1 0x60 SWAP1 SWAP3 MUL ADD SWAP1 DUP2 ADD SWAP2 POP PUSH2 0x2087 JUMP JUMPDEST SWAP1 POP PUSH1 0x0 DUP6 DUP6 DUP5 DUP2 DUP2 LT PUSH2 0x835 JUMPI INVALID JUMPDEST SWAP1 POP PUSH1 0x60 MUL ADD PUSH1 0x20 ADD CALLDATALOAD SWAP1 POP PUSH1 0x0 DUP7 DUP7 DUP6 DUP2 DUP2 LT PUSH2 0x84F JUMPI INVALID JUMPDEST PUSH20 0xFFFFFFFFFFFFFFFFFFFFFFFFFFFFFFFFFFFFFFFF DUP7 AND PUSH1 0x0 SWAP1 DUP2 MSTORE PUSH1 0x20 DUP10 DUP2 MSTORE PUSH1 0x40 DUP1 DUP4 KECCAK256 DUP9 DUP5 MSTORE SWAP1 SWAP2 MSTORE SWAP1 DUP2 SWAP1 KECCAK256 SLOAD PUSH1 0x60 SWAP1 SWAP3 MUL SWAP4 SWAP1 SWAP4 ADD SWAP3 SWAP1 SWAP3 ADD CALLDATALOAD SWAP3 POP POP DUP1 PUSH2 0x8C8 JUMPI PUSH1 0x40 MLOAD PUSH32 0x8C379A000000000000000000000000000000000000000000000000000000000 DUP2 MSTORE PUSH1 0x4 ADD PUSH2 0x25F SWAP1 PUSH2 0x26F1 JUMP JUMPDEST DUP1 DUP1 PUSH1 0x1 SWAP1 SUB SWAP2 POP POP PUSH1 0x0 DUP7 PUSH1 0x1 ADD DUP3 DUP2 SLOAD DUP2 LT PUSH2 0x8E2 JUMPI INVALID JUMPDEST PUSH1 0x0 SWAP2 DUP3 MSTORE PUSH1 0x20 DUP1 DUP4 KECCAK256 PUSH1 0x2 PUSH1 0x3 SWAP4 DUP5 MUL SWAP1 SWAP2 ADD ADD SLOAD CALLER DUP5 MSTORE SWAP2 DUP11 ADD DUP2 MSTORE PUSH1 0x40 DUP1 DUP5 KECCAK256 DUP2 MLOAD PUSH1 0x60 DUP2 ADD DUP4 MSTORE PUSH3 0xFFFFFF DUP1 DUP10 AND DUP3 MSTORE PUSH14 0xFFFFFFFFFFFFFFFFFFFFFFFFFFFF DUP1 DUP8 AND DUP4 DUP8 ADD SWAP1 DUP2 MSTORE DUP12 DUP9 ADD DUP1 DUP4 AND SWAP7 DUP6 ADD SWAP7 DUP8 MSTORE DUP6 SLOAD PUSH1 0x1 DUP2 DUP2 ADD DUP9 SSTORE SWAP7 DUP12 MSTORE SWAP8 SWAP1 SWAP10 KECCAK256 SWAP4 MLOAD SWAP4 SWAP1 SWAP7 ADD DUP1 SLOAD SWAP7 MLOAD SWAP6 MLOAD DUP3 AND PUSH18 0x10000000000000000000000000000000000 MUL PUSH32 0xFF0000000000000000000000000000FFFFFFFFFFFFFFFFFFFFFFFFFFFFFFFFFF SWAP7 SWAP1 SWAP3 AND PUSH4 0x1000000 MUL PUSH32 0xFFFFFFFFFFFFFFFFFFFFFFFFFFFFFF0000000000000000000000000000FFFFFF SWAP5 SWAP1 SWAP4 AND PUSH32 0xFFFFFFFFFFFFFFFFFFFFFFFFFFFFFFFFFFFFFFFFFFFFFFFFFFFFFFFFFF000000 SWAP1 SWAP8 AND SWAP7 SWAP1 SWAP7 OR SWAP3 SWAP1 SWAP3 AND OR SWAP3 SWAP1 SWAP3 AND SWAP2 SWAP1 SWAP2 OR SWAP1 SWAP2 SSTORE DUP10 ADD DUP1 SLOAD SWAP2 SWAP4 POP SWAP1 DUP5 SWAP1 DUP2 LT PUSH2 0xA06 JUMPI INVALID JUMPDEST SWAP1 PUSH1 0x0 MSTORE PUSH1 0x20 PUSH1 0x0 KECCAK256 SWAP1 PUSH1 0x3 MUL ADD PUSH1 0x2 ADD DUP2 SWAP1 SSTORE POP DUP9 DUP9 DUP8 DUP2 DUP2 LT PUSH2 0xA27 JUMPI INVALID JUMPDEST PUSH2 0xA3D SWAP3 PUSH1 0x20 PUSH1 0x60 SWAP1 SWAP3 MUL ADD SWAP1 DUP2 ADD SWAP2 POP PUSH2 0x2087 JUMP JUMPDEST PUSH20 0xFFFFFFFFFFFFFFFFFFFFFFFFFFFFFFFFFFFFFFFF AND PUSH4 0xF242432A CALLER ADDRESS DUP13 DUP13 DUP12 DUP2 DUP2 LT PUSH2 0xA66 JUMPI INVALID JUMPDEST SWAP1 POP PUSH1 0x60 MUL ADD PUSH1 0x20 ADD CALLDATALOAD DUP14 DUP14 DUP13 DUP2 DUP2 LT PUSH2 0xA7C JUMPI INVALID JUMPDEST SWAP1 POP PUSH1 0x60 MUL ADD PUSH1 0x40 ADD CALLDATALOAD DUP16 PUSH1 0x40 MLOAD PUSH1 0x20 ADD PUSH2 0xA97 SWAP2 SWAP1 PUSH2 0x22EF JUMP JUMPDEST PUSH1 0x40 MLOAD PUSH1 0x20 DUP2 DUP4 SUB SUB DUP2 MSTORE SWAP1 PUSH1 0x40 MSTORE PUSH1 0x40 MLOAD DUP7 PUSH4 0xFFFFFFFF AND PUSH1 0xE0 SHL DUP2 MSTORE PUSH1 0x4 ADD PUSH2 0xAC6 SWAP6 SWAP5 SWAP4 SWAP3 SWAP2 SWAP1 PUSH2 0x238F JUMP JUMPDEST PUSH1 0x0 PUSH1 0x40 MLOAD DUP1 DUP4 SUB DUP2 PUSH1 0x0 DUP8 DUP1 EXTCODESIZE ISZERO DUP1 ISZERO PUSH2 0xAE0 JUMPI PUSH1 0x0 DUP1 REVERT JUMPDEST POP GAS CALL ISZERO DUP1 ISZERO PUSH2 0xAF4 JUMPI RETURNDATASIZE PUSH1 0x0 DUP1 RETURNDATACOPY RETURNDATASIZE PUSH1 0x0 REVERT JUMPDEST POP POP PUSH1 0x1 SWAP1 SWAP8 ADD SWAP7 POP PUSH2 0x7F9 SWAP6 POP POP POP POP POP POP JUMP JUMPDEST POP POP POP POP POP JUMP JUMPDEST PUSH1 0x1 SLOAD PUSH20 0xFFFFFFFFFFFFFFFFFFFFFFFFFFFFFFFFFFFFFFFF AND CALLER EQ PUSH2 0xB61 JUMPI PUSH1 0x40 MLOAD PUSH32 0x8C379A000000000000000000000000000000000000000000000000000000000 DUP2 MSTORE PUSH1 0x4 ADD PUSH2 0x25F SWAP1 PUSH2 0x29B3 JUMP JUMPDEST TIMESTAMP PUSH2 0xE10 ADD DUP4 GT PUSH2 0xB9E JUMPI PUSH1 0x40 MLOAD PUSH32 0x8C379A000000000000000000000000000000000000000000000000000000000 DUP2 MSTORE PUSH1 0x4 ADD PUSH2 0x25F SWAP1 PUSH2 0x274E JUMP JUMPDEST PUSH1 0x0 SLOAD PUSH1 0x40 MLOAD DUP2 SWAP1 PUSH32 0xEB019A222C1B7DA6901010B3C251B88A20F3895D2D3C9D1F433CFACE4B934300 SWAP1 PUSH2 0xBD7 SWAP1 DUP8 SWAP1 DUP8 SWAP1 DUP8 SWAP1 PUSH2 0x29EA JUMP JUMPDEST PUSH1 0x40 MLOAD DUP1 SWAP2 SUB SWAP1 LOG2 PUSH1 0x0 DUP1 SLOAD PUSH1 0x1 DUP2 ADD DUP3 SSTORE DUP2 DUP1 MSTORE PUSH1 0x8 MUL PUSH32 0x290DECD9548B62A8D60345A988386FC84BA6BC95484008F6362F93160EF3E56A DUP2 ADD DUP7 SWAP1 SSTORE PUSH32 0x290DECD9548B62A8D60345A988386FC84BA6BC95484008F6362F93160EF3E563 ADD SWAP1 JUMPDEST DUP4 DUP2 LT ISZERO PUSH2 0xFB5 JUMPI PUSH1 0x0 DUP6 DUP6 DUP4 DUP2 DUP2 LT PUSH2 0xC4F JUMPI INVALID JUMPDEST PUSH2 0xC65 SWAP3 PUSH1 0x20 PUSH1 0xA0 SWAP1 SWAP3 MUL ADD SWAP1 DUP2 ADD SWAP2 POP PUSH2 0x2087 JUMP JUMPDEST SWAP1 POP PUSH1 0x0 DUP7 DUP7 DUP5 DUP2 DUP2 LT PUSH2 0xC75 JUMPI INVALID JUMPDEST PUSH20 0xFFFFFFFFFFFFFFFFFFFFFFFFFFFFFFFFFFFFFFFF DUP6 AND PUSH1 0x0 SWAP1 DUP2 MSTORE PUSH1 0x20 DUP9 DUP2 MSTORE PUSH1 0x40 DUP1 DUP4 KECCAK256 PUSH1 0xA0 SWAP1 SWAP5 MUL SWAP6 SWAP1 SWAP6 ADD DUP2 ADD CALLDATALOAD DUP1 DUP4 MSTORE SWAP3 SWAP1 MSTORE SWAP3 SWAP1 SWAP3 KECCAK256 SLOAD SWAP2 SWAP3 POP POP DUP1 PUSH2 0xD68 JUMPI POP PUSH1 0x40 DUP1 MLOAD PUSH1 0x60 DUP2 ADD DUP3 MSTORE PUSH20 0xFFFFFFFFFFFFFFFFFFFFFFFFFFFFFFFFFFFFFFFF DUP5 DUP2 AND DUP1 DUP4 MSTORE PUSH1 0x20 DUP1 DUP5 ADD DUP7 DUP2 MSTORE PUSH1 0x0 DUP6 DUP8 ADD DUP2 DUP2 MSTORE PUSH1 0x1 DUP13 DUP2 ADD DUP1 SLOAD DUP1 DUP4 ADD DUP3 SSTORE DUP2 DUP6 MSTORE DUP7 DUP6 KECCAK256 SWAP10 MLOAD PUSH1 0x3 SWAP1 SWAP2 MUL SWAP1 SWAP10 ADD DUP1 SLOAD PUSH32 0xFFFFFFFFFFFFFFFFFFFFFFFF0000000000000000000000000000000000000000 AND SWAP10 SWAP1 SWAP9 AND SWAP9 SWAP1 SWAP9 OR DUP8 SSTORE SWAP3 MLOAD SWAP3 DUP7 ADD SWAP3 SWAP1 SWAP3 SSTORE SWAP1 MLOAD PUSH1 0x2 SWAP1 SWAP5 ADD SWAP4 SWAP1 SWAP4 SSTORE SWAP3 SLOAD SWAP1 DUP3 MSTORE DUP8 DUP4 MSTORE DUP4 DUP3 KECCAK256 DUP6 DUP4 MSTORE SWAP1 SWAP3 MSTORE SWAP2 SWAP1 SWAP2 KECCAK256 DUP2 SWAP1 SSTORE JUMPDEST DUP5 PUSH1 0x2 ADD PUSH1 0x0 PUSH1 0x1 DUP4 SUB DUP2 MSTORE PUSH1 0x20 ADD SWAP1 DUP2 MSTORE PUSH1 0x20 ADD PUSH1 0x0 KECCAK256 PUSH1 0x40 MLOAD DUP1 PUSH1 0x60 ADD PUSH1 0x40 MSTORE DUP1 DUP11 DUP11 DUP9 DUP2 DUP2 LT PUSH2 0xD97 JUMPI INVALID JUMPDEST SWAP1 POP PUSH1 0xA0 MUL ADD PUSH1 0x40 ADD PUSH1 0x20 DUP2 ADD SWAP1 PUSH2 0xDAF SWAP2 SWAP1 PUSH2 0x2087 JUMP JUMPDEST PUSH20 0xFFFFFFFFFFFFFFFFFFFFFFFFFFFFFFFFFFFFFFFF AND DUP2 MSTORE PUSH1 0x20 ADD DUP11 DUP11 DUP9 DUP2 DUP2 LT PUSH2 0xDD6 JUMPI INVALID JUMPDEST SWAP1 POP PUSH1 0xA0 MUL ADD PUSH1 0x80 ADD CALLDATALOAD PUSH10 0xFFFFFFFFFFFFFFFFFFFF AND DUP2 MSTORE PUSH1 0x20 ADD DUP11 DUP11 DUP9 DUP2 DUP2 LT PUSH2 0xDFD JUMPI INVALID JUMPDEST PUSH1 0xA0 MUL SWAP2 SWAP1 SWAP2 ADD PUSH1 0x60 ADD CALLDATALOAD SWAP1 SWAP2 MSTORE POP DUP2 SLOAD PUSH1 0x1 DUP1 DUP3 ADD DUP5 SSTORE PUSH1 0x0 SWAP4 DUP5 MSTORE PUSH1 0x20 SWAP4 DUP5 SWAP1 KECCAK256 DUP4 MLOAD PUSH1 0x2 SWAP1 SWAP4 MUL ADD DUP1 SLOAD SWAP5 DUP5 ADD MLOAD PUSH32 0xFFFFFFFFFFFFFFFFFFFFFFFF0000000000000000000000000000000000000000 SWAP1 SWAP6 AND PUSH20 0xFFFFFFFFFFFFFFFFFFFFFFFFFFFFFFFFFFFFFFFF SWAP1 SWAP4 AND SWAP3 SWAP1 SWAP3 OR PUSH32 0xFFFF00000000000000000000FFFFFFFFFFFFFFFFFFFFFFFFFFFFFFFFFFFFFFFF AND PUSH21 0x10000000000000000000000000000000000000000 PUSH10 0xFFFFFFFFFFFFFFFFFFFF SWAP1 SWAP6 AND SWAP5 SWAP1 SWAP5 MUL SWAP4 SWAP1 SWAP4 OR DUP2 SSTORE PUSH1 0x40 SWAP1 SWAP2 ADD MLOAD SWAP2 ADD SSTORE DUP8 DUP8 DUP6 DUP2 DUP2 LT PUSH2 0xED3 JUMPI INVALID JUMPDEST SWAP1 POP PUSH1 0xA0 MUL ADD PUSH1 0x40 ADD PUSH1 0x20 DUP2 ADD SWAP1 PUSH2 0xEEB SWAP2 SWAP1 PUSH2 0x2087 JUMP JUMPDEST PUSH20 0xFFFFFFFFFFFFFFFFFFFFFFFFFFFFFFFFFFFFFFFF AND PUSH4 0xF242432A CALLER ADDRESS DUP12 DUP12 DUP10 DUP2 DUP2 LT PUSH2 0xF14 JUMPI INVALID JUMPDEST SWAP1 POP PUSH1 0xA0 MUL ADD PUSH1 0x60 ADD CALLDATALOAD DUP13 DUP13 DUP11 DUP2 DUP2 LT PUSH2 0xF2A JUMPI INVALID JUMPDEST SWAP1 POP PUSH1 0xA0 MUL ADD PUSH1 0x80 ADD CALLDATALOAD DUP12 PUSH1 0x40 MLOAD PUSH1 0x20 ADD PUSH2 0xF45 SWAP2 SWAP1 PUSH2 0x22EF JUMP JUMPDEST PUSH1 0x40 MLOAD PUSH1 0x20 DUP2 DUP4 SUB SUB DUP2 MSTORE SWAP1 PUSH1 0x40 MSTORE PUSH1 0x40 MLOAD DUP7 PUSH4 0xFFFFFFFF AND PUSH1 0xE0 SHL DUP2 MSTORE PUSH1 0x4 ADD PUSH2 0xF74 SWAP6 SWAP5 SWAP4 SWAP3 SWAP2 SWAP1 PUSH2 0x238F JUMP JUMPDEST PUSH1 0x0 PUSH1 0x40 MLOAD DUP1 DUP4 SUB DUP2 PUSH1 0x0 DUP8 DUP1 EXTCODESIZE ISZERO DUP1 ISZERO PUSH2 0xF8E JUMPI PUSH1 0x0 DUP1 REVERT JUMPDEST POP GAS CALL ISZERO DUP1 ISZERO PUSH2 0xFA2 JUMPI RETURNDATASIZE PUSH1 0x0 DUP1 RETURNDATACOPY RETURNDATASIZE PUSH1 0x0 REVERT JUMPDEST POP POP PUSH1 0x1 SWAP1 SWAP6 ADD SWAP5 POP PUSH2 0xC39 SWAP4 POP POP POP POP JUMP JUMPDEST POP POP POP POP POP POP JUMP JUMPDEST PUSH1 0x0 SLOAD SWAP1 JUMP JUMPDEST PUSH1 0x1 SLOAD PUSH20 0xFFFFFFFFFFFFFFFFFFFFFFFFFFFFFFFFFFFFFFFF AND SWAP1 JUMP JUMPDEST PUSH1 0x0 SLOAD PUSH1 0x60 SWAP1 DUP3 LT PUSH2 0x101D JUMPI PUSH1 0x40 MLOAD PUSH32 0x8C379A000000000000000000000000000000000000000000000000000000000 DUP2 MSTORE PUSH1 0x4 ADD PUSH2 0x25F SWAP1 PUSH2 0x26BA JUMP JUMPDEST PUSH1 0x0 DUP1 PUSH1 0x0 ADD DUP4 DUP2 SLOAD DUP2 LT PUSH2 0x102E JUMPI INVALID JUMPDEST SWAP1 PUSH1 0x0 MSTORE PUSH1 0x20 PUSH1 0x0 KECCAK256 SWAP1 PUSH1 0x8 MUL ADD SWAP1 POP PUSH2 0x10B1 DUP4 DUP3 PUSH1 0x5 ADD DUP1 SLOAD DUP1 PUSH1 0x20 MUL PUSH1 0x20 ADD PUSH1 0x40 MLOAD SWAP1 DUP2 ADD PUSH1 0x40 MSTORE DUP1 SWAP3 SWAP2 SWAP1 DUP2 DUP2 MSTORE PUSH1 0x20 ADD DUP3 DUP1 SLOAD DUP1 ISZERO PUSH2 0x10A7 JUMPI PUSH1 0x20 MUL DUP3 ADD SWAP2 SWAP1 PUSH1 0x0 MSTORE PUSH1 0x20 PUSH1 0x0 KECCAK256 SWAP1 JUMPDEST DUP2 SLOAD PUSH20 0xFFFFFFFFFFFFFFFFFFFFFFFFFFFFFFFFFFFFFFFF AND DUP2 MSTORE PUSH1 0x1 SWAP1 SWAP2 ADD SWAP1 PUSH1 0x20 ADD DUP1 DUP4 GT PUSH2 0x107C JUMPI JUMPDEST POP POP POP POP POP PUSH2 0x13F5 JUMP JUMPDEST SWAP4 SWAP3 POP POP POP JUMP JUMPDEST PUSH1 0x0 DUP1 SLOAD PUSH1 0x60 SWAP1 DUP4 LT PUSH2 0x10F7 JUMPI PUSH1 0x40 MLOAD PUSH32 0x8C379A000000000000000000000000000000000000000000000000000000000 DUP2 MSTORE PUSH1 0x4 ADD PUSH2 0x25F SWAP1 PUSH2 0x26BA JUMP JUMPDEST PUSH1 0x0 DUP1 PUSH1 0x0 ADD DUP5 DUP2 SLOAD DUP2 LT PUSH2 0x1108 JUMPI INVALID JUMPDEST SWAP1 PUSH1 0x0 MSTORE PUSH1 0x20 PUSH1 0x0 KECCAK256 SWAP1 PUSH1 0x8 MUL ADD SWAP1 POP DUP1 PUSH1 0x7 ADD SLOAD SWAP3 POP PUSH1 0x0 DUP1 JUMPDEST PUSH1 0x1 DUP4 ADD SLOAD DUP2 LT ISZERO PUSH2 0x114D JUMPI PUSH1 0x0 DUP2 DUP2 MSTORE PUSH1 0x2 DUP5 ADD PUSH1 0x20 MSTORE PUSH1 0x40 SWAP1 KECCAK256 SLOAD SWAP2 SWAP1 SWAP2 ADD SWAP1 PUSH1 0x1 ADD PUSH2 0x1123 JUMP JUMPDEST POP DUP1 PUSH8 0xFFFFFFFFFFFFFFFF DUP2 GT DUP1 ISZERO PUSH2 0x1165 JUMPI PUSH1 0x0 DUP1 REVERT JUMPDEST POP PUSH1 0x40 MLOAD SWAP1 DUP1 DUP3 MSTORE DUP1 PUSH1 0x20 MUL PUSH1 0x20 ADD DUP3 ADD PUSH1 0x40 MSTORE DUP1 ISZERO PUSH2 0x119F JUMPI DUP2 PUSH1 0x20 ADD JUMPDEST PUSH2 0x118C PUSH2 0x1FBB JUMP JUMPDEST DUP2 MSTORE PUSH1 0x20 ADD SWAP1 PUSH1 0x1 SWAP1 SUB SWAP1 DUP2 PUSH2 0x1184 JUMPI SWAP1 POP JUMPDEST POP SWAP3 POP PUSH1 0x0 DUP1 JUMPDEST PUSH1 0x1 DUP5 ADD SLOAD DUP2 LT ISZERO PUSH2 0x13EC JUMPI PUSH1 0x0 DUP2 DUP2 MSTORE PUSH1 0x2 DUP6 ADD PUSH1 0x20 MSTORE PUSH1 0x40 DUP2 KECCAK256 SWAP1 JUMPDEST DUP2 SLOAD DUP2 LT ISZERO PUSH2 0x13E2 JUMPI DUP6 PUSH1 0x1 ADD DUP4 DUP2 SLOAD DUP2 LT PUSH2 0x11DC JUMPI INVALID JUMPDEST PUSH1 0x0 SWAP2 DUP3 MSTORE PUSH1 0x20 SWAP1 SWAP2 KECCAK256 PUSH1 0x3 SWAP1 SWAP2 MUL ADD SLOAD DUP8 MLOAD PUSH20 0xFFFFFFFFFFFFFFFFFFFFFFFFFFFFFFFFFFFFFFFF SWAP1 SWAP2 AND SWAP1 DUP9 SWAP1 DUP7 SWAP1 DUP2 LT PUSH2 0x1214 JUMPI INVALID JUMPDEST PUSH1 0x20 SWAP1 DUP2 MUL SWAP2 SWAP1 SWAP2 ADD ADD MLOAD PUSH20 0xFFFFFFFFFFFFFFFFFFFFFFFFFFFFFFFFFFFFFFFF SWAP1 SWAP2 AND SWAP1 MSTORE PUSH1 0x1 DUP7 ADD DUP1 SLOAD DUP5 SWAP1 DUP2 LT PUSH2 0x1249 JUMPI INVALID JUMPDEST SWAP1 PUSH1 0x0 MSTORE PUSH1 0x20 PUSH1 0x0 KECCAK256 SWAP1 PUSH1 0x3 MUL ADD PUSH1 0x1 ADD SLOAD DUP8 DUP6 DUP2 MLOAD DUP2 LT PUSH2 0x1267 JUMPI INVALID JUMPDEST PUSH1 0x20 MUL PUSH1 0x20 ADD ADD MLOAD PUSH1 0x20 ADD DUP2 DUP2 MSTORE POP POP DUP2 DUP2 DUP2 SLOAD DUP2 LT PUSH2 0x1283 JUMPI INVALID JUMPDEST PUSH1 0x0 SWAP2 DUP3 MSTORE PUSH1 0x20 SWAP1 SWAP2 KECCAK256 PUSH1 0x2 SWAP1 SWAP2 MUL ADD SLOAD DUP8 MLOAD PUSH20 0xFFFFFFFFFFFFFFFFFFFFFFFFFFFFFFFFFFFFFFFF SWAP1 SWAP2 AND SWAP1 DUP9 SWAP1 DUP7 SWAP1 DUP2 LT PUSH2 0x12BB JUMPI INVALID JUMPDEST PUSH1 0x20 MUL PUSH1 0x20 ADD ADD MLOAD PUSH1 0x40 ADD SWAP1 PUSH20 0xFFFFFFFFFFFFFFFFFFFFFFFFFFFFFFFFFFFFFFFF AND SWAP1 DUP2 PUSH20 0xFFFFFFFFFFFFFFFFFFFFFFFFFFFFFFFFFFFFFFFF AND DUP2 MSTORE POP POP DUP2 DUP2 DUP2 SLOAD DUP2 LT PUSH2 0x1305 JUMPI INVALID JUMPDEST PUSH1 0x0 SWAP2 DUP3 MSTORE PUSH1 0x20 SWAP1 SWAP2 KECCAK256 PUSH1 0x2 SWAP1 SWAP2 MUL ADD SLOAD DUP8 MLOAD PUSH20 0xFFFFFFFFFFFFFFFFFFFFFFFFFFFFFFFFFFFFFFFF SWAP1 SWAP2 AND SWAP1 DUP9 SWAP1 DUP7 SWAP1 DUP2 LT PUSH2 0x133D JUMPI INVALID JUMPDEST PUSH1 0x20 MUL PUSH1 0x20 ADD ADD MLOAD PUSH1 0x40 ADD SWAP1 PUSH20 0xFFFFFFFFFFFFFFFFFFFFFFFFFFFFFFFFFFFFFFFF AND SWAP1 DUP2 PUSH20 0xFFFFFFFFFFFFFFFFFFFFFFFFFFFFFFFFFFFFFFFF AND DUP2 MSTORE POP POP DUP2 DUP2 DUP2 SLOAD DUP2 LT PUSH2 0x1387 JUMPI INVALID JUMPDEST SWAP1 PUSH1 0x0 MSTORE PUSH1 0x20 PUSH1 0x0 KECCAK256 SWAP1 PUSH1 0x2 MUL ADD PUSH1 0x0 ADD PUSH1 0x14 SWAP1 SLOAD SWAP1 PUSH2 0x100 EXP SWAP1 DIV PUSH10 0xFFFFFFFFFFFFFFFFFFFF AND PUSH10 0xFFFFFFFFFFFFFFFFFFFF AND DUP8 DUP6 DUP2 MLOAD DUP2 LT PUSH2 0x13C7 JUMPI INVALID JUMPDEST PUSH1 0x20 SWAP1 DUP2 MUL SWAP2 SWAP1 SWAP2 ADD ADD MLOAD PUSH1 0x80 ADD MSTORE PUSH1 0x1 SWAP4 DUP5 ADD SWAP4 ADD PUSH2 0x11C4 JUMP JUMPDEST POP POP PUSH1 0x1 ADD PUSH2 0x11A6 JUMP JUMPDEST POP POP POP POP SWAP2 POP SWAP2 JUMP JUMPDEST PUSH1 0x0 SLOAD PUSH1 0x60 SWAP1 DUP4 LT PUSH2 0x1433 JUMPI PUSH1 0x40 MLOAD PUSH32 0x8C379A000000000000000000000000000000000000000000000000000000000 DUP2 MSTORE PUSH1 0x4 ADD PUSH2 0x25F SWAP1 PUSH2 0x26BA JUMP JUMPDEST PUSH1 0x0 DUP1 PUSH1 0x0 ADD DUP5 DUP2 SLOAD DUP2 LT PUSH2 0x1444 JUMPI INVALID JUMPDEST SWAP1 PUSH1 0x0 MSTORE PUSH1 0x20 PUSH1 0x0 KECCAK256 SWAP1 PUSH1 0x8 MUL ADD SWAP1 POP TIMESTAMP DUP2 PUSH1 0x7 ADD SLOAD LT PUSH2 0x1491 JUMPI PUSH1 0x40 MLOAD PUSH32 0x8C379A000000000000000000000000000000000000000000000000000000000 DUP2 MSTORE PUSH1 0x4 ADD PUSH2 0x25F SWAP1 PUSH2 0x2865 JUMP JUMPDEST PUSH1 0x6 DUP2 ADD SLOAD DUP1 PUSH2 0x14CD JUMPI PUSH1 0x40 MLOAD PUSH32 0x8C379A000000000000000000000000000000000000000000000000000000000 DUP2 MSTORE PUSH1 0x4 ADD PUSH2 0x25F SWAP1 PUSH2 0x2808 JUMP JUMPDEST PUSH1 0x0 DUP1 JUMPDEST PUSH1 0x1 DUP5 ADD SLOAD DUP2 LT ISZERO PUSH2 0x14FB JUMPI PUSH1 0x0 DUP2 DUP2 MSTORE PUSH1 0x2 DUP6 ADD PUSH1 0x20 MSTORE PUSH1 0x40 SWAP1 KECCAK256 SLOAD SWAP2 SWAP1 SWAP2 ADD SWAP1 PUSH1 0x1 ADD PUSH2 0x14D1 JUMP JUMPDEST POP DUP1 DUP6 MLOAD MUL PUSH8 0xFFFFFFFFFFFFFFFF DUP2 GT DUP1 ISZERO PUSH2 0x1516 JUMPI PUSH1 0x0 DUP1 REVERT JUMPDEST POP PUSH1 0x40 MLOAD SWAP1 DUP1 DUP3 MSTORE DUP1 PUSH1 0x20 MUL PUSH1 0x20 ADD DUP3 ADD PUSH1 0x40 MSTORE DUP1 ISZERO PUSH2 0x1550 JUMPI DUP2 PUSH1 0x20 ADD JUMPDEST PUSH2 0x153D PUSH2 0x2016 JUMP JUMPDEST DUP2 MSTORE PUSH1 0x20 ADD SWAP1 PUSH1 0x1 SWAP1 SUB SWAP1 DUP2 PUSH2 0x1535 JUMPI SWAP1 POP JUMPDEST POP SWAP4 POP POP PUSH1 0x0 DUP1 JUMPDEST DUP6 MLOAD DUP2 LT ISZERO PUSH2 0x1871 JUMPI PUSH1 0x0 DUP7 DUP3 DUP2 MLOAD DUP2 LT PUSH2 0x156F JUMPI INVALID JUMPDEST PUSH1 0x20 SWAP1 DUP2 MUL SWAP2 SWAP1 SWAP2 ADD DUP2 ADD MLOAD PUSH20 0xFFFFFFFFFFFFFFFFFFFFFFFFFFFFFFFFFFFFFFFF DUP2 AND PUSH1 0x0 SWAP1 DUP2 MSTORE PUSH1 0x3 DUP9 ADD SWAP1 SWAP3 MSTORE PUSH1 0x40 DUP3 KECCAK256 SWAP1 SWAP3 POP SWAP1 JUMPDEST DUP2 SLOAD DUP2 LT ISZERO PUSH2 0x1866 JUMPI PUSH1 0x0 DUP3 DUP3 DUP2 SLOAD DUP2 LT PUSH2 0x15BE JUMPI INVALID JUMPDEST PUSH1 0x0 SWAP2 DUP3 MSTORE PUSH1 0x20 DUP3 KECCAK256 ADD SLOAD PUSH1 0x1 DUP11 ADD DUP1 SLOAD PUSH3 0xFFFFFF SWAP1 SWAP3 AND SWAP4 POP SWAP1 DUP4 SWAP1 DUP2 LT PUSH2 0x15E3 JUMPI INVALID JUMPDEST PUSH1 0x0 SWAP2 DUP3 MSTORE PUSH1 0x20 DUP1 DUP4 KECCAK256 PUSH1 0x2 PUSH1 0x3 SWAP1 SWAP4 MUL ADD DUP3 ADD SLOAD DUP6 DUP5 MSTORE SWAP2 DUP13 ADD SWAP1 MSTORE PUSH1 0x40 DUP3 KECCAK256 SWAP1 SWAP3 POP SWAP1 JUMPDEST DUP2 SLOAD DUP2 LT ISZERO PUSH2 0x1856 JUMPI PUSH1 0x0 DUP1 DUP4 DUP4 DUP2 SLOAD DUP2 LT PUSH2 0x1621 JUMPI INVALID JUMPDEST PUSH1 0x0 SWAP2 DUP3 MSTORE PUSH1 0x20 DUP3 KECCAK256 PUSH1 0x2 SWAP1 SWAP2 MUL ADD SLOAD DUP6 SLOAD PUSH20 0xFFFFFFFFFFFFFFFFFFFFFFFFFFFFFFFFFFFFFFFF SWAP1 SWAP2 AND SWAP3 POP DUP6 SWAP1 DUP6 SWAP1 DUP2 LT PUSH2 0x1659 JUMPI INVALID JUMPDEST SWAP1 PUSH1 0x0 MSTORE PUSH1 0x20 PUSH1 0x0 KECCAK256 SWAP1 PUSH1 0x2 MUL ADD PUSH1 0x1 ADD SLOAD SWAP1 POP PUSH1 0x0 JUMPDEST DUP6 DUP6 DUP2 SLOAD DUP2 LT PUSH2 0x167C JUMPI INVALID JUMPDEST PUSH1 0x0 SWAP2 DUP3 MSTORE PUSH1 0x20 SWAP1 SWAP2 KECCAK256 PUSH1 0x2 SWAP1 SWAP2 MUL ADD SLOAD PUSH21 0x10000000000000000000000000000000000000000 SWAP1 DIV PUSH10 0xFFFFFFFFFFFFFFFFFFFF AND DUP2 LT ISZERO PUSH2 0x1783 JUMPI PUSH1 0x0 DUP8 DUP16 DUP6 DUP6 DUP6 PUSH1 0x40 MLOAD PUSH1 0x20 ADD PUSH2 0x16D2 SWAP5 SWAP4 SWAP3 SWAP2 SWAP1 PUSH2 0x22F8 JUMP JUMPDEST PUSH1 0x40 MLOAD PUSH1 0x20 DUP2 DUP4 SUB SUB DUP2 MSTORE SWAP1 PUSH1 0x40 MSTORE DUP1 MLOAD SWAP1 PUSH1 0x20 ADD KECCAK256 PUSH1 0x0 SHR DUP2 PUSH2 0x16F2 JUMPI INVALID JUMPDEST MOD SWAP1 POP DUP11 DUP11 DUP2 SLOAD DUP2 LT PUSH2 0x1701 JUMPI INVALID JUMPDEST PUSH1 0x0 SWAP2 DUP3 MSTORE PUSH1 0x20 SWAP1 SWAP2 KECCAK256 ADD SLOAD PUSH4 0x1000000 SWAP1 DIV PUSH14 0xFFFFFFFFFFFFFFFFFFFFFFFFFFFF AND DUP2 LT DUP1 ISZERO SWAP1 PUSH2 0x176E JUMPI POP DUP11 DUP11 DUP2 SLOAD DUP2 LT PUSH2 0x173A JUMPI INVALID JUMPDEST PUSH1 0x0 SWAP2 DUP3 MSTORE PUSH1 0x20 SWAP1 SWAP2 KECCAK256 ADD SLOAD PUSH18 0x10000000000000000000000000000000000 SWAP1 DIV PUSH14 0xFFFFFFFFFFFFFFFFFFFFFFFFFFFF AND DUP2 LT JUMPDEST ISZERO PUSH2 0x177A JUMPI PUSH1 0x1 SWAP1 SWAP5 ADD SWAP4 JUMPDEST POP PUSH1 0x1 ADD PUSH2 0x1670 JUMP JUMPDEST POP DUP3 ISZERO PUSH2 0x184B JUMPI PUSH1 0x40 MLOAD DUP1 PUSH1 0xA0 ADD PUSH1 0x40 MSTORE DUP1 DUP12 PUSH20 0xFFFFFFFFFFFFFFFFFFFFFFFFFFFFFFFFFFFFFFFF AND DUP2 MSTORE PUSH1 0x20 ADD DUP16 PUSH1 0x4 ADD PUSH1 0x0 CALLER PUSH20 0xFFFFFFFFFFFFFFFFFFFFFFFFFFFFFFFFFFFFFFFF AND PUSH20 0xFFFFFFFFFFFFFFFFFFFFFFFFFFFFFFFFFFFFFFFF AND DUP2 MSTORE PUSH1 0x20 ADD SWAP1 DUP2 MSTORE PUSH1 0x20 ADD PUSH1 0x0 KECCAK256 PUSH1 0x0 SWAP1 SLOAD SWAP1 PUSH2 0x100 EXP SWAP1 DIV PUSH1 0xFF AND ISZERO ISZERO DUP2 MSTORE PUSH1 0x20 ADD DUP4 PUSH20 0xFFFFFFFFFFFFFFFFFFFFFFFFFFFFFFFFFFFFFFFF AND DUP2 MSTORE PUSH1 0x20 ADD DUP3 DUP2 MSTORE PUSH1 0x20 ADD DUP5 DUP2 MSTORE POP DUP16 DUP14 DUP2 MLOAD DUP2 LT PUSH2 0x1839 JUMPI INVALID JUMPDEST PUSH1 0x20 SWAP1 DUP2 MUL SWAP2 SWAP1 SWAP2 ADD ADD MSTORE PUSH1 0x1 SWAP1 SWAP12 ADD SWAP11 JUMPDEST POP POP POP PUSH1 0x1 ADD PUSH2 0x1609 JUMP JUMPDEST POP POP PUSH1 0x1 SWAP1 SWAP3 ADD SWAP2 POP PUSH2 0x15A7 SWAP1 POP JUMP JUMPDEST POP POP POP PUSH1 0x1 ADD PUSH2 0x1558 JUMP JUMPDEST POP DUP4 MSTORE POP SWAP1 SWAP4 SWAP3 POP POP POP JUMP JUMPDEST PUSH1 0x0 SLOAD DUP2 LT PUSH2 0x18B8 JUMPI PUSH1 0x40 MLOAD PUSH32 0x8C379A000000000000000000000000000000000000000000000000000000000 DUP2 MSTORE PUSH1 0x4 ADD PUSH2 0x25F SWAP1 PUSH2 0x26BA JUMP JUMPDEST PUSH1 0x0 DUP1 PUSH1 0x0 ADD DUP3 DUP2 SLOAD DUP2 LT PUSH2 0x18C9 JUMPI INVALID JUMPDEST SWAP1 PUSH1 0x0 MSTORE PUSH1 0x20 PUSH1 0x0 KECCAK256 SWAP1 PUSH1 0x8 MUL ADD SWAP1 POP TIMESTAMP DUP2 PUSH1 0x7 ADD SLOAD LT PUSH2 0x1916 JUMPI PUSH1 0x40 MLOAD PUSH32 0x8C379A000000000000000000000000000000000000000000000000000000000 DUP2 MSTORE PUSH1 0x4 ADD PUSH2 0x25F SWAP1 PUSH2 0x2865 JUMP JUMPDEST PUSH1 0x6 DUP2 ADD SLOAD DUP1 PUSH2 0x1952 JUMPI PUSH1 0x40 MLOAD PUSH32 0x8C379A000000000000000000000000000000000000000000000000000000000 DUP2 MSTORE PUSH1 0x4 ADD PUSH2 0x25F SWAP1 PUSH2 0x2808 JUMP JUMPDEST CALLER PUSH1 0x0 SWAP1 DUP2 MSTORE PUSH1 0x4 DUP4 ADD PUSH1 0x20 MSTORE PUSH1 0x40 SWAP1 KECCAK256 SLOAD PUSH1 0xFF AND ISZERO PUSH2 0x199E JUMPI PUSH1 0x40 MLOAD PUSH32 0x8C379A000000000000000000000000000000000000000000000000000000000 DUP2 MSTORE PUSH1 0x4 ADD PUSH2 0x25F SWAP1 PUSH2 0x27AB JUMP JUMPDEST CALLER PUSH1 0x0 SWAP1 DUP2 MSTORE PUSH1 0x4 DUP4 ADD PUSH1 0x20 SWAP1 DUP2 MSTORE PUSH1 0x40 DUP1 DUP4 KECCAK256 DUP1 SLOAD PUSH32 0xFFFFFFFFFFFFFFFFFFFFFFFFFFFFFFFFFFFFFFFFFFFFFFFFFFFFFFFFFFFFFF00 AND PUSH1 0x1 OR SWAP1 SSTORE PUSH1 0x3 DUP6 ADD SWAP1 SWAP2 MSTORE DUP2 KECCAK256 SWAP1 JUMPDEST DUP2 SLOAD DUP2 LT ISZERO PUSH2 0xB09 JUMPI PUSH1 0x0 DUP3 DUP3 DUP2 SLOAD DUP2 LT PUSH2 0x19FD JUMPI INVALID JUMPDEST PUSH1 0x0 SWAP2 DUP3 MSTORE PUSH1 0x20 DUP3 KECCAK256 ADD SLOAD DUP5 SLOAD PUSH4 0x1000000 SWAP1 SWAP2 DIV PUSH14 0xFFFFFFFFFFFFFFFFFFFFFFFFFFFF AND SWAP3 POP DUP5 SWAP1 DUP5 SWAP1 DUP2 LT PUSH2 0x1A30 JUMPI INVALID JUMPDEST PUSH1 0x0 SWAP2 DUP3 MSTORE PUSH1 0x20 DUP3 KECCAK256 ADD SLOAD DUP6 SLOAD PUSH18 0x10000000000000000000000000000000000 SWAP1 SWAP2 DIV PUSH14 0xFFFFFFFFFFFFFFFFFFFFFFFFFFFF AND SWAP3 POP DUP6 SWAP1 DUP6 SWAP1 DUP2 LT PUSH2 0x1A71 JUMPI INVALID JUMPDEST PUSH1 0x0 SWAP2 DUP3 MSTORE PUSH1 0x20 DUP3 KECCAK256 ADD SLOAD PUSH1 0x1 DUP10 ADD DUP1 SLOAD PUSH3 0xFFFFFF SWAP1 SWAP3 AND SWAP4 POP SWAP1 DUP4 SWAP1 DUP2 LT PUSH2 0x1A96 JUMPI INVALID JUMPDEST PUSH1 0x0 SWAP2 DUP3 MSTORE PUSH1 0x20 DUP1 DUP4 KECCAK256 PUSH1 0x2 PUSH1 0x3 SWAP1 SWAP4 MUL ADD DUP3 ADD SLOAD DUP6 DUP5 MSTORE SWAP2 DUP12 ADD SWAP1 MSTORE PUSH1 0x40 DUP3 KECCAK256 SWAP1 SWAP3 POP SWAP1 JUMPDEST DUP2 SLOAD DUP2 LT ISZERO PUSH2 0x1CA7 JUMPI PUSH1 0x0 DUP1 DUP4 DUP4 DUP2 SLOAD DUP2 LT PUSH2 0x1AD4 JUMPI INVALID JUMPDEST PUSH1 0x0 SWAP2 DUP3 MSTORE PUSH1 0x20 DUP3 KECCAK256 PUSH1 0x2 SWAP1 SWAP2 MUL ADD SLOAD DUP6 SLOAD PUSH20 0xFFFFFFFFFFFFFFFFFFFFFFFFFFFFFFFFFFFFFFFF SWAP1 SWAP2 AND SWAP3 POP DUP6 SWAP1 DUP6 SWAP1 DUP2 LT PUSH2 0x1B0C JUMPI INVALID JUMPDEST SWAP1 PUSH1 0x0 MSTORE PUSH1 0x20 PUSH1 0x0 KECCAK256 SWAP1 PUSH1 0x2 MUL ADD PUSH1 0x1 ADD SLOAD SWAP1 POP PUSH1 0x0 JUMPDEST DUP6 DUP6 DUP2 SLOAD DUP2 LT PUSH2 0x1B2F JUMPI INVALID JUMPDEST PUSH1 0x0 SWAP2 DUP3 MSTORE PUSH1 0x20 SWAP1 SWAP2 KECCAK256 PUSH1 0x2 SWAP1 SWAP2 MUL ADD SLOAD PUSH21 0x10000000000000000000000000000000000000000 SWAP1 DIV PUSH10 0xFFFFFFFFFFFFFFFFFFFF AND DUP2 LT ISZERO PUSH2 0x1BCC JUMPI PUSH1 0x0 DUP8 DUP15 DUP6 DUP6 DUP6 PUSH1 0x40 MLOAD PUSH1 0x20 ADD PUSH2 0x1B85 SWAP5 SWAP4 SWAP3 SWAP2 SWAP1 PUSH2 0x22F8 JUMP JUMPDEST PUSH1 0x40 MLOAD PUSH1 0x20 DUP2 DUP4 SUB SUB DUP2 MSTORE SWAP1 PUSH1 0x40 MSTORE DUP1 MLOAD SWAP1 PUSH1 0x20 ADD KECCAK256 PUSH1 0x0 SHR DUP2 PUSH2 0x1BA5 JUMPI INVALID JUMPDEST MOD SWAP1 POP DUP11 DUP2 LT ISZERO DUP1 ISZERO PUSH2 0x1BB7 JUMPI POP DUP10 DUP2 LT JUMPDEST ISZERO PUSH2 0x1BC3 JUMPI PUSH1 0x1 SWAP1 SWAP5 ADD SWAP4 JUMPDEST POP PUSH1 0x1 ADD PUSH2 0x1B23 JUMP JUMPDEST POP DUP3 ISZERO PUSH2 0x1C9C JUMPI DUP14 PUSH32 0x61DD2CF3E9F248B4453E8ABB61B6AD73C53CF482D1C506F868A3885F533233CF CALLER DUP5 DUP5 DUP8 PUSH1 0x40 MLOAD PUSH2 0x1C09 SWAP5 SWAP4 SWAP3 SWAP2 SWAP1 PUSH2 0x2359 JUMP JUMPDEST PUSH1 0x40 MLOAD DUP1 SWAP2 SUB SWAP1 LOG2 PUSH1 0x40 MLOAD PUSH32 0xF242432A00000000000000000000000000000000000000000000000000000000 DUP2 MSTORE PUSH20 0xFFFFFFFFFFFFFFFFFFFFFFFFFFFFFFFFFFFFFFFF DUP4 AND SWAP1 PUSH4 0xF242432A SWAP1 PUSH2 0x1C69 SWAP1 ADDRESS SWAP1 CALLER SWAP1 DUP7 SWAP1 DUP10 SWAP1 PUSH1 0x4 ADD PUSH2 0x24B3 JUMP JUMPDEST PUSH1 0x0 PUSH1 0x40 MLOAD DUP1 DUP4 SUB DUP2 PUSH1 0x0 DUP8 DUP1 EXTCODESIZE ISZERO DUP1 ISZERO PUSH2 0x1C83 JUMPI PUSH1 0x0 DUP1 REVERT JUMPDEST POP GAS CALL ISZERO DUP1 ISZERO PUSH2 0x1C97 JUMPI RETURNDATASIZE PUSH1 0x0 DUP1 RETURNDATACOPY RETURNDATASIZE PUSH1 0x0 REVERT JUMPDEST POP POP POP POP JUMPDEST POP POP POP PUSH1 0x1 ADD PUSH2 0x1ABC JUMP JUMPDEST POP POP PUSH1 0x1 SWAP1 SWAP5 ADD SWAP4 POP PUSH2 0x19E6 SWAP3 POP POP POP JUMP JUMPDEST PUSH1 0x0 SLOAD PUSH1 0x60 SWAP1 PUSH8 0xFFFFFFFFFFFFFFFF DUP2 GT DUP1 ISZERO PUSH2 0x1CD5 JUMPI PUSH1 0x0 DUP1 REVERT JUMPDEST POP PUSH1 0x40 MLOAD SWAP1 DUP1 DUP3 MSTORE DUP1 PUSH1 0x20 MUL PUSH1 0x20 ADD DUP3 ADD PUSH1 0x40 MSTORE DUP1 ISZERO PUSH2 0x1D0F JUMPI DUP2 PUSH1 0x20 ADD JUMPDEST PUSH2 0x1CFC PUSH2 0x2044 JUMP JUMPDEST DUP2 MSTORE PUSH1 0x20 ADD SWAP1 PUSH1 0x1 SWAP1 SUB SWAP1 DUP2 PUSH2 0x1CF4 JUMPI SWAP1 POP JUMPDEST POP SWAP1 POP PUSH1 0x0 DUP1 JUMPDEST PUSH1 0x0 SLOAD DUP2 LT ISZERO PUSH2 0x1D95 JUMPI PUSH1 0x0 DUP1 PUSH1 0x0 ADD DUP3 DUP2 SLOAD DUP2 LT PUSH2 0x1D31 JUMPI INVALID JUMPDEST SWAP1 PUSH1 0x0 MSTORE PUSH1 0x20 PUSH1 0x0 KECCAK256 SWAP1 PUSH1 0x8 MUL ADD PUSH1 0x7 ADD SLOAD SWAP1 POP TIMESTAMP DUP2 GT ISZERO PUSH2 0x1D8C JUMPI DUP2 DUP5 DUP5 DUP2 MLOAD DUP2 LT PUSH2 0x1D5A JUMPI INVALID JUMPDEST PUSH1 0x20 MUL PUSH1 0x20 ADD ADD MLOAD PUSH1 0x0 ADD DUP2 DUP2 MSTORE POP POP DUP1 DUP5 DUP5 DUP2 MLOAD DUP2 LT PUSH2 0x1D77 JUMPI INVALID JUMPDEST PUSH1 0x20 SWAP1 DUP2 MUL SWAP2 SWAP1 SWAP2 ADD DUP2 ADD MLOAD ADD MSTORE PUSH1 0x1 SWAP1 SWAP3 ADD SWAP2 JUMPDEST POP PUSH1 0x1 ADD PUSH2 0x1D16 JUMP JUMPDEST POP DUP2 MSTORE SWAP1 JUMP JUMPDEST PUSH1 0x0 PUSH1 0x20 DUP3 EQ PUSH2 0x1DD7 JUMPI PUSH1 0x40 MLOAD PUSH32 0x8C379A000000000000000000000000000000000000000000000000000000000 DUP2 MSTORE PUSH1 0x4 ADD PUSH2 0x25F SWAP1 PUSH2 0x28F9 JUMP JUMPDEST PUSH1 0x0 PUSH2 0x1DE5 DUP4 DUP6 ADD DUP6 PUSH2 0x2142 JUMP JUMPDEST PUSH1 0x0 SLOAD SWAP1 SWAP2 POP DUP2 LT PUSH2 0x1E23 JUMPI PUSH1 0x40 MLOAD PUSH32 0x8C379A000000000000000000000000000000000000000000000000000000000 DUP2 MSTORE PUSH1 0x4 ADD PUSH2 0x25F SWAP1 PUSH2 0x26BA JUMP JUMPDEST PUSH1 0x0 DUP1 PUSH1 0x0 ADD DUP3 DUP2 SLOAD DUP2 LT PUSH2 0x1E34 JUMPI INVALID JUMPDEST SWAP1 PUSH1 0x0 MSTORE PUSH1 0x20 PUSH1 0x0 KECCAK256 SWAP1 PUSH1 0x8 MUL ADD SWAP1 POP PUSH1 0x0 DUP2 PUSH1 0x7 ADD SLOAD SWAP1 POP TIMESTAMP DUP2 GT PUSH2 0x1E86 JUMPI PUSH1 0x40 MLOAD PUSH32 0x8C379A000000000000000000000000000000000000000000000000000000000 DUP2 MSTORE PUSH1 0x4 ADD PUSH2 0x25F SWAP1 PUSH2 0x265D JUMP JUMPDEST POP PUSH32 0xF23A6E6100000000000000000000000000000000000000000000000000000000 SWAP10 SWAP9 POP POP POP POP POP POP POP POP POP JUMP JUMPDEST PUSH1 0x1 SLOAD PUSH20 0xFFFFFFFFFFFFFFFFFFFFFFFFFFFFFFFFFFFFFFFF AND CALLER DUP2 EQ PUSH2 0x1F07 JUMPI PUSH1 0x40 MLOAD PUSH32 0x8C379A000000000000000000000000000000000000000000000000000000000 DUP2 MSTORE PUSH1 0x4 ADD PUSH2 0x25F SWAP1 PUSH2 0x29B3 JUMP JUMPDEST PUSH1 0x1 DUP1 SLOAD PUSH32 0xFFFFFFFFFFFFFFFFFFFFFFFF0000000000000000000000000000000000000000 AND PUSH20 0xFFFFFFFFFFFFFFFFFFFFFFFFFFFFFFFFFFFFFFFF DUP5 DUP2 AND SWAP2 DUP3 OR SWAP1 SWAP3 SSTORE PUSH1 0x40 MLOAD SWAP1 SWAP2 DUP4 AND SWAP1 PUSH32 0x8BE0079C531659141344CD1FD0A4F28419497F9722A3DAAFE3B4186F6B6457E0 SWAP1 PUSH1 0x0 SWAP1 LOG3 POP POP JUMP JUMPDEST PUSH1 0x40 MLOAD DUP1 PUSH1 0x80 ADD PUSH1 0x40 MSTORE DUP1 PUSH1 0x0 PUSH20 0xFFFFFFFFFFFFFFFFFFFFFFFFFFFFFFFFFFFFFFFF AND DUP2 MSTORE PUSH1 0x20 ADD PUSH1 0x0 DUP2 MSTORE PUSH1 0x20 ADD PUSH1 0x0 DUP2 MSTORE PUSH1 0x20 ADD PUSH1 0x0 DUP2 MSTORE POP SWAP1 JUMP JUMPDEST PUSH1 0x40 MLOAD DUP1 PUSH1 0xA0 ADD PUSH1 0x40 MSTORE DUP1 PUSH1 0x0 PUSH20 0xFFFFFFFFFFFFFFFFFFFFFFFFFFFFFFFFFFFFFFFF AND DUP2 MSTORE PUSH1 0x20 ADD PUSH1 0x0 DUP2 MSTORE PUSH1 0x20 ADD PUSH1 0x0 PUSH20 0xFFFFFFFFFFFFFFFFFFFFFFFFFFFFFFFFFFFFFFFF AND DUP2 MSTORE PUSH1 0x20 ADD PUSH1 0x0 DUP2 MSTORE PUSH1 0x20 ADD PUSH1 0x0 DUP2 MSTORE POP SWAP1 JUMP JUMPDEST PUSH1 0x40 DUP1 MLOAD PUSH1 0xA0 DUP2 ADD DUP3 MSTORE PUSH1 0x0 DUP1 DUP3 MSTORE PUSH1 0x20 DUP3 ADD DUP2 SWAP1 MSTORE SWAP2 DUP2 ADD DUP3 SWAP1 MSTORE PUSH1 0x60 DUP2 ADD DUP3 SWAP1 MSTORE PUSH1 0x80 DUP2 ADD SWAP2 SWAP1 SWAP2 MSTORE SWAP1 JUMP JUMPDEST PUSH1 0x40 MLOAD DUP1 PUSH1 0x40 ADD PUSH1 0x40 MSTORE DUP1 PUSH1 0x0 DUP2 MSTORE PUSH1 0x20 ADD PUSH1 0x0 DUP2 MSTORE POP SWAP1 JUMP JUMPDEST DUP1 CALLDATALOAD PUSH20 0xFFFFFFFFFFFFFFFFFFFFFFFFFFFFFFFFFFFFFFFF DUP2 AND DUP2 EQ PUSH2 0x2082 JUMPI PUSH1 0x0 DUP1 REVERT JUMPDEST SWAP2 SWAP1 POP JUMP JUMPDEST PUSH1 0x0 PUSH1 0x20 DUP3 DUP5 SUB SLT ISZERO PUSH2 0x2098 JUMPI DUP1 DUP2 REVERT JUMPDEST PUSH2 0x10B1 DUP3 PUSH2 0x205E JUMP JUMPDEST PUSH1 0x0 DUP1 PUSH1 0x0 DUP1 PUSH1 0x0 DUP1 PUSH1 0xA0 DUP8 DUP10 SUB SLT ISZERO PUSH2 0x20B9 JUMPI DUP2 DUP3 REVERT JUMPDEST PUSH2 0x20C2 DUP8 PUSH2 0x205E JUMP JUMPDEST SWAP6 POP PUSH2 0x20D0 PUSH1 0x20 DUP9 ADD PUSH2 0x205E JUMP JUMPDEST SWAP5 POP PUSH1 0x40 DUP8 ADD CALLDATALOAD SWAP4 POP PUSH1 0x60 DUP8 ADD CALLDATALOAD SWAP3 POP PUSH1 0x80 DUP8 ADD CALLDATALOAD PUSH8 0xFFFFFFFFFFFFFFFF DUP1 DUP3 GT ISZERO PUSH2 0x20FA JUMPI DUP4 DUP5 REVERT JUMPDEST DUP2 DUP10 ADD SWAP2 POP DUP10 PUSH1 0x1F DUP4 ADD SLT PUSH2 0x210D JUMPI DUP4 DUP5 REVERT JUMPDEST DUP2 CALLDATALOAD DUP2 DUP2 GT ISZERO PUSH2 0x211B JUMPI DUP5 DUP6 REVERT JUMPDEST DUP11 PUSH1 0x20 DUP3 DUP6 ADD ADD GT ISZERO PUSH2 0x212C JUMPI DUP5 DUP6 REVERT JUMPDEST PUSH1 0x20 DUP4 ADD SWAP5 POP DUP1 SWAP4 POP POP POP POP SWAP3 SWAP6 POP SWAP3 SWAP6 POP SWAP3 SWAP6 JUMP JUMPDEST PUSH1 0x0 PUSH1 0x20 DUP3 DUP5 SUB SLT ISZERO PUSH2 0x2153 JUMPI DUP1 DUP2 REVERT JUMPDEST POP CALLDATALOAD SWAP2 SWAP1 POP JUMP JUMPDEST PUSH1 0x0 DUP1 PUSH1 0x40 DUP4 DUP6 SUB SLT ISZERO PUSH2 0x216C JUMPI DUP2 DUP3 REVERT JUMPDEST DUP3 CALLDATALOAD SWAP2 POP PUSH1 0x20 DUP1 DUP5 ADD CALLDATALOAD PUSH8 0xFFFFFFFFFFFFFFFF DUP1 DUP3 GT ISZERO PUSH2 0x218B JUMPI DUP4 DUP5 REVERT JUMPDEST DUP2 DUP7 ADD SWAP2 POP DUP7 PUSH1 0x1F DUP4 ADD SLT PUSH2 0x219E JUMPI DUP4 DUP5 REVERT JUMPDEST DUP2 CALLDATALOAD DUP2 DUP2 GT ISZERO PUSH2 0x21AA JUMPI INVALID JUMPDEST DUP4 DUP2 MUL SWAP2 POP PUSH2 0x21BA DUP5 DUP4 ADD PUSH2 0x2B10 JUMP JUMPDEST DUP2 DUP2 MSTORE DUP5 DUP2 ADD SWAP1 DUP5 DUP7 ADD DUP5 DUP7 ADD DUP8 ADD DUP12 LT ISZERO PUSH2 0x21D4 JUMPI DUP8 DUP9 REVERT JUMPDEST DUP8 SWAP6 POP JUMPDEST DUP4 DUP7 LT ISZERO PUSH2 0x21FD JUMPI PUSH2 0x21E9 DUP2 PUSH2 0x205E JUMP JUMPDEST DUP4 MSTORE PUSH1 0x1 SWAP6 SWAP1 SWAP6 ADD SWAP5 SWAP2 DUP7 ADD SWAP2 DUP7 ADD PUSH2 0x21D8 JUMP JUMPDEST POP DUP1 SWAP7 POP POP POP POP POP POP POP SWAP3 POP SWAP3 SWAP1 POP JUMP JUMPDEST PUSH1 0x0 DUP1 PUSH1 0x0 PUSH1 0x40 DUP5 DUP7 SUB SLT ISZERO PUSH2 0x2222 JUMPI DUP3 DUP4 REVERT JUMPDEST DUP4 CALLDATALOAD SWAP3 POP PUSH1 0x20 DUP5 ADD CALLDATALOAD PUSH8 0xFFFFFFFFFFFFFFFF DUP1 DUP3 GT ISZERO PUSH2 0x2240 JUMPI DUP4 DUP5 REVERT JUMPDEST DUP2 DUP7 ADD SWAP2 POP DUP7 PUSH1 0x1F DUP4 ADD SLT PUSH2 0x2253 JUMPI DUP4 DUP5 REVERT JUMPDEST DUP2 CALLDATALOAD DUP2 DUP2 GT ISZERO PUSH2 0x2261 JUMPI DUP5 DUP6 REVERT JUMPDEST DUP8 PUSH1 0x20 PUSH1 0xA0 DUP4 MUL DUP6 ADD ADD GT ISZERO PUSH2 0x2275 JUMPI DUP5 DUP6 REVERT JUMPDEST PUSH1 0x20 DUP4 ADD SWAP5 POP DUP1 SWAP4 POP POP POP POP SWAP3 POP SWAP3 POP SWAP3 JUMP JUMPDEST PUSH1 0x0 DUP1 PUSH1 0x0 PUSH1 0x40 DUP5 DUP7 SUB SLT ISZERO PUSH2 0x229C JUMPI DUP3 DUP4 REVERT JUMPDEST DUP4 CALLDATALOAD SWAP3 POP PUSH1 0x20 DUP5 ADD CALLDATALOAD PUSH8 0xFFFFFFFFFFFFFFFF DUP1 DUP3 GT ISZERO PUSH2 0x22BA JUMPI DUP4 DUP5 REVERT JUMPDEST DUP2 DUP7 ADD SWAP2 POP DUP7 PUSH1 0x1F DUP4 ADD SLT PUSH2 0x22CD JUMPI DUP4 DUP5 REVERT JUMPDEST DUP2 CALLDATALOAD DUP2 DUP2 GT ISZERO PUSH2 0x22DB JUMPI DUP5 DUP6 REVERT JUMPDEST DUP8 PUSH1 0x20 PUSH1 0x60 DUP4 MUL DUP6 ADD ADD GT ISZERO PUSH2 0x2275 JUMPI DUP5 DUP6 REVERT JUMPDEST SWAP1 DUP2 MSTORE PUSH1 0x20 ADD SWAP1 JUMP JUMPDEST SWAP4 DUP5 MSTORE PUSH1 0x60 SWAP3 SWAP1 SWAP3 SHL PUSH32 0xFFFFFFFFFFFFFFFFFFFFFFFFFFFFFFFFFFFFFFFF000000000000000000000000 AND PUSH1 0x20 DUP5 ADD MSTORE PUSH1 0x34 DUP4 ADD MSTORE PUSH1 0x54 DUP3 ADD MSTORE PUSH1 0x74 ADD SWAP1 JUMP JUMPDEST PUSH20 0xFFFFFFFFFFFFFFFFFFFFFFFFFFFFFFFFFFFFFFFF SWAP2 SWAP1 SWAP2 AND DUP2 MSTORE PUSH1 0x20 ADD SWAP1 JUMP JUMPDEST PUSH20 0xFFFFFFFFFFFFFFFFFFFFFFFFFFFFFFFFFFFFFFFF SWAP5 DUP6 AND DUP2 MSTORE SWAP3 SWAP1 SWAP4 AND PUSH1 0x20 DUP4 ADD MSTORE PUSH1 0x40 DUP3 ADD MSTORE PUSH1 0x60 DUP2 ADD SWAP2 SWAP1 SWAP2 MSTORE PUSH1 0x80 ADD SWAP1 JUMP JUMPDEST PUSH1 0x0 PUSH20 0xFFFFFFFFFFFFFFFFFFFFFFFFFFFFFFFFFFFFFFFF DUP1 DUP9 AND DUP4 MSTORE PUSH1 0x20 DUP2 DUP9 AND DUP2 DUP6 ADD MSTORE DUP7 PUSH1 0x40 DUP6 ADD MSTORE DUP6 PUSH1 0x60 DUP6 ADD MSTORE PUSH1 0xA0 PUSH1 0x80 DUP6 ADD MSTORE DUP5 MLOAD SWAP2 POP DUP2 PUSH1 0xA0 DUP6 ADD MSTORE DUP3 JUMPDEST DUP3 DUP2 LT ISZERO PUSH2 0x23EF JUMPI DUP6 DUP2 ADD DUP3 ADD MLOAD DUP6 DUP3 ADD PUSH1 0xC0 ADD MSTORE DUP2 ADD PUSH2 0x23D3 JUMP JUMPDEST DUP3 DUP2 GT ISZERO PUSH2 0x2400 JUMPI DUP4 PUSH1 0xC0 DUP5 DUP8 ADD ADD MSTORE JUMPDEST POP POP PUSH1 0x1F ADD PUSH32 0xFFFFFFFFFFFFFFFFFFFFFFFFFFFFFFFFFFFFFFFFFFFFFFFFFFFFFFFFFFFFFFE0 AND SWAP2 SWAP1 SWAP2 ADD PUSH1 0xC0 ADD SWAP7 SWAP6 POP POP POP POP POP POP JUMP JUMPDEST PUSH20 0xFFFFFFFFFFFFFFFFFFFFFFFFFFFFFFFFFFFFFFFF DUP5 DUP2 AND DUP3 MSTORE PUSH1 0x40 PUSH1 0x20 DUP1 DUP5 ADD DUP3 SWAP1 MSTORE DUP4 DUP3 ADD DUP6 SWAP1 MSTORE PUSH1 0x0 SWAP3 PUSH1 0x60 SWAP2 DUP3 DUP7 ADD DUP9 DUP7 JUMPDEST DUP10 DUP2 LT ISZERO PUSH2 0x24A3 JUMPI DUP5 PUSH2 0x2480 DUP4 PUSH2 0x205E JUMP JUMPDEST AND DUP4 MSTORE DUP2 DUP5 ADD CALLDATALOAD DUP5 DUP5 ADD MSTORE DUP7 DUP3 ADD CALLDATALOAD DUP8 DUP5 ADD MSTORE SWAP2 DUP6 ADD SWAP2 SWAP1 DUP6 ADD SWAP1 PUSH1 0x1 ADD PUSH2 0x246E JUMP JUMPDEST POP SWAP1 SWAP11 SWAP10 POP POP POP POP POP POP POP POP POP POP JUMP JUMPDEST PUSH20 0xFFFFFFFFFFFFFFFFFFFFFFFFFFFFFFFFFFFFFFFF SWAP5 DUP6 AND DUP2 MSTORE SWAP3 SWAP1 SWAP4 AND PUSH1 0x20 DUP4 ADD MSTORE PUSH1 0x40 DUP3 ADD MSTORE PUSH1 0x60 DUP2 ADD SWAP2 SWAP1 SWAP2 MSTORE PUSH1 0xA0 PUSH1 0x80 DUP3 ADD DUP2 SWAP1 MSTORE PUSH1 0x0 SWAP1 DUP3 ADD MSTORE PUSH1 0xC0 ADD SWAP1 JUMP JUMPDEST PUSH1 0x20 DUP1 DUP3 MSTORE DUP3 MLOAD DUP3 DUP3 ADD DUP2 SWAP1 MSTORE PUSH1 0x0 SWAP2 SWAP1 PUSH1 0x40 SWAP1 DUP2 DUP6 ADD SWAP1 DUP7 DUP5 ADD DUP6 JUMPDEST DUP3 DUP2 LT ISZERO PUSH2 0x253A JUMPI DUP2 MLOAD DUP1 MLOAD DUP6 MSTORE DUP7 ADD MLOAD DUP7 DUP6 ADD MSTORE SWAP3 DUP5 ADD SWAP3 SWAP1 DUP6 ADD SWAP1 PUSH1 0x1 ADD PUSH2 0x2515 JUMP JUMPDEST POP SWAP2 SWAP8 SWAP7 POP POP POP POP POP POP POP JUMP JUMPDEST PUSH1 0x20 DUP1 DUP3 MSTORE DUP3 MLOAD DUP3 DUP3 ADD DUP2 SWAP1 MSTORE PUSH1 0x0 SWAP2 SWAP1 PUSH1 0x40 SWAP1 DUP2 DUP6 ADD SWAP1 DUP7 DUP5 ADD DUP6 JUMPDEST DUP3 DUP2 LT ISZERO PUSH2 0x253A JUMPI DUP2 MLOAD DUP1 MLOAD PUSH20 0xFFFFFFFFFFFFFFFFFFFFFFFFFFFFFFFFFFFFFFFF AND DUP6 MSTORE DUP7 DUP2 ADD MLOAD DUP8 DUP7 ADD MSTORE DUP6 DUP2 ADD MLOAD DUP7 DUP7 ADD MSTORE PUSH1 0x60 SWAP1 DUP2 ADD MLOAD SWAP1 DUP6 ADD MSTORE PUSH1 0x80 SWAP1 SWAP4 ADD SWAP3 SWAP1 DUP6 ADD SWAP1 PUSH1 0x1 ADD PUSH2 0x2564 JUMP JUMPDEST PUSH1 0x20 DUP1 DUP3 MSTORE DUP3 MLOAD DUP3 DUP3 ADD DUP2 SWAP1 MSTORE PUSH1 0x0 SWAP2 SWAP1 PUSH1 0x40 SWAP1 DUP2 DUP6 ADD SWAP1 DUP7 DUP5 ADD DUP6 JUMPDEST DUP3 DUP2 LT ISZERO PUSH2 0x253A JUMPI DUP2 MLOAD DUP1 MLOAD PUSH20 0xFFFFFFFFFFFFFFFFFFFFFFFFFFFFFFFFFFFFFFFF SWAP1 DUP2 AND DUP7 MSTORE DUP8 DUP3 ADD MLOAD ISZERO ISZERO DUP9 DUP8 ADD MSTORE DUP7 DUP3 ADD MLOAD AND DUP7 DUP7 ADD MSTORE PUSH1 0x60 DUP1 DUP3 ADD MLOAD SWAP1 DUP7 ADD MSTORE PUSH1 0x80 SWAP1 DUP2 ADD MLOAD SWAP1 DUP6 ADD MSTORE PUSH1 0xA0 SWAP1 SWAP4 ADD SWAP3 SWAP1 DUP6 ADD SWAP1 PUSH1 0x1 ADD PUSH2 0x25D1 JUMP JUMPDEST PUSH32 0xFFFFFFFF00000000000000000000000000000000000000000000000000000000 SWAP2 SWAP1 SWAP2 AND DUP2 MSTORE PUSH1 0x20 ADD SWAP1 JUMP JUMPDEST PUSH1 0x20 DUP1 DUP3 MSTORE PUSH1 0x30 SWAP1 DUP3 ADD MSTORE PUSH32 0x526166666C653A2043616E277420616363657074207472616E7366657220666F PUSH1 0x40 DUP3 ADD MSTORE PUSH32 0x72206578706972656420726166666C6500000000000000000000000000000000 PUSH1 0x60 DUP3 ADD MSTORE PUSH1 0x80 ADD SWAP1 JUMP JUMPDEST PUSH1 0x20 DUP1 DUP3 MSTORE PUSH1 0x1D SWAP1 DUP3 ADD MSTORE PUSH32 0x526166666C653A20526166666C6520646F6573206E6F74206578697374000000 PUSH1 0x40 DUP3 ADD MSTORE PUSH1 0x60 ADD SWAP1 JUMP JUMPDEST PUSH1 0x20 DUP1 DUP3 MSTORE PUSH1 0x30 SWAP1 DUP3 ADD MSTORE PUSH32 0x526166666C653A205374616B65206974656D20646F65736E2774206578697374 PUSH1 0x40 DUP3 ADD MSTORE PUSH32 0x20666F72207468697320726166666C6500000000000000000000000000000000 PUSH1 0x60 DUP3 ADD MSTORE PUSH1 0x80 ADD SWAP1 JUMP JUMPDEST PUSH1 0x20 DUP1 DUP3 MSTORE PUSH1 0x2E SWAP1 DUP3 ADD MSTORE PUSH32 0x526166666C653A205F726166666C65456E64206D757374206265206772656174 PUSH1 0x40 DUP3 ADD MSTORE PUSH32 0x6572207468616E203120686F7572000000000000000000000000000000000000 PUSH1 0x60 DUP3 ADD MSTORE PUSH1 0x80 ADD SWAP1 JUMP JUMPDEST PUSH1 0x20 DUP1 DUP3 MSTORE PUSH1 0x38 SWAP1 DUP3 ADD MSTORE PUSH32 0x526166666C653A20416E79207072697A657320666F72206163636F756E742068 PUSH1 0x40 DUP3 ADD MSTORE PUSH32 0x61766520616C7265616479206265656E20636C61696D65640000000000000000 PUSH1 0x60 DUP3 ADD MSTORE PUSH1 0x80 ADD SWAP1 JUMP JUMPDEST PUSH1 0x20 DUP1 DUP3 MSTORE PUSH1 0x27 SWAP1 DUP3 ADD MSTORE PUSH32 0x526166666C653A2052616E646F6D206E756D626572206E6F742067656E657261 PUSH1 0x40 DUP3 ADD MSTORE PUSH32 0x7465642079657400000000000000000000000000000000000000000000000000 PUSH1 0x60 DUP3 ADD MSTORE PUSH1 0x80 ADD SWAP1 JUMP JUMPDEST PUSH1 0x20 DUP1 DUP3 MSTORE PUSH1 0x23 SWAP1 DUP3 ADD MSTORE PUSH32 0x526166666C653A20526166666C652074696D6520686173206E6F742065787069 PUSH1 0x40 DUP3 ADD MSTORE PUSH32 0x7265640000000000000000000000000000000000000000000000000000000000 PUSH1 0x60 DUP3 ADD MSTORE PUSH1 0x80 ADD SWAP1 JUMP JUMPDEST PUSH1 0x20 DUP1 DUP3 MSTORE PUSH1 0x1F SWAP1 DUP3 ADD MSTORE PUSH32 0x526166666C653A20526166666C652074696D6520686173206578706972656400 PUSH1 0x40 DUP3 ADD MSTORE PUSH1 0x60 ADD SWAP1 JUMP JUMPDEST PUSH1 0x20 DUP1 DUP3 MSTORE PUSH1 0x27 SWAP1 DUP3 ADD MSTORE PUSH32 0x526166666C653A20496E636F727265637420646174612073656E74206F6E2074 PUSH1 0x40 DUP3 ADD MSTORE PUSH32 0x72616E7366657200000000000000000000000000000000000000000000000000 PUSH1 0x60 DUP3 ADD MSTORE PUSH1 0x80 ADD SWAP1 JUMP JUMPDEST PUSH1 0x20 DUP1 DUP3 MSTORE PUSH1 0x27 SWAP1 DUP3 ADD MSTORE PUSH32 0x526166666C653A2052616E646F6D206E756D62657220616C7265616479206765 PUSH1 0x40 DUP3 ADD MSTORE PUSH32 0x6E65726174656400000000000000000000000000000000000000000000000000 PUSH1 0x60 DUP3 ADD MSTORE PUSH1 0x80 ADD SWAP1 JUMP JUMPDEST PUSH1 0x20 DUP1 DUP3 MSTORE PUSH1 0x1E SWAP1 DUP3 ADD MSTORE PUSH32 0x526166666C653A204D75737420626520636F6E7472616374206F776E65720000 PUSH1 0x40 DUP3 ADD MSTORE PUSH1 0x60 ADD SWAP1 JUMP JUMPDEST DUP4 DUP2 MSTORE PUSH1 0x40 PUSH1 0x20 DUP1 DUP4 ADD DUP3 SWAP1 MSTORE DUP3 DUP3 ADD DUP5 SWAP1 MSTORE PUSH1 0x0 SWAP2 SWAP1 PUSH1 0x60 SWAP1 DUP2 DUP6 ADD DUP8 DUP6 JUMPDEST DUP9 DUP2 LT ISZERO PUSH2 0x2A72 JUMPI PUSH20 0xFFFFFFFFFFFFFFFFFFFFFFFFFFFFFFFFFFFFFFFF DUP1 PUSH2 0x2A31 DUP5 PUSH2 0x205E JUMP JUMPDEST AND DUP5 MSTORE DUP5 DUP4 ADD CALLDATALOAD DUP6 DUP6 ADD MSTORE DUP1 PUSH2 0x2A48 DUP9 DUP6 ADD PUSH2 0x205E JUMP JUMPDEST AND DUP5 DUP9 ADD MSTORE POP DUP2 DUP6 ADD CALLDATALOAD DUP6 DUP5 ADD MSTORE PUSH1 0x80 DUP1 DUP4 ADD CALLDATALOAD SWAP1 DUP5 ADD MSTORE PUSH1 0xA0 SWAP3 DUP4 ADD SWAP3 SWAP1 SWAP2 ADD SWAP1 PUSH1 0x1 ADD PUSH2 0x2A0A JUMP JUMPDEST POP SWAP1 SWAP10 SWAP9 POP POP POP POP POP POP POP POP POP JUMP JUMPDEST PUSH1 0x0 PUSH1 0x40 DUP1 DUP4 ADD DUP6 DUP5 MSTORE PUSH1 0x20 DUP3 DUP2 DUP7 ADD MSTORE DUP2 DUP7 MLOAD DUP1 DUP5 MSTORE PUSH1 0x60 SWAP4 POP DUP4 DUP8 ADD SWAP2 POP DUP3 DUP9 ADD DUP7 JUMPDEST DUP3 DUP2 LT ISZERO PUSH2 0x2B01 JUMPI DUP2 MLOAD DUP1 MLOAD PUSH20 0xFFFFFFFFFFFFFFFFFFFFFFFFFFFFFFFFFFFFFFFF SWAP1 DUP2 AND DUP7 MSTORE DUP7 DUP3 ADD MLOAD DUP8 DUP8 ADD MSTORE DUP9 DUP3 ADD MLOAD AND DUP9 DUP7 ADD MSTORE DUP7 DUP2 ADD MLOAD DUP8 DUP7 ADD MSTORE PUSH1 0x80 SWAP1 DUP2 ADD MLOAD SWAP1 DUP6 ADD MSTORE PUSH1 0xA0 SWAP1 SWAP4 ADD SWAP3 SWAP1 DUP5 ADD SWAP1 PUSH1 0x1 ADD PUSH2 0x2AA6 JUMP JUMPDEST POP SWAP2 SWAP10 SWAP9 POP POP POP POP POP POP POP POP POP JUMP JUMPDEST PUSH1 0x40 MLOAD DUP2 DUP2 ADD PUSH8 0xFFFFFFFFFFFFFFFF DUP2 GT DUP3 DUP3 LT OR ISZERO PUSH2 0x2B2C JUMPI INVALID JUMPDEST PUSH1 0x40 MSTORE SWAP2 SWAP1 POP JUMP INVALID LOG2 PUSH5 0x6970667358 0x22 SLT KECCAK256 0xED 0xDB CODESIZE GT 0xB1 LOG1 0xA9 0xE9 PUSH19 0xFC572FB48106B2FD939D04114853148D44A233 0xBF EXP SIGNEXTEND SHL PUSH5 0x736F6C6343 STOP SMOD SUB STOP CALLER "
        },
        "methodIdentifiers": {
          "claimPrize(uint256)": "d7098154",
          "drawRandomNumber(uint256)": "339a6403",
          "onERC1155Received(address,address,uint256,uint256,bytes)": "f23a6e61",
          "openRaffles()": "df745925",
          "owner()": "8da5cb5b",
          "raffleInfo(uint256)": "bf30d790",
          "raffleSupply()": "599d127a",
          "stake(uint256,(address,uint256,uint256)[])": "51a749f3",
          "stakerStats(uint256)": "0da31f46",
          "startRaffle(uint256,(address,uint256,address,uint256,uint256)[])": "553d6833",
          "transferOwnership(address)": "f2fde38b",
          "winners(uint256)": "a2fb1175",
          "winners(uint256,address[])": "d1a4692a"
        }
      }
    }
  }
}