{
  "_format": "hh-sol-artifact-1",
  "contractName": "VouchersContract",
  "sourceName": "contracts/VouchersContract.sol",
  "abi": [
    {
      "inputs": [
        {
          "internalType": "address",
          "name": "_contractOwner",
          "type": "address"
        }
      ],
      "stateMutability": "nonpayable",
      "type": "constructor"
    },
    {
      "anonymous": false,
      "inputs": [
        {
          "indexed": true,
          "internalType": "address",
          "name": "_owner",
          "type": "address"
        },
        {
          "indexed": true,
          "internalType": "address",
          "name": "_operator",
          "type": "address"
        },
        {
          "indexed": false,
          "internalType": "bool",
          "name": "_approved",
          "type": "bool"
        }
      ],
      "name": "ApprovalForAll",
      "type": "event"
    },
    {
      "anonymous": false,
      "inputs": [
        {
          "indexed": true,
          "internalType": "address",
          "name": "previousOwner",
          "type": "address"
        },
        {
          "indexed": true,
          "internalType": "address",
          "name": "newOwner",
          "type": "address"
        }
      ],
      "name": "OwnershipTransferred",
      "type": "event"
    },
    {
      "anonymous": false,
      "inputs": [
        {
          "indexed": true,
          "internalType": "address",
          "name": "_operator",
          "type": "address"
        },
        {
          "indexed": true,
          "internalType": "address",
          "name": "_from",
          "type": "address"
        },
        {
          "indexed": true,
          "internalType": "address",
          "name": "_to",
          "type": "address"
        },
        {
          "indexed": false,
          "internalType": "uint256[]",
          "name": "_ids",
          "type": "uint256[]"
        },
        {
          "indexed": false,
          "internalType": "uint256[]",
          "name": "_values",
          "type": "uint256[]"
        }
      ],
      "name": "TransferBatch",
      "type": "event"
    },
    {
      "anonymous": false,
      "inputs": [
        {
          "indexed": true,
          "internalType": "address",
          "name": "_operator",
          "type": "address"
        },
        {
          "indexed": true,
          "internalType": "address",
          "name": "_from",
          "type": "address"
        },
        {
          "indexed": true,
          "internalType": "address",
          "name": "_to",
          "type": "address"
        },
        {
          "indexed": false,
          "internalType": "uint256",
          "name": "_id",
          "type": "uint256"
        },
        {
          "indexed": false,
          "internalType": "uint256",
          "name": "_value",
          "type": "uint256"
        }
      ],
      "name": "TransferSingle",
      "type": "event"
    },
    {
      "anonymous": false,
      "inputs": [
        {
          "indexed": false,
          "internalType": "string",
          "name": "_value",
          "type": "string"
        },
        {
          "indexed": true,
          "internalType": "uint256",
          "name": "_id",
          "type": "uint256"
        }
      ],
      "name": "URI",
      "type": "event"
    },
    {
      "inputs": [
        {
          "internalType": "address",
          "name": "_owner",
          "type": "address"
        },
        {
          "internalType": "uint256",
          "name": "_id",
          "type": "uint256"
        }
      ],
      "name": "balanceOf",
      "outputs": [
        {
          "internalType": "uint256",
          "name": "balance_",
          "type": "uint256"
        }
      ],
      "stateMutability": "view",
      "type": "function"
    },
    {
      "inputs": [
        {
          "internalType": "address",
          "name": "_owner",
          "type": "address"
        }
      ],
      "name": "balanceOfAll",
      "outputs": [
        {
          "internalType": "uint256[]",
          "name": "balances_",
          "type": "uint256[]"
        }
      ],
      "stateMutability": "view",
      "type": "function"
    },
    {
      "inputs": [
        {
          "internalType": "address[]",
          "name": "_owners",
          "type": "address[]"
        },
        {
          "internalType": "uint256[]",
          "name": "_ids",
          "type": "uint256[]"
        }
      ],
      "name": "balanceOfBatch",
      "outputs": [
        {
          "internalType": "uint256[]",
          "name": "balances_",
          "type": "uint256[]"
        }
      ],
      "stateMutability": "view",
      "type": "function"
    },
    {
      "inputs": [
        {
          "internalType": "address",
          "name": "_to",
          "type": "address"
        },
        {
          "internalType": "uint256[]",
          "name": "_values",
          "type": "uint256[]"
        },
        {
          "internalType": "bytes",
          "name": "_data",
          "type": "bytes"
        }
      ],
      "name": "createVoucherTypes",
      "outputs": [],
      "stateMutability": "nonpayable",
      "type": "function"
    },
    {
      "inputs": [
        {
          "internalType": "address",
          "name": "_owner",
          "type": "address"
        },
        {
          "internalType": "address",
          "name": "_operator",
          "type": "address"
        }
      ],
      "name": "isApprovedForAll",
      "outputs": [
        {
          "internalType": "bool",
          "name": "",
          "type": "bool"
        }
      ],
      "stateMutability": "view",
      "type": "function"
    },
    {
      "inputs": [
        {
          "internalType": "address",
          "name": "_to",
          "type": "address"
        },
        {
          "internalType": "uint256[]",
          "name": "_ids",
          "type": "uint256[]"
        },
        {
          "internalType": "uint256[]",
          "name": "_values",
          "type": "uint256[]"
        },
        {
          "internalType": "bytes",
          "name": "_data",
          "type": "bytes"
        }
      ],
      "name": "mintVouchers",
      "outputs": [],
      "stateMutability": "nonpayable",
      "type": "function"
    },
    {
      "inputs": [],
      "name": "owner",
      "outputs": [
        {
          "internalType": "address",
          "name": "",
          "type": "address"
        }
      ],
      "stateMutability": "view",
      "type": "function"
    },
    {
      "inputs": [
        {
          "internalType": "address",
          "name": "_from",
          "type": "address"
        },
        {
          "internalType": "address",
          "name": "_to",
          "type": "address"
        },
        {
          "internalType": "uint256[]",
          "name": "_ids",
          "type": "uint256[]"
        },
        {
          "internalType": "uint256[]",
          "name": "_values",
          "type": "uint256[]"
        },
        {
          "internalType": "bytes",
          "name": "_data",
          "type": "bytes"
        }
      ],
      "name": "safeBatchTransferFrom",
      "outputs": [],
      "stateMutability": "nonpayable",
      "type": "function"
    },
    {
      "inputs": [
        {
          "internalType": "address",
          "name": "_from",
          "type": "address"
        },
        {
          "internalType": "address",
          "name": "_to",
          "type": "address"
        },
        {
          "internalType": "uint256",
          "name": "_id",
          "type": "uint256"
        },
        {
          "internalType": "uint256",
          "name": "_value",
          "type": "uint256"
        },
        {
          "internalType": "bytes",
          "name": "_data",
          "type": "bytes"
        }
      ],
      "name": "safeTransferFrom",
      "outputs": [],
      "stateMutability": "nonpayable",
      "type": "function"
    },
    {
      "inputs": [
        {
          "internalType": "address",
          "name": "_operator",
          "type": "address"
        },
        {
          "internalType": "bool",
          "name": "_approved",
          "type": "bool"
        }
      ],
      "name": "setApprovalForAll",
      "outputs": [],
      "stateMutability": "nonpayable",
      "type": "function"
    },
    {
      "inputs": [
        {
          "internalType": "string",
          "name": "_value",
          "type": "string"
        }
      ],
      "name": "setBaseURI",
      "outputs": [],
      "stateMutability": "nonpayable",
      "type": "function"
    },
    {
      "inputs": [],
      "name": "totalSupplies",
      "outputs": [
        {
          "internalType": "uint256[]",
          "name": "totalSupplies_",
          "type": "uint256[]"
        }
      ],
      "stateMutability": "view",
      "type": "function"
    },
    {
      "inputs": [
        {
          "internalType": "uint256",
          "name": "_id",
          "type": "uint256"
        }
      ],
      "name": "totalSupply",
      "outputs": [
        {
          "internalType": "uint256",
          "name": "totalSupply_",
          "type": "uint256"
        }
      ],
      "stateMutability": "view",
      "type": "function"
    },
    {
      "inputs": [
        {
          "internalType": "address",
          "name": "_newContractOwner",
          "type": "address"
        }
      ],
      "name": "transferOwnership",
      "outputs": [],
      "stateMutability": "nonpayable",
      "type": "function"
    },
    {
      "inputs": [
        {
          "internalType": "uint256",
          "name": "_id",
          "type": "uint256"
        }
      ],
      "name": "uri",
      "outputs": [
        {
          "internalType": "string",
          "name": "",
          "type": "string"
        }
      ],
      "stateMutability": "view",
      "type": "function"
    }
  ],
  "bytecode": "0x60806040523480156200001157600080fd5b50604051620026c8380380620026c8833981016040819052620000349162000118565b600580546001600160a01b0319166001600160a01b0392909216919091179055600060208190527f67be87c3ff9960ca1e9cfac5cab2ff4747269cf9ed20c9b7306235ac35a491c5805460ff1990811660019081179092557feddca8dd33b41bff4f2689af38c5006161c5d608c330f99c8fe70d8b11b59a4080548216831790557f64d37ee7271936a8fb23c08f528c402845952d93a20b2439a0bc36ed6991047780548216831790556303a24d0760e21b9092527f7d93b6b1eee8b6e2d09e6667386df99a6d3bda9a65ccfc9ee82c5f48a08bca71805490921617905562000148565b6000602082840312156200012a578081fd5b81516001600160a01b038116811462000141578182fd5b9392505050565b61257080620001586000396000f3fe608060405234801561001057600080fd5b50600436106100f45760003560e01c8063a22cb46511610097578063e985e9c511610066578063e985e9c5146101f3578063f242432a14610213578063f2fde38b14610226578063fe992c9814610239576100f4565b8063a22cb465146101b2578063b833e16a146101c5578063bd85b039146101d8578063d068cdc5146101eb576100f4565b80634e1273f4116100d35780634e1273f41461015757806355f804b3146101775780638145cc221461018a5780638da5cb5b1461019d576100f4565b8062fdd58e146100f95780630e89341c146101225780632eb2c2d614610142575b600080fd5b61010c610107366004611b6e565b61024c565b60405161011991906124f3565b60405180910390f35b610135610130366004611cf3565b6102c0565b6040516101199190612072565b6101556101503660046118e2565b610317565b005b61016a610165366004611b97565b610740565b6040516101199190612024565b610155610185366004611c40565b610890565b610155610198366004611a0f565b610971565b6101a5610ca9565b6040516101199190611e9f565b6101556101c0366004611b34565b610cc5565b6101556101d3366004611ab6565b610d5f565b61010c6101e6366004611cf3565b611077565b61016a6110c2565b6102066102013660046118b0565b61115b565b6040516101199190612067565b610155610221366004611999565b611196565b61015561023436600461188f565b6114a9565b61016a61024736600461188f565b611557565b60025460009082106102795760405162461bcd60e51b815260040161027090612428565b60405180910390fd5b600280548390811061028757fe5b6000918252602080832073ffffffffffffffffffffffffffffffffffffffff909616835260029091029094019093525050604090205490565b60025460609082106102e45760405162461bcd60e51b815260040161027090612394565b60046102ef83611614565b604051602001610300929190611e09565b60405160208183030381529060405290505b919050565b73ffffffffffffffffffffffffffffffffffffffff871661034a5760405162461bcd60e51b8152600401610270906123cb565b8483146103695760405162461bcd60e51b815260040161027090612220565b73ffffffffffffffffffffffffffffffffffffffff88163314806103bd575073ffffffffffffffffffffffffffffffffffffffff8816600090815260016020908152604080832033845290915290205460ff165b6103d95760405162461bcd60e51b8152600401610270906122da565b60025460005b868110156105975760008888838181106103f557fe5b90506020020135905082811061041d5760405162461bcd60e51b8152600401610270906120fa565b600087878481811061042b57fe5b905060200201359050600080600201838154811061044557fe5b906000526020600020906002020160000160008e73ffffffffffffffffffffffffffffffffffffffff1673ffffffffffffffffffffffffffffffffffffffff168152602001908152602001600020549050818110156104b65760405162461bcd60e51b81526004016102709061218e565b818103600060020184815481106104c957fe5b906000526020600020906002020160000160008f73ffffffffffffffffffffffffffffffffffffffff1673ffffffffffffffffffffffffffffffffffffffff16815260200190815260200160002081905550816000600201848154811061052c57fe5b906000526020600020906002020160000160008e73ffffffffffffffffffffffffffffffffffffffff1673ffffffffffffffffffffffffffffffffffffffff1681526020019081526020016000206000828254019250508190555050505080806001019150506103df565b508773ffffffffffffffffffffffffffffffffffffffff168973ffffffffffffffffffffffffffffffffffffffff163373ffffffffffffffffffffffffffffffffffffffff167f4a39dc06d4c0dbc64b70af90fd698a233a518aa5d07e595d983b8c0526c8f7fb8a8a8a8a6040516106129493929190611ff2565b60405180910390a4873b8015610734576040517fbc197c8100000000000000000000000000000000000000000000000000000000815273ffffffffffffffffffffffffffffffffffffffff8a169063bc197c81906106829033908e908d908d908d908d908d908d90600401611ec0565b602060405180830381600087803b15801561069c57600080fd5b505af11580156106b0573d6000803e3d6000fd5b505050506040513d601f19601f820116820180604052508101906106d49190611c00565b7fffffffff00000000000000000000000000000000000000000000000000000000167fbc197c8100000000000000000000000000000000000000000000000000000000146107345760405162461bcd60e51b815260040161027090612131565b50505050505050505050565b60608382146107615760405162461bcd60e51b815260040161027090612337565b6002548467ffffffffffffffff8111801561077b57600080fd5b506040519080825280602002602001820160405280156107a5578160200160208202803683370190505b50915060005b858110156108865760008585838181106107c157fe5b9050602002013590508281106107e95760405162461bcd60e51b8152600401610270906120fa565b60028054829081106107f757fe5b9060005260206000209060020201600001600089898581811061081657fe5b905060200201602081019061082b919061188f565b73ffffffffffffffffffffffffffffffffffffffff1673ffffffffffffffffffffffffffffffffffffffff1681526020019081526020016000205484838151811061087257fe5b6020908102919091010152506001016107ab565b5050949350505050565b60055473ffffffffffffffffffffffffffffffffffffffff1633146108c75760405162461bcd60e51b8152600401610270906121eb565b80516108da906004906020840190611741565b5060005b60025481101561096d57807f6bb7ff708619ba0610cba295a58592e0451dee2622938c8755667688daf3529b8361091484611614565b604051602001610925929190611dda565b604080517fffffffffffffffffffffffffffffffffffffffffffffffffffffffffffffffe08184030181529082905261095d91612072565b60405180910390a26001016108de565b5050565b73ffffffffffffffffffffffffffffffffffffffff87166109a45760405162461bcd60e51b81526004016102709061227d565b60055473ffffffffffffffffffffffffffffffffffffffff1633146109db5760405162461bcd60e51b8152600401610270906121eb565b8483146109fa5760405162461bcd60e51b81526004016102709061245f565b60025460005b84811015610aff576000888883818110610a1657fe5b905060200201359050828110610a3e5760405162461bcd60e51b8152600401610270906124bc565b6000878784818110610a4c57fe5b9050602002013590508060006002018381548110610a6657fe5b9060005260206000209060020201600101600082825401925050819055508060006002018381548110610a9557fe5b906000526020600020906002020160000160008d73ffffffffffffffffffffffffffffffffffffffff1673ffffffffffffffffffffffffffffffffffffffff1681526020019081526020016000206000828254019250508190555050508080600101915050610a00565b508773ffffffffffffffffffffffffffffffffffffffff16600073ffffffffffffffffffffffffffffffffffffffff163373ffffffffffffffffffffffffffffffffffffffff167f4a39dc06d4c0dbc64b70af90fd698a233a518aa5d07e595d983b8c0526c8f7fb8a8a8a8a604051610b7b9493929190611ff2565b60405180910390a4873b8015610c9e576040517fbc197c8100000000000000000000000000000000000000000000000000000000815273ffffffffffffffffffffffffffffffffffffffff8a169063bc197c8190610bec9033906000908d908d908d908d908d908d90600401611ec0565b602060405180830381600087803b158015610c0657600080fd5b505af1158015610c1a573d6000803e3d6000fd5b505050506040513d601f19601f82011682018060405250810190610c3e9190611c00565b7fffffffff00000000000000000000000000000000000000000000000000000000167fbc197c810000000000000000000000000000000000000000000000000000000014610c9e5760405162461bcd60e51b815260040161027090612131565b505050505050505050565b60055473ffffffffffffffffffffffffffffffffffffffff1690565b33600081815260016020908152604080832073ffffffffffffffffffffffffffffffffffffffff871680855292529182902080547fffffffffffffffffffffffffffffffffffffffffffffffffffffffffffffff001685151517905590519091907f17307eab39ab6107e8899845ad3d59bd9653f200f220920489ca2b5937696c3190610d53908590612067565b60405180910390a35050565b73ffffffffffffffffffffffffffffffffffffffff8516610d925760405162461bcd60e51b81526004016102709061227d565b60055473ffffffffffffffffffffffffffffffffffffffff163314610dc95760405162461bcd60e51b8152600401610270906121eb565b60025460608467ffffffffffffffff81118015610de557600080fd5b50604051908082528060200260200182016040528015610e0f578160200160208202803683370190505b50905060005b85811015610ed25782828281518110610e2a57fe5b6020026020010181815250506000878783818110610e4457fe5b6002805460010180825560008290526020909202939093013593508392915086908110610e6d57fe5b9060005260206000209060020201600101819055508060006002018581548110610e9357fe5b6000918252602080832073ffffffffffffffffffffffffffffffffffffffff8e1684526002909202909101905260409020555060019283019201610e15565b508673ffffffffffffffffffffffffffffffffffffffff16600073ffffffffffffffffffffffffffffffffffffffff163373ffffffffffffffffffffffffffffffffffffffff167f4a39dc06d4c0dbc64b70af90fd698a233a518aa5d07e595d983b8c0526c8f7fb848a8a604051610f4c93929190612037565b60405180910390a4863b801561106d576040517fbc197c8100000000000000000000000000000000000000000000000000000000815273ffffffffffffffffffffffffffffffffffffffff89169063bc197c8190610fbb90339060009087908d908d908d908d90600401611f31565b602060405180830381600087803b158015610fd557600080fd5b505af1158015610fe9573d6000803e3d6000fd5b505050506040513d601f19601f8201168201806040525081019061100d9190611c00565b7fffffffff00000000000000000000000000000000000000000000000000000000167fbc197c81000000000000000000000000000000000000000000000000000000001461106d5760405162461bcd60e51b815260040161027090612131565b5050505050505050565b600254600090821061109b5760405162461bcd60e51b8152600401610270906120c3565b60028054839081106110a957fe5b9060005260206000209060020201600101549050919050565b6002546060908067ffffffffffffffff811180156110df57600080fd5b50604051908082528060200260200182016040528015611109578160200160208202803683370190505b50915060005b8181101561115657600280548290811061112557fe5b90600052602060002090600202016001015483828151811061114357fe5b602090810291909101015260010161110f565b505090565b73ffffffffffffffffffffffffffffffffffffffff918216600090815260016020908152604080832093909416825291909152205460ff1690565b73ffffffffffffffffffffffffffffffffffffffff85166111c95760405162461bcd60e51b8152600401610270906123cb565b60025484106111ea5760405162461bcd60e51b815260040161027090612428565b73ffffffffffffffffffffffffffffffffffffffff861633148061123e575073ffffffffffffffffffffffffffffffffffffffff8616600090815260016020908152604080832033845290915290205460ff165b61125a5760405162461bcd60e51b8152600401610270906122da565b600080600201858154811061126b57fe5b6000918252602080832073ffffffffffffffffffffffffffffffffffffffff8b1684526002909202909101905260409020549050838110156112bf5760405162461bcd60e51b81526004016102709061218e565b838103600060020186815481106112d257fe5b6000918252602080832073ffffffffffffffffffffffffffffffffffffffff8c168452600292830201905260409091209190915580548591908790811061131557fe5b6000918252602080832073ffffffffffffffffffffffffffffffffffffffff808c16808652600290940290910190915260409283902080549094019093559051909189169033907fc3d58168c5ae7397731d063d5bbf3d657854427343f4c083240f7aacaa2d0f629061138b908a908a906124fc565b60405180910390a4853b801561106d576040517ff23a6e6100000000000000000000000000000000000000000000000000000000815273ffffffffffffffffffffffffffffffffffffffff88169063f23a6e61906113f79033908c908b908b908b908b90600401611fa0565b602060405180830381600087803b15801561141157600080fd5b505af1158015611425573d6000803e3d6000fd5b505050506040513d601f19601f820116820180604052508101906114499190611c00565b7fffffffff00000000000000000000000000000000000000000000000000000000167ff23a6e61000000000000000000000000000000000000000000000000000000001461106d5760405162461bcd60e51b815260040161027090612131565b60055473ffffffffffffffffffffffffffffffffffffffff163381146114e15760405162461bcd60e51b8152600401610270906121eb565b600580547fffffffffffffffffffffffff00000000000000000000000000000000000000001673ffffffffffffffffffffffffffffffffffffffff84811691821790925560405190918316907f8be0079c531659141344cd1fd0a4f28419497f9722a3daafe3b4186f6b6457e090600090a35050565b6002546060908067ffffffffffffffff8111801561157457600080fd5b5060405190808252806020026020018201604052801561159e578160200160208202803683370190505b50915060005b8181101561160d5760028054829081106115ba57fe5b6000918252602080832073ffffffffffffffffffffffffffffffffffffffff8816845260029092029091019052604090205483518490839081106115fa57fe5b60209081029190910101526001016115a4565b5050919050565b606081611655575060408051808201909152600181527f30000000000000000000000000000000000000000000000000000000000000006020820152610312565b8160005b811561166d57600101600a82049150611659565b60608167ffffffffffffffff8111801561168657600080fd5b506040519080825280601f01601f1916602001820160405280156116b1576020820181803683370190505b5085935090507fffffffffffffffffffffffffffffffffffffffffffffffffffffffffffffffff82015b831561173857600a840660300160f81b828280600190039350815181106116fe57fe5b60200101907effffffffffffffffffffffffffffffffffffffffffffffffffffffffffffff1916908160001a905350600a840493506116db565b50949350505050565b828054600181600116156101000203166002900490600052602060002090601f01602090048101928261177757600085556117bd565b82601f1061179057805160ff19168380011785556117bd565b828001600101855582156117bd579182015b828111156117bd5782518255916020019190600101906117a2565b506117c99291506117cd565b5090565b5b808211156117c957600081556001016117ce565b803573ffffffffffffffffffffffffffffffffffffffff8116811461031257600080fd5b60008083601f840112611817578182fd5b50813567ffffffffffffffff81111561182e578182fd5b602083019150836020808302850101111561184857600080fd5b9250929050565b60008083601f840112611860578182fd5b50813567ffffffffffffffff811115611877578182fd5b60208301915083602082850101111561184857600080fd5b6000602082840312156118a0578081fd5b6118a9826117e2565b9392505050565b600080604083850312156118c2578081fd5b6118cb836117e2565b91506118d9602084016117e2565b90509250929050565b60008060008060008060008060a0898b0312156118fd578384fd5b611906896117e2565b975061191460208a016117e2565b9650604089013567ffffffffffffffff80821115611930578586fd5b61193c8c838d01611806565b909850965060608b0135915080821115611954578586fd5b6119608c838d01611806565b909650945060808b0135915080821115611978578384fd5b506119858b828c0161184f565b999c989b5096995094979396929594505050565b60008060008060008060a087890312156119b1578182fd5b6119ba876117e2565b95506119c8602088016117e2565b94506040870135935060608701359250608087013567ffffffffffffffff8111156119f1578283fd5b6119fd89828a0161184f565b979a9699509497509295939492505050565b60008060008060008060006080888a031215611a29578283fd5b611a32886117e2565b9650602088013567ffffffffffffffff80821115611a4e578485fd5b611a5a8b838c01611806565b909850965060408a0135915080821115611a72578485fd5b611a7e8b838c01611806565b909650945060608a0135915080821115611a96578384fd5b50611aa38a828b0161184f565b989b979a50959850939692959293505050565b600080600080600060608688031215611acd578081fd5b611ad6866117e2565b9450602086013567ffffffffffffffff80821115611af2578283fd5b611afe89838a01611806565b90965094506040880135915080821115611b16578283fd5b50611b238882890161184f565b969995985093965092949392505050565b60008060408385031215611b46578182fd5b611b4f836117e2565b915060208301358015158114611b63578182fd5b809150509250929050565b60008060408385031215611b80578182fd5b611b89836117e2565b946020939093013593505050565b60008060008060408587031215611bac578384fd5b843567ffffffffffffffff80821115611bc3578586fd5b611bcf88838901611806565b90965094506020870135915080821115611be7578384fd5b50611bf487828801611806565b95989497509550505050565b600060208284031215611c11578081fd5b81517fffffffff00000000000000000000000000000000000000000000000000000000811681146118a9578182fd5b60006020808385031215611c52578182fd5b823567ffffffffffffffff80821115611c69578384fd5b818501915085601f830112611c7c578384fd5b813581811115611c8857fe5b604051847fffffffffffffffffffffffffffffffffffffffffffffffffffffffffffffffe0601f8401168201018181108482111715611cc357fe5b6040528181528382018501881015611cd9578586fd5b818585018683013790810190930193909352509392505050565b600060208284031215611d04578081fd5b5035919050565b60008284527f07ffffffffffffffffffffffffffffffffffffffffffffffffffffffffffffff831115611d3c578081fd5b6020830280836020870137939093016020019283525090919050565b6000815180845260208085019450808401835b83811015611d8757815187529582019590820190600101611d6b565b509495945050505050565b600082845282826020860137806020848601015260207fffffffffffffffffffffffffffffffffffffffffffffffffffffffffffffffe0601f85011685010190509392505050565b60008351611dec81846020880161250a565b835190830190611e0081836020880161250a565b01949350505050565b6000808454600180821660008114611e285760018114611e5d57611e8c565b7fffffffffffffffffffffffffffffffffffffffffffffffffffffffffffffff0083168652607f600284041686019350611e8c565b600283048886526020808720875b83811015611e845781548a820152908501908201611e6b565b505050860193505b5050508351611e0081836020880161250a565b73ffffffffffffffffffffffffffffffffffffffff91909116815260200190565b600073ffffffffffffffffffffffffffffffffffffffff808b168352808a1660208401525060a06040830152611efa60a08301888a611d0b565b8281036060840152611f0d818789611d0b565b90508281036080840152611f22818587611d92565b9b9a5050505050505050505050565b600073ffffffffffffffffffffffffffffffffffffffff808a16835280891660208401525060a06040830152611f6a60a0830188611d58565b8281036060840152611f7d818789611d0b565b90508281036080840152611f92818587611d92565b9a9950505050505050505050565b600073ffffffffffffffffffffffffffffffffffffffff808916835280881660208401525085604083015284606083015260a06080830152611fe660a083018486611d92565b98975050505050505050565b600060408252612006604083018688611d0b565b8281036020840152612019818587611d0b565b979650505050505050565b6000602082526118a96020830184611d58565b60006040825261204a6040830186611d58565b828103602084015261205d818587611d0b565b9695505050505050565b901515815260200190565b600060208252825180602084015261209181604085016020870161250a565b601f017fffffffffffffffffffffffffffffffffffffffffffffffffffffffffffffffe0169190910160400192915050565b6020808252601d908201527f566f757263686572733a2020566f7563686572206e6f7420666f756e64000000604082015260600190565b60208082526016908201527f566f7563686572733a206964206e6f7420666f756e6400000000000000000000604082015260600190565b60208082526029908201527f566f7563686572733a205472616e736665722072656a65637465642f6661696c60408201527f6564206279205f746f0000000000000000000000000000000000000000000000606082015260800190565b60208082526025908201527f566f7563686572733a205f76616c75652067726561746572207468616e20626160408201527f6c616e6365000000000000000000000000000000000000000000000000000000606082015260800190565b6020808252818101527f566f7563686572733a204d75737420626520636f6e7472616374206f776e6572604082015260600190565b6020808252602d908201527f566f7563686572733a205f696473206e6f74207468652073616d65206c656e6760408201527f7468206173205f76616c75657300000000000000000000000000000000000000606082015260800190565b60208082526021908201527f566f7563686572733a2043616e2774206d696e7420746f20302061646472657360408201527f7300000000000000000000000000000000000000000000000000000000000000606082015260800190565b60208082526022908201527f566f7563686572733a204e6f7420617070726f76656420746f207472616e736660408201527f6572000000000000000000000000000000000000000000000000000000000000606082015260800190565b60208082526029908201527f566f7563686572733a205f6f776e657273206e6f742073616d65206c656e677460408201527f68206173205f6964730000000000000000000000000000000000000000000000606082015260800190565b60208082526019908201527f5f6964206e6f7420666f756e6420666f7220207469636b657400000000000000604082015260600190565b60208082526025908201527f566f7563686572733a2043616e2774207472616e7366657220746f203020616460408201527f6472657373000000000000000000000000000000000000000000000000000000606082015260800190565b60208082526017908201527f566f7563686572733a205f6964206e6f7420666f756e64000000000000000000604082015260600190565b6020808252602d908201527f566f7563686572733a205f696473206d7573742062652073616d65206c656e6760408201527f7468206173205f76616c75657300000000000000000000000000000000000000606082015260800190565b6020808252601b908201527f566f7563686572733a20696420646f6573206e6f742065786973740000000000604082015260600190565b90815260200190565b918252602082015260400190565b60005b8381101561252557818101518382015260200161250d565b83811115612534576000848401525b5050505056fea2646970667358221220a684cdcf86e9a4ab03b87037ef80dbb19daac90ff9dd0b1a1c5e61e02ad7724464736f6c63430007040033",
  "linkReferences": {},
  "deployedLinkReferences": {}
}