{
  "_format": "hh-sol-artifact-1",
  "contractName": "RafflesContract",
  "sourceName": "contracts/RafflesContract.sol",
  "abi": [
    {
      "inputs": [
        {
          "internalType": "address",
          "name": "_contractOwner",
          "type": "address"
        }
      ],
      "stateMutability": "nonpayable",
      "type": "constructor"
    },
    {
      "anonymous": false,
      "inputs": [
        {
          "indexed": true,
          "internalType": "address",
          "name": "previousOwner",
          "type": "address"
        },
        {
          "indexed": true,
          "internalType": "address",
          "name": "newOwner",
          "type": "address"
        }
      ],
      "name": "OwnershipTransferred",
      "type": "event"
    },
    {
      "anonymous": false,
      "inputs": [
        {
          "indexed": true,
          "internalType": "uint256",
          "name": "raffleId",
          "type": "uint256"
        },
        {
          "indexed": false,
          "internalType": "address",
          "name": "staker",
          "type": "address"
        },
        {
          "indexed": false,
          "internalType": "address",
          "name": "prizeAddress",
          "type": "address"
        },
        {
          "indexed": false,
          "internalType": "uint256",
          "name": "prizeId",
          "type": "uint256"
        },
        {
          "indexed": false,
          "internalType": "uint256",
          "name": "prizeValue",
          "type": "uint256"
        }
      ],
      "name": "RaffleClaimPrize",
      "type": "event"
    },
    {
      "anonymous": false,
      "inputs": [
        {
          "indexed": true,
          "internalType": "uint256",
          "name": "raffleId",
          "type": "uint256"
        },
        {
          "indexed": false,
          "internalType": "uint256",
          "name": "randomNumber",
          "type": "uint256"
        }
      ],
      "name": "RaffleRandomNumber",
      "type": "event"
    },
    {
      "anonymous": false,
      "inputs": [
        {
          "indexed": true,
          "internalType": "uint256",
          "name": "raffleId",
          "type": "uint256"
        },
        {
          "indexed": false,
          "internalType": "address",
          "name": "staker",
          "type": "address"
        },
        {
          "components": [
            {
              "internalType": "address",
              "name": "stakeAddress",
              "type": "address"
            },
            {
              "internalType": "uint256",
              "name": "stakeId",
              "type": "uint256"
            },
            {
              "internalType": "uint256",
              "name": "stakeValue",
              "type": "uint256"
            }
          ],
          "indexed": false,
          "internalType": "struct RafflesContract.StakeItemInput[]",
          "name": "stakeItems",
          "type": "tuple[]"
        }
      ],
      "name": "RaffleStaker",
      "type": "event"
    },
    {
      "anonymous": false,
      "inputs": [
        {
          "indexed": true,
          "internalType": "uint256",
          "name": "raffleId",
          "type": "uint256"
        },
        {
          "indexed": false,
          "internalType": "uint256",
          "name": "raffleEnd",
          "type": "uint256"
        },
        {
          "components": [
            {
              "internalType": "address",
              "name": "stakeAddress",
              "type": "address"
            },
            {
              "internalType": "uint256",
              "name": "stakeId",
              "type": "uint256"
            },
            {
              "internalType": "address",
              "name": "prizeAddress",
              "type": "address"
            },
            {
              "internalType": "uint256",
              "name": "prizeId",
              "type": "uint256"
            },
            {
              "internalType": "uint256",
              "name": "prizeValue",
              "type": "uint256"
            }
          ],
          "indexed": false,
          "internalType": "struct RaffleItem[]",
          "name": "raffleItems",
          "type": "tuple[]"
        }
      ],
      "name": "RaffleStarted",
      "type": "event"
    },
    {
      "inputs": [
        {
          "internalType": "uint256",
          "name": "_raffleId",
          "type": "uint256"
        }
      ],
      "name": "claimPrize",
      "outputs": [],
      "stateMutability": "nonpayable",
      "type": "function"
    },
    {
      "inputs": [
        {
          "internalType": "uint256",
          "name": "_raffleId",
          "type": "uint256"
        }
      ],
      "name": "drawRandomNumber",
      "outputs": [],
      "stateMutability": "nonpayable",
      "type": "function"
    },
    {
      "inputs": [
        {
          "internalType": "address",
          "name": "_operator",
          "type": "address"
        },
        {
          "internalType": "address",
          "name": "_from",
          "type": "address"
        },
        {
          "internalType": "uint256",
          "name": "_id",
          "type": "uint256"
        },
        {
          "internalType": "uint256",
          "name": "_value",
          "type": "uint256"
        },
        {
          "internalType": "bytes",
          "name": "_data",
          "type": "bytes"
        }
      ],
      "name": "onERC1155Received",
      "outputs": [
        {
          "internalType": "bytes4",
          "name": "",
          "type": "bytes4"
        }
      ],
      "stateMutability": "view",
      "type": "function"
    },
    {
      "inputs": [],
      "name": "openRaffles",
      "outputs": [
        {
          "components": [
            {
              "internalType": "uint256",
              "name": "raffleId",
              "type": "uint256"
            },
            {
              "internalType": "uint256",
              "name": "raffleEnd",
              "type": "uint256"
            }
          ],
          "internalType": "struct RafflesContract.OpenRaffle[]",
          "name": "openRaffles_",
          "type": "tuple[]"
        }
      ],
      "stateMutability": "view",
      "type": "function"
    },
    {
      "inputs": [],
      "name": "owner",
      "outputs": [
        {
          "internalType": "address",
          "name": "",
          "type": "address"
        }
      ],
      "stateMutability": "view",
      "type": "function"
    },
    {
      "inputs": [
        {
          "internalType": "uint256",
          "name": "_raffleId",
          "type": "uint256"
        }
      ],
      "name": "raffleInfo",
      "outputs": [
        {
          "internalType": "uint256",
          "name": "raffleEnd_",
          "type": "uint256"
        },
        {
          "components": [
            {
              "internalType": "address",
              "name": "stakeAddress",
              "type": "address"
            },
            {
              "internalType": "uint256",
              "name": "stakeId",
              "type": "uint256"
            },
            {
              "internalType": "address",
              "name": "prizeAddress",
              "type": "address"
            },
            {
              "internalType": "uint256",
              "name": "prizeId",
              "type": "uint256"
            },
            {
              "internalType": "uint256",
              "name": "prizeValue",
              "type": "uint256"
            }
          ],
          "internalType": "struct RaffleItem[]",
          "name": "raffleItems_",
          "type": "tuple[]"
        }
      ],
      "stateMutability": "view",
      "type": "function"
    },
    {
      "inputs": [],
      "name": "raffleSupply",
      "outputs": [
        {
          "internalType": "uint256",
          "name": "raffleSupply_",
          "type": "uint256"
        }
      ],
      "stateMutability": "view",
      "type": "function"
    },
    {
      "inputs": [
        {
          "internalType": "uint256",
          "name": "_raffleId",
          "type": "uint256"
        },
        {
          "components": [
            {
              "internalType": "address",
              "name": "stakeAddress",
              "type": "address"
            },
            {
              "internalType": "uint256",
              "name": "stakeId",
              "type": "uint256"
            },
            {
              "internalType": "uint256",
              "name": "stakeValue",
              "type": "uint256"
            }
          ],
          "internalType": "struct RafflesContract.StakeItemInput[]",
          "name": "_stakeItems",
          "type": "tuple[]"
        }
      ],
      "name": "stake",
      "outputs": [],
      "stateMutability": "nonpayable",
      "type": "function"
    },
    {
      "inputs": [
        {
          "internalType": "uint256",
          "name": "_raffleId",
          "type": "uint256"
        }
      ],
      "name": "stakerStats",
      "outputs": [
        {
          "components": [
            {
              "internalType": "address",
              "name": "stakeAddress",
              "type": "address"
            },
            {
              "internalType": "uint256",
              "name": "stakeId",
              "type": "uint256"
            },
            {
              "internalType": "uint256",
              "name": "numberOfStakers",
              "type": "uint256"
            },
            {
              "internalType": "uint256",
              "name": "stakeTotal",
              "type": "uint256"
            }
          ],
          "internalType": "struct RafflesContract.StakerStats[]",
          "name": "stakerStats_",
          "type": "tuple[]"
        }
      ],
      "stateMutability": "view",
      "type": "function"
    },
    {
      "inputs": [
        {
          "internalType": "uint256",
          "name": "_raffleEnd",
          "type": "uint256"
        },
        {
          "components": [
            {
              "internalType": "address",
              "name": "stakeAddress",
              "type": "address"
            },
            {
              "internalType": "uint256",
              "name": "stakeId",
              "type": "uint256"
            },
            {
              "internalType": "address",
              "name": "prizeAddress",
              "type": "address"
            },
            {
              "internalType": "uint256",
              "name": "prizeId",
              "type": "uint256"
            },
            {
              "internalType": "uint256",
              "name": "prizeValue",
              "type": "uint256"
            }
          ],
          "internalType": "struct RaffleItem[]",
          "name": "_raffleItems",
          "type": "tuple[]"
        }
      ],
      "name": "startRaffle",
      "outputs": [],
      "stateMutability": "nonpayable",
      "type": "function"
    },
    {
      "inputs": [
        {
          "internalType": "address",
          "name": "_newContractOwner",
          "type": "address"
        }
      ],
      "name": "transferOwnership",
      "outputs": [],
      "stateMutability": "nonpayable",
      "type": "function"
    },
    {
      "inputs": [
        {
          "internalType": "uint256",
          "name": "_raffleId",
          "type": "uint256"
        }
      ],
      "name": "winners",
      "outputs": [
        {
          "components": [
            {
              "internalType": "address",
              "name": "staker",
              "type": "address"
            },
            {
              "internalType": "bool",
              "name": "claimed",
              "type": "bool"
            },
            {
              "internalType": "address",
              "name": "prizeAddress",
              "type": "address"
            },
            {
              "internalType": "uint256",
              "name": "prizeId",
              "type": "uint256"
            },
            {
              "internalType": "uint256",
              "name": "prizeValue",
              "type": "uint256"
            }
          ],
          "internalType": "struct RafflesContract.Winner[]",
          "name": "winners_",
          "type": "tuple[]"
        }
      ],
      "stateMutability": "view",
      "type": "function"
    },
    {
      "inputs": [
        {
          "internalType": "uint256",
          "name": "_raffleId",
          "type": "uint256"
        },
        {
          "internalType": "address[]",
          "name": "_stakers",
          "type": "address[]"
        }
      ],
      "name": "winners",
      "outputs": [
        {
          "components": [
            {
              "internalType": "address",
              "name": "staker",
              "type": "address"
            },
            {
              "internalType": "bool",
              "name": "claimed",
              "type": "bool"
            },
            {
              "internalType": "address",
              "name": "prizeAddress",
              "type": "address"
            },
            {
              "internalType": "uint256",
              "name": "prizeId",
              "type": "uint256"
            },
            {
              "internalType": "uint256",
              "name": "prizeValue",
              "type": "uint256"
            }
          ],
          "internalType": "struct RafflesContract.Winner[]",
          "name": "winners_",
          "type": "tuple[]"
        }
      ],
      "stateMutability": "view",
      "type": "function"
    }
  ],
  "bytecode": "0x60806040523480156200001157600080fd5b5060405162002ba638038062002ba683398101604081905262000034916200005a565b600180546001600160a01b0319166001600160a01b03929092169190911790556200008a565b6000602082840312156200006c578081fd5b81516001600160a01b038116811462000083578182fd5b9392505050565b612b0c806200009a6000396000f3fe608060405234801561001057600080fd5b50600436106100df5760003560e01c8063a2fb11751161008c578063d709815411610066578063d7098154146101c6578063df745925146101d9578063f23a6e61146101ee578063f2fde38b1461020e576100df565b8063a2fb117514610172578063bf30d79014610192578063d1a4692a146101b3576100df565b8063553d6833116100bd578063553d683314610135578063599d127a146101485780638da5cb5b1461015d576100df565b80630da31f46146100e4578063339a64031461010d57806351a749f314610122575b600080fd5b6100f76100f23660046120e4565b610221565b60405161010491906124e9565b60405180910390f35b61012061011b3660046120e4565b610569565b005b61012061013036600461222a565b6106cb565b6101206101433660046121b0565b610b10565b610150610f9f565b6040516101049190612291565b610165610fa5565b60405161010491906122da565b6101856101803660046120e4565b610fc1565b6040516101049190612556565b6101a56101a03660046120e4565b61109a565b604051610104929190612a23565b6101856101c13660046120fc565b611393565b6101206101d43660046120e4565b61181d565b6101e1611c5b565b604051610104919061249a565b6102016101fc366004612043565b611d3d565b60405161010491906125d2565b61012061021c366004612029565b611e57565b6000546060908210610268576040517f08c379a000000000000000000000000000000000000000000000000000000000815260040161025f9061265c565b60405180910390fd5b600080600001838154811061027957fe5b90600052602060002090600802019050806001018054905067ffffffffffffffff811180156102a757600080fd5b506040519080825280602002602001820160405280156102e157816020015b6102ce611f1f565b8152602001906001900390816102c65790505b50915060005b60018201548110156105625781600101818154811061030257fe5b6000918252602090912060039091020154835173ffffffffffffffffffffffffffffffffffffffff9091169084908390811061033a57fe5b602090810291909101015173ffffffffffffffffffffffffffffffffffffffff90911690526001820180548290811061036f57fe5b90600052602060002090600302016001015483828151811061038d57fe5b602002602001015160200181815250508160010181815481106103ac57fe5b9060005260206000209060030201600201548382815181106103ca57fe5b60200260200101516060018181525050600060018360000160008685815181106103f057fe5b60200260200101516000015173ffffffffffffffffffffffffffffffffffffffff1673ffffffffffffffffffffffffffffffffffffffff168152602001908152602001600020600086858151811061044457fe5b60200260200101516020015181526020019081526020016000205403905060005b600584015481101561055857600084600501828154811061048257fe5b600091825260208220015473ffffffffffffffffffffffffffffffffffffffff1691505b73ffffffffffffffffffffffffffffffffffffffff8216600090815260038701602052604090205481101561054e5773ffffffffffffffffffffffffffffffffffffffff82166000908152600387016020526040902080548290811061050857fe5b60009182526020909120015462ffffff168414156105465786858151811061052c57fe5b60209081029190910101516040018051600101905261054e565b6001016104a6565b5050600101610465565b50506001016102e7565b5050919050565b60005481106105a4576040517f08c379a000000000000000000000000000000000000000000000000000000000815260040161025f9061265c565b60008060000182815481106105b557fe5b9060005260206000209060080201905042816007015410610602576040517f08c379a000000000000000000000000000000000000000000000000000000000815260040161025f90612807565b60068101541561063e576040517f08c379a000000000000000000000000000000000000000000000000000000000815260040161025f906128f8565b6000436040516020016106519190612291565b6040516020818303038152906040528051906020012060001c7bffffffffffffffffffffffffffffffffffffffffffffffffffffffff169050827f37e68548bed90aa11745696116f838a60b0bba40fc3f77a139aee9e3b828a08e826040516106ba9190612291565b60405180910390a260069091015550565b6000548310610706576040517f08c379a000000000000000000000000000000000000000000000000000000000815260040161025f9061265c565b600080600001848154811061071757fe5b9060005260206000209060080201905042816007015411610764576040517f08c379a000000000000000000000000000000000000000000000000000000000815260040161025f90612864565b837f2efd8659d1439ae776eb6b979a5711c36addadbc593d16672323d0e57a3572ad338585604051610798939291906123da565b60405180910390a23360009081526003820160205260409020546107f657600581018054600181018255600091825260209091200180547fffffffffffffffffffffffff000000000000000000000000000000000000000016331790555b60005b82811015610b0957600084848381811061080f57fe5b6108259260206060909202019081019150612029565b9050600085858481811061083557fe5b905060600201602001359050600086868581811061084f57fe5b73ffffffffffffffffffffffffffffffffffffffff861660009081526020898152604080832088845290915290819020546060909202939093019290920135925050806108c8576040517f08c379a000000000000000000000000000000000000000000000000000000000815260040161025f90612693565b80806001900391505060008660010182815481106108e257fe5b60009182526020808320600260039384029091010154338452918a0181526040808420815160608101835262ffffff80891682526dffffffffffffffffffffffffffff8087168387019081528b8801808316968501968752855460018181018855968b5297909920935193909601805496519551821671010000000000000000000000000000000000027fff0000000000000000000000000000ffffffffffffffffffffffffffffffffff969092166301000000027fffffffffffffffffffffffffffffff0000000000000000000000000000ffffff949093167fffffffffffffffffffffffffffffffffffffffffffffffffffffffffff0000009097169690961792909216179290921691909117909155890180549193509084908110610a0657fe5b906000526020600020906003020160020181905550888887818110610a2757fe5b610a3d9260206060909202019081019150612029565b73ffffffffffffffffffffffffffffffffffffffff1663f242432a33308c8c8b818110610a6657fe5b905060600201602001358d8d8c818110610a7c57fe5b905060600201604001358f604051602001610a979190612291565b6040516020818303038152906040526040518663ffffffff1660e01b8152600401610ac6959493929190612331565b600060405180830381600087803b158015610ae057600080fd5b505af1158015610af4573d6000803e3d6000fd5b5050600190970196506107f995505050505050565b5050505050565b60015473ffffffffffffffffffffffffffffffffffffffff163314610b61576040517f08c379a000000000000000000000000000000000000000000000000000000000815260040161025f90612955565b42610e10018311610b9e576040517f08c379a000000000000000000000000000000000000000000000000000000000815260040161025f906126f0565b60005460405181907feb019a222c1b7da6901010b3c251b88a20f3895d2d3c9d1f433cface4b93430090610bd79087908790879061298c565b60405180910390a2600080546001810182558180526008027f290decd9548b62a8d60345a988386fc84ba6bc95484008f6362f93160ef3e56a81018690557f290decd9548b62a8d60345a988386fc84ba6bc95484008f6362f93160ef3e56301905b83811015610f97576000858583818110610c4f57fe5b610c6592602060a0909202019081019150612029565b90506000868684818110610c7557fe5b73ffffffffffffffffffffffffffffffffffffffff851660009081526020888152604080832060a09094029590950181013580835292905292909220549192505080610d6857506040805160608101825273ffffffffffffffffffffffffffffffffffffffff8481168083526020808401868152600085870181815260018c8101805480830182558185528685209951600390910290990180547fffffffffffffffffffffffff0000000000000000000000000000000000000000169990981698909817875592519286019290925590516002909401939093559254908252878352838220858352909252919091208190555b84600201600060018303815260200190815260200160002060405180606001604052808a8a88818110610d9757fe5b905060a002016040016020810190610daf9190612029565b73ffffffffffffffffffffffffffffffffffffffff1681526020018a8a88818110610dd657fe5b905060a00201608001356bffffffffffffffffffffffff1681526020018a8a88818110610dff57fe5b60a002919091016060013590915250815460018082018455600093845260209384902083516002909302018054948401517fffffffffffffffffffffffff000000000000000000000000000000000000000090951673ffffffffffffffffffffffffffffffffffffffff93841617909216740100000000000000000000000000000000000000006bffffffffffffffffffffffff90951694909402939093178155604090910151910155878785818110610eb557fe5b905060a002016040016020810190610ecd9190612029565b73ffffffffffffffffffffffffffffffffffffffff1663f242432a33308b8b89818110610ef657fe5b905060a00201606001358c8c8a818110610f0c57fe5b905060a00201608001358b604051602001610f279190612291565b6040516020818303038152906040526040518663ffffffff1660e01b8152600401610f56959493929190612331565b600060405180830381600087803b158015610f7057600080fd5b505af1158015610f84573d6000803e3d6000fd5b505060019095019450610c399350505050565b505050505050565b60005490565b60015473ffffffffffffffffffffffffffffffffffffffff1690565b6000546060908210610fff576040517f08c379a000000000000000000000000000000000000000000000000000000000815260040161025f9061265c565b600080600001838154811061101057fe5b90600052602060002090600802019050611093838260050180548060200260200160405190810160405280929190818152602001828054801561108957602002820191906000526020600020905b815473ffffffffffffffffffffffffffffffffffffffff16815260019091019060200180831161105e575b5050505050611393565b9392505050565b6000805460609083106110d9576040517f08c379a000000000000000000000000000000000000000000000000000000000815260040161025f9061265c565b60008060000184815481106110ea57fe5b90600052602060002090600802019050806007015492506000805b600183015481101561112f5760008181526002840160205260409020549190910190600101611105565b508067ffffffffffffffff8111801561114757600080fd5b5060405190808252806020026020018201604052801561118157816020015b61116e611f5d565b8152602001906001900390816111665790505b5092506000805b600184015481101561138a5760008181526002850160205260408120905b8154811015611380578560010183815481106111be57fe5b6000918252602090912060039091020154875173ffffffffffffffffffffffffffffffffffffffff909116908890869081106111f657fe5b602090810291909101015173ffffffffffffffffffffffffffffffffffffffff90911690526001860180548490811061122b57fe5b90600052602060002090600302016001015487858151811061124957fe5b6020026020010151602001818152505081818154811061126557fe5b6000918252602090912060029091020154875173ffffffffffffffffffffffffffffffffffffffff9091169088908690811061129d57fe5b60200260200101516040019073ffffffffffffffffffffffffffffffffffffffff16908173ffffffffffffffffffffffffffffffffffffffff16815250508181815481106112e757fe5b90600052602060002090600202016001015487858151811061130557fe5b6020026020010151606001818152505081818154811061132157fe5b906000526020600020906002020160000160149054906101000a90046bffffffffffffffffffffffff166bffffffffffffffffffffffff1687858151811061136557fe5b602090810291909101015160800152600193840193016111a6565b5050600101611188565b50505050915091565b60005460609083106113d1576040517f08c379a000000000000000000000000000000000000000000000000000000000815260040161025f9061265c565b60008060000184815481106113e257fe5b906000526020600020906008020190504281600701541061142f576040517f08c379a000000000000000000000000000000000000000000000000000000000815260040161025f90612807565b60068101548061146b576040517f08c379a000000000000000000000000000000000000000000000000000000000815260040161025f906127aa565b6000805b6001840154811015611499576000818152600285016020526040902054919091019060010161146f565b508085510267ffffffffffffffff811180156114b457600080fd5b506040519080825280602002602001820160405280156114ee57816020015b6114db611fb8565b8152602001906001900390816114d35790505b509350506000805b855181101561181157600086828151811061150d57fe5b60209081029190910181015173ffffffffffffffffffffffffffffffffffffffff811660009081526003880190925260408220909250905b815481101561180657600082828154811061155c57fe5b600091825260208220015460018a01805462ffffff9092169350908390811061158157fe5b600091825260208083206002600390930201820154858452918c01905260408220909250905b81548110156117f6576000808383815481106115bf57fe5b60009182526020822060029091020154855473ffffffffffffffffffffffffffffffffffffffff90911692508590859081106115f757fe5b906000526020600020906002020160010154905060005b85858154811061161a57fe5b60009182526020909120600290910201547401000000000000000000000000000000000000000090046bffffffffffffffffffffffff16811015611723576000878f858585604051602001611672949392919061229a565b6040516020818303038152906040528051906020012060001c8161169257fe5b0690508a8a815481106116a157fe5b600091825260209091200154630100000090046dffffffffffffffffffffffffffff16811080159061170e57508a8a815481106116da57fe5b6000918252602090912001547101000000000000000000000000000000000090046dffffffffffffffffffffffffffff1681105b1561171a576001909401935b5060010161160e565b5082156117eb576040518060a001604052808b73ffffffffffffffffffffffffffffffffffffffff1681526020018f60040160003373ffffffffffffffffffffffffffffffffffffffff1673ffffffffffffffffffffffffffffffffffffffff16815260200190815260200160002060009054906101000a900460ff16151581526020018373ffffffffffffffffffffffffffffffffffffffff168152602001828152602001848152508f8d815181106117d957fe5b60209081029190910101526001909b019a5b5050506001016115a7565b5050600190920191506115459050565b5050506001016114f6565b50835250909392505050565b6000548110611858576040517f08c379a000000000000000000000000000000000000000000000000000000000815260040161025f9061265c565b600080600001828154811061186957fe5b90600052602060002090600802019050428160070154106118b6576040517f08c379a000000000000000000000000000000000000000000000000000000000815260040161025f90612807565b6006810154806118f2576040517f08c379a000000000000000000000000000000000000000000000000000000000815260040161025f906127aa565b33600090815260048301602052604090205460ff161561193e576040517f08c379a000000000000000000000000000000000000000000000000000000000815260040161025f9061274d565b336000908152600483016020908152604080832080547fffffffffffffffffffffffffffffffffffffffffffffffffffffffffffffff00166001179055600385019091528120905b8154811015610b0957600082828154811061199d57fe5b6000918252602082200154845463010000009091046dffffffffffffffffffffffffffff1692508490849081106119d057fe5b60009182526020822001548554710100000000000000000000000000000000009091046dffffffffffffffffffffffffffff169250859085908110611a1157fe5b600091825260208220015460018901805462ffffff90921693509083908110611a3657fe5b600091825260208083206002600390930201820154858452918b01905260408220909250905b8154811015611c4957600080838381548110611a7457fe5b60009182526020822060029091020154855473ffffffffffffffffffffffffffffffffffffffff9091169250859085908110611aac57fe5b906000526020600020906002020160010154905060005b858581548110611acf57fe5b60009182526020909120600290910201547401000000000000000000000000000000000000000090046bffffffffffffffffffffffff16811015611b6e576000878e858585604051602001611b27949392919061229a565b6040516020818303038152906040528051906020012060001c81611b4757fe5b0690508a8110158015611b5957508981105b15611b65576001909401935b50600101611ac3565b508215611c3e578d7f61dd2cf3e9f248b4453e8abb61b6ad73c53cf482d1c506f868a3885f533233cf33848487604051611bab94939291906122fb565b60405180910390a26040517ff242432a00000000000000000000000000000000000000000000000000000000815273ffffffffffffffffffffffffffffffffffffffff83169063f242432a90611c0b903090339086908990600401612455565b600060405180830381600087803b158015611c2557600080fd5b505af1158015611c39573d6000803e3d6000fd5b505050505b505050600101611a5c565b50506001909401935061198692505050565b60005460609067ffffffffffffffff81118015611c7757600080fd5b50604051908082528060200260200182016040528015611cb157816020015b611c9e611fe6565b815260200190600190039081611c965790505b5090506000805b600054811015611d37576000806000018281548110611cd357fe5b906000526020600020906008020160070154905042811115611d2e5781848481518110611cfc57fe5b6020026020010151600001818152505080848481518110611d1957fe5b60209081029190910181015101526001909201915b50600101611cb8565b50815290565b600060208214611d79576040517f08c379a000000000000000000000000000000000000000000000000000000000815260040161025f9061289b565b6000611d87838501856120e4565b6000549091508110611dc5576040517f08c379a000000000000000000000000000000000000000000000000000000000815260040161025f9061265c565b6000806000018281548110611dd657fe5b90600052602060002090600802019050600081600701549050428111611e28576040517f08c379a000000000000000000000000000000000000000000000000000000000815260040161025f906125ff565b507ff23a6e61000000000000000000000000000000000000000000000000000000009998505050505050505050565b60015473ffffffffffffffffffffffffffffffffffffffff16338114611ea9576040517f08c379a000000000000000000000000000000000000000000000000000000000815260040161025f90612955565b600180547fffffffffffffffffffffffff00000000000000000000000000000000000000001673ffffffffffffffffffffffffffffffffffffffff84811691821790925560405190918316907f8be0079c531659141344cd1fd0a4f28419497f9722a3daafe3b4186f6b6457e090600090a35050565b6040518060800160405280600073ffffffffffffffffffffffffffffffffffffffff1681526020016000815260200160008152602001600081525090565b6040518060a00160405280600073ffffffffffffffffffffffffffffffffffffffff16815260200160008152602001600073ffffffffffffffffffffffffffffffffffffffff16815260200160008152602001600081525090565b6040805160a08101825260008082526020820181905291810182905260608101829052608081019190915290565b604051806040016040528060008152602001600081525090565b803573ffffffffffffffffffffffffffffffffffffffff8116811461202457600080fd5b919050565b60006020828403121561203a578081fd5b61109382612000565b60008060008060008060a0878903121561205b578182fd5b61206487612000565b955061207260208801612000565b94506040870135935060608701359250608087013567ffffffffffffffff8082111561209c578384fd5b818901915089601f8301126120af578384fd5b8135818111156120bd578485fd5b8a60208285010111156120ce578485fd5b6020830194508093505050509295509295509295565b6000602082840312156120f5578081fd5b5035919050565b6000806040838503121561210e578182fd5b8235915060208084013567ffffffffffffffff8082111561212d578384fd5b818601915086601f830112612140578384fd5b81358181111561214c57fe5b838102915061215c848301612ab2565b8181528481019084860184860187018b1015612176578788fd5b8795505b8386101561219f5761218b81612000565b83526001959095019491860191860161217a565b508096505050505050509250929050565b6000806000604084860312156121c4578283fd5b83359250602084013567ffffffffffffffff808211156121e2578384fd5b818601915086601f8301126121f5578384fd5b813581811115612203578485fd5b87602060a083028501011115612217578485fd5b6020830194508093505050509250925092565b60008060006040848603121561223e578283fd5b83359250602084013567ffffffffffffffff8082111561225c578384fd5b818601915086601f83011261226f578384fd5b81358181111561227d578485fd5b876020606083028501011115612217578485fd5b90815260200190565b93845260609290921b7fffffffffffffffffffffffffffffffffffffffff0000000000000000000000001660208401526034830152605482015260740190565b73ffffffffffffffffffffffffffffffffffffffff91909116815260200190565b73ffffffffffffffffffffffffffffffffffffffff94851681529290931660208301526040820152606081019190915260800190565b600073ffffffffffffffffffffffffffffffffffffffff808816835260208188168185015286604085015285606085015260a06080850152845191508160a0850152825b828110156123915785810182015185820160c001528101612375565b828111156123a2578360c084870101525b5050601f017fffffffffffffffffffffffffffffffffffffffffffffffffffffffffffffffe0169190910160c0019695505050505050565b73ffffffffffffffffffffffffffffffffffffffff84811682526040602080840182905283820185905260009260609182860188865b89811015612445578461242283612000565b168352818401358484015286820135878401529185019190850190600101612410565b50909a9950505050505050505050565b73ffffffffffffffffffffffffffffffffffffffff94851681529290931660208301526040820152606081019190915260a06080820181905260009082015260c00190565b602080825282518282018190526000919060409081850190868401855b828110156124dc578151805185528601518685015292840192908501906001016124b7565b5091979650505050505050565b602080825282518282018190526000919060409081850190868401855b828110156124dc578151805173ffffffffffffffffffffffffffffffffffffffff168552868101518786015285810151868601526060908101519085015260809093019290850190600101612506565b602080825282518282018190526000919060409081850190868401855b828110156124dc578151805173ffffffffffffffffffffffffffffffffffffffff908116865287820151151588870152868201511686860152606080820151908601526080908101519085015260a09093019290850190600101612573565b7fffffffff0000000000000000000000000000000000000000000000000000000091909116815260200190565b60208082526030908201527f526166666c653a2043616e277420616363657074207472616e7366657220666f60408201527f72206578706972656420726166666c6500000000000000000000000000000000606082015260800190565b6020808252601d908201527f526166666c653a20526166666c6520646f6573206e6f74206578697374000000604082015260600190565b60208082526030908201527f526166666c653a205374616b65206974656d20646f65736e277420657869737460408201527f20666f72207468697320726166666c6500000000000000000000000000000000606082015260800190565b6020808252602e908201527f526166666c653a205f726166666c65456e64206d75737420626520677265617460408201527f6572207468616e203120686f7572000000000000000000000000000000000000606082015260800190565b60208082526038908201527f526166666c653a20416e79207072697a657320666f72206163636f756e74206860408201527f61766520616c7265616479206265656e20636c61696d65640000000000000000606082015260800190565b60208082526027908201527f526166666c653a2052616e646f6d206e756d626572206e6f742067656e65726160408201527f7465642079657400000000000000000000000000000000000000000000000000606082015260800190565b60208082526023908201527f526166666c653a20526166666c652074696d6520686173206e6f74206578706960408201527f7265640000000000000000000000000000000000000000000000000000000000606082015260800190565b6020808252601f908201527f526166666c653a20526166666c652074696d6520686173206578706972656400604082015260600190565b60208082526027908201527f526166666c653a20496e636f727265637420646174612073656e74206f6e207460408201527f72616e7366657200000000000000000000000000000000000000000000000000606082015260800190565b60208082526027908201527f526166666c653a2052616e646f6d206e756d62657220616c726561647920676560408201527f6e65726174656400000000000000000000000000000000000000000000000000606082015260800190565b6020808252601e908201527f526166666c653a204d75737420626520636f6e7472616374206f776e65720000604082015260600190565b838152604060208083018290528282018490526000919060609081850187855b88811015612a145773ffffffffffffffffffffffffffffffffffffffff806129d384612000565b1684528483013585850152806129ea888501612000565b16848801525081850135858401526080808301359084015260a092830192909101906001016129ac565b50909998505050505050505050565b6000604080830185845260208281860152818651808452606093508387019150828801865b82811015612aa3578151805173ffffffffffffffffffffffffffffffffffffffff9081168652868201518787015288820151168886015286810151878601526080908101519085015260a09093019290840190600101612a48565b50919998505050505050505050565b60405181810167ffffffffffffffff81118282101715612ace57fe5b60405291905056fea264697066735822122083d82128229c7a5b24fbef0259604b7f3b14151f50e1522d2e1fe27124545ea064736f6c63430007040033",
  "linkReferences": {},
  "deployedLinkReferences": {}
}