{
  "_format": "hh-sol-artifact-1",
  "contractName": "RaffleContract",
  "sourceName": "contracts/RaffleContract.sol",
  "abi": [
    {
      "inputs": [
        {
          "internalType": "address",
          "name": "_contractOwner",
          "type": "address"
        }
      ],
      "stateMutability": "nonpayable",
      "type": "constructor"
    },
    {
      "anonymous": false,
      "inputs": [
        {
          "indexed": true,
          "internalType": "address",
          "name": "previousOwner",
          "type": "address"
        },
        {
          "indexed": true,
          "internalType": "address",
          "name": "newOwner",
          "type": "address"
        }
      ],
      "name": "OwnershipTransferred",
      "type": "event"
    },
    {
      "anonymous": false,
      "inputs": [
        {
          "indexed": true,
          "internalType": "uint256",
          "name": "raffleId",
          "type": "uint256"
        },
        {
          "indexed": false,
          "internalType": "address",
          "name": "staker",
          "type": "address"
        },
        {
          "indexed": false,
          "internalType": "address",
          "name": "prizeAddress",
          "type": "address"
        },
        {
          "indexed": false,
          "internalType": "uint256",
          "name": "prizeId",
          "type": "uint256"
        },
        {
          "indexed": false,
          "internalType": "uint256",
          "name": "prizeValue",
          "type": "uint256"
        }
      ],
      "name": "RaffleClaimPrize",
      "type": "event"
    },
    {
      "anonymous": false,
      "inputs": [
        {
          "indexed": true,
          "internalType": "uint256",
          "name": "raffleId",
          "type": "uint256"
        },
        {
          "indexed": false,
          "internalType": "uint256",
          "name": "randomNumber",
          "type": "uint256"
        }
      ],
      "name": "RaffleRandomNumber",
      "type": "event"
    },
    {
      "anonymous": false,
      "inputs": [
        {
          "indexed": true,
          "internalType": "uint256",
          "name": "raffleId",
          "type": "uint256"
        },
        {
          "indexed": false,
          "internalType": "address",
          "name": "staker",
          "type": "address"
        },
        {
          "components": [
            {
              "internalType": "address",
              "name": "stakeAddress",
              "type": "address"
            },
            {
              "internalType": "uint256",
              "name": "stakeId",
              "type": "uint256"
            },
            {
              "internalType": "uint256",
              "name": "stakeValue",
              "type": "uint256"
            }
          ],
          "indexed": false,
          "internalType": "struct RaffleContract.StakeItemInput[]",
          "name": "stakeItems",
          "type": "tuple[]"
        }
      ],
      "name": "RaffleStaker",
      "type": "event"
    },
    {
      "anonymous": false,
      "inputs": [
        {
          "indexed": true,
          "internalType": "uint256",
          "name": "raffleId",
          "type": "uint256"
        },
        {
          "indexed": false,
          "internalType": "uint256",
          "name": "raffleEnd",
          "type": "uint256"
        },
        {
          "components": [
            {
              "internalType": "address",
              "name": "stakeAddress",
              "type": "address"
            },
            {
              "internalType": "uint256",
              "name": "stakeId",
              "type": "uint256"
            },
            {
              "internalType": "address",
              "name": "prizeAddress",
              "type": "address"
            },
            {
              "internalType": "uint256",
              "name": "prizeId",
              "type": "uint256"
            },
            {
              "internalType": "uint256",
              "name": "prizeValue",
              "type": "uint256"
            }
          ],
          "indexed": false,
          "internalType": "struct RaffleItem[]",
          "name": "raffleItems",
          "type": "tuple[]"
        }
      ],
      "name": "RaffleStarted",
      "type": "event"
    },
    {
      "inputs": [
        {
          "internalType": "uint256",
          "name": "_raffleId",
          "type": "uint256"
        }
      ],
      "name": "claimPrize",
      "outputs": [],
      "stateMutability": "nonpayable",
      "type": "function"
    },
    {
      "inputs": [
        {
          "internalType": "uint256",
          "name": "_raffleId",
          "type": "uint256"
        }
      ],
      "name": "drawRandomNumber",
      "outputs": [],
      "stateMutability": "nonpayable",
      "type": "function"
    },
    {
      "inputs": [
        {
          "internalType": "address",
          "name": "_operator",
          "type": "address"
        },
        {
          "internalType": "address",
          "name": "_from",
          "type": "address"
        },
        {
          "internalType": "uint256",
          "name": "_id",
          "type": "uint256"
        },
        {
          "internalType": "uint256",
          "name": "_value",
          "type": "uint256"
        },
        {
          "internalType": "bytes",
          "name": "_data",
          "type": "bytes"
        }
      ],
      "name": "onERC1155Received",
      "outputs": [
        {
          "internalType": "bytes4",
          "name": "",
          "type": "bytes4"
        }
      ],
      "stateMutability": "view",
      "type": "function"
    },
    {
      "inputs": [],
      "name": "openRaffles",
      "outputs": [
        {
          "components": [
            {
              "internalType": "uint256",
              "name": "raffleId",
              "type": "uint256"
            },
            {
              "internalType": "uint256",
              "name": "raffleEnd",
              "type": "uint256"
            }
          ],
          "internalType": "struct RaffleContract.OpenRaffle[]",
          "name": "openRaffles_",
          "type": "tuple[]"
        }
      ],
      "stateMutability": "view",
      "type": "function"
    },
    {
      "inputs": [],
      "name": "owner",
      "outputs": [
        {
          "internalType": "address",
          "name": "",
          "type": "address"
        }
      ],
      "stateMutability": "view",
      "type": "function"
    },
    {
      "inputs": [
        {
          "internalType": "uint256",
          "name": "_raffleId",
          "type": "uint256"
        }
      ],
      "name": "raffleInfo",
      "outputs": [
        {
          "internalType": "uint256",
          "name": "raffleEnd_",
          "type": "uint256"
        },
        {
          "components": [
            {
              "internalType": "address",
              "name": "stakeAddress",
              "type": "address"
            },
            {
              "internalType": "uint256",
              "name": "stakeId",
              "type": "uint256"
            },
            {
              "internalType": "address",
              "name": "prizeAddress",
              "type": "address"
            },
            {
              "internalType": "uint256",
              "name": "prizeId",
              "type": "uint256"
            },
            {
              "internalType": "uint256",
              "name": "prizeValue",
              "type": "uint256"
            }
          ],
          "internalType": "struct RaffleItem[]",
          "name": "raffleItems_",
          "type": "tuple[]"
        }
      ],
      "stateMutability": "view",
      "type": "function"
    },
    {
      "inputs": [],
      "name": "raffleSupply",
      "outputs": [
        {
          "internalType": "uint256",
          "name": "raffleSupply_",
          "type": "uint256"
        }
      ],
      "stateMutability": "view",
      "type": "function"
    },
    {
      "inputs": [
        {
          "internalType": "uint256",
          "name": "_raffleId",
          "type": "uint256"
        },
        {
          "components": [
            {
              "internalType": "address",
              "name": "stakeAddress",
              "type": "address"
            },
            {
              "internalType": "uint256",
              "name": "stakeId",
              "type": "uint256"
            },
            {
              "internalType": "uint256",
              "name": "stakeValue",
              "type": "uint256"
            }
          ],
          "internalType": "struct RaffleContract.StakeItemInput[]",
          "name": "_stakeItems",
          "type": "tuple[]"
        }
      ],
      "name": "stake",
      "outputs": [],
      "stateMutability": "nonpayable",
      "type": "function"
    },
    {
      "inputs": [
        {
          "internalType": "uint256",
          "name": "_raffleId",
          "type": "uint256"
        }
      ],
      "name": "stakerStats",
      "outputs": [
        {
          "components": [
            {
              "internalType": "address",
              "name": "stakeAddress",
              "type": "address"
            },
            {
              "internalType": "uint256",
              "name": "stakeId",
              "type": "uint256"
            },
            {
              "internalType": "uint256",
              "name": "numberOfStakers",
              "type": "uint256"
            },
            {
              "internalType": "uint256",
              "name": "stakeTotal",
              "type": "uint256"
            }
          ],
          "internalType": "struct RaffleContract.StakerStats[]",
          "name": "stakerStats_",
          "type": "tuple[]"
        }
      ],
      "stateMutability": "view",
      "type": "function"
    },
    {
      "inputs": [
        {
          "internalType": "uint256",
          "name": "_raffleEnd",
          "type": "uint256"
        },
        {
          "components": [
            {
              "internalType": "address",
              "name": "stakeAddress",
              "type": "address"
            },
            {
              "internalType": "uint256",
              "name": "stakeId",
              "type": "uint256"
            },
            {
              "internalType": "address",
              "name": "prizeAddress",
              "type": "address"
            },
            {
              "internalType": "uint256",
              "name": "prizeId",
              "type": "uint256"
            },
            {
              "internalType": "uint256",
              "name": "prizeValue",
              "type": "uint256"
            }
          ],
          "internalType": "struct RaffleItem[]",
          "name": "_raffleItems",
          "type": "tuple[]"
        }
      ],
      "name": "startRaffle",
      "outputs": [],
      "stateMutability": "nonpayable",
      "type": "function"
    },
    {
      "inputs": [
        {
          "internalType": "address",
          "name": "_newContractOwner",
          "type": "address"
        }
      ],
      "name": "transferOwnership",
      "outputs": [],
      "stateMutability": "nonpayable",
      "type": "function"
    },
    {
      "inputs": [
        {
          "internalType": "uint256",
          "name": "_raffleId",
          "type": "uint256"
        }
      ],
      "name": "winners",
      "outputs": [
        {
          "components": [
            {
              "internalType": "address",
              "name": "staker",
              "type": "address"
            },
            {
              "internalType": "bool",
              "name": "claimed",
              "type": "bool"
            },
            {
              "internalType": "address",
              "name": "prizeAddress",
              "type": "address"
            },
            {
              "internalType": "uint256",
              "name": "prizeId",
              "type": "uint256"
            },
            {
              "internalType": "uint256",
              "name": "prizeValue",
              "type": "uint256"
            }
          ],
          "internalType": "struct RaffleContract.Winner[]",
          "name": "winners_",
          "type": "tuple[]"
        }
      ],
      "stateMutability": "view",
      "type": "function"
    },
    {
      "inputs": [
        {
          "internalType": "uint256",
          "name": "_raffleId",
          "type": "uint256"
        },
        {
          "internalType": "address[]",
          "name": "_stakers",
          "type": "address[]"
        }
      ],
      "name": "winners",
      "outputs": [
        {
          "components": [
            {
              "internalType": "address",
              "name": "staker",
              "type": "address"
            },
            {
              "internalType": "bool",
              "name": "claimed",
              "type": "bool"
            },
            {
              "internalType": "address",
              "name": "prizeAddress",
              "type": "address"
            },
            {
              "internalType": "uint256",
              "name": "prizeId",
              "type": "uint256"
            },
            {
              "internalType": "uint256",
              "name": "prizeValue",
              "type": "uint256"
            }
          ],
          "internalType": "struct RaffleContract.Winner[]",
          "name": "winners_",
          "type": "tuple[]"
        }
      ],
      "stateMutability": "view",
      "type": "function"
    }
  ],
  "bytecode": "0x60806040523480156200001157600080fd5b5060405162002c0438038062002c0483398101604081905262000034916200005a565b600180546001600160a01b0319166001600160a01b03929092169190911790556200008a565b6000602082840312156200006c578081fd5b81516001600160a01b038116811462000083578182fd5b9392505050565b612b6a806200009a6000396000f3fe608060405234801561001057600080fd5b50600436106100df5760003560e01c8063a2fb11751161008c578063d709815411610066578063d7098154146101c6578063df745925146101d9578063f23a6e61146101ee578063f2fde38b1461020e576100df565b8063a2fb117514610172578063bf30d79014610192578063d1a4692a146101b3576100df565b8063553d6833116100bd578063553d683314610135578063599d127a146101485780638da5cb5b1461015d576100df565b80630da31f46146100e4578063339a64031461010d57806351a749f314610122575b600080fd5b6100f76100f2366004612142565b610221565b6040516101049190612547565b60405180910390f35b61012061011b366004612142565b610569565b005b610120610130366004612288565b6106cb565b61012061014336600461220e565b610b10565b610150610fbd565b60405161010491906122ef565b610165610fc3565b6040516101049190612338565b610185610180366004612142565b610fdf565b60405161010491906125b4565b6101a56101a0366004612142565b6110b8565b604051610104929190612a81565b6101856101c136600461215a565b6113f5565b6101206101d4366004612142565b61187d565b6101e1611cb9565b60405161010491906124f8565b6102016101fc3660046120a1565b611d9b565b6040516101049190612630565b61012061021c366004612087565b611eb5565b6000546060908210610268576040517f08c379a000000000000000000000000000000000000000000000000000000000815260040161025f906126ba565b60405180910390fd5b600080600001838154811061027957fe5b90600052602060002090600802019050806001018054905067ffffffffffffffff811180156102a757600080fd5b506040519080825280602002602001820160405280156102e157816020015b6102ce611f7d565b8152602001906001900390816102c65790505b50915060005b60018201548110156105625781600101818154811061030257fe5b6000918252602090912060039091020154835173ffffffffffffffffffffffffffffffffffffffff9091169084908390811061033a57fe5b602090810291909101015173ffffffffffffffffffffffffffffffffffffffff90911690526001820180548290811061036f57fe5b90600052602060002090600302016001015483828151811061038d57fe5b602002602001015160200181815250508160010181815481106103ac57fe5b9060005260206000209060030201600201548382815181106103ca57fe5b60200260200101516060018181525050600060018360000160008685815181106103f057fe5b60200260200101516000015173ffffffffffffffffffffffffffffffffffffffff1673ffffffffffffffffffffffffffffffffffffffff168152602001908152602001600020600086858151811061044457fe5b60200260200101516020015181526020019081526020016000205403905060005b600584015481101561055857600084600501828154811061048257fe5b600091825260208220015473ffffffffffffffffffffffffffffffffffffffff1691505b73ffffffffffffffffffffffffffffffffffffffff8216600090815260038701602052604090205481101561054e5773ffffffffffffffffffffffffffffffffffffffff82166000908152600387016020526040902080548290811061050857fe5b60009182526020909120015462ffffff168414156105465786858151811061052c57fe5b60209081029190910101516040018051600101905261054e565b6001016104a6565b5050600101610465565b50506001016102e7565b5050919050565b60005481106105a4576040517f08c379a000000000000000000000000000000000000000000000000000000000815260040161025f906126ba565b60008060000182815481106105b557fe5b9060005260206000209060080201905042816007015410610602576040517f08c379a000000000000000000000000000000000000000000000000000000000815260040161025f90612865565b60068101541561063e576040517f08c379a000000000000000000000000000000000000000000000000000000000815260040161025f90612956565b60004360405160200161065191906122ef565b6040516020818303038152906040528051906020012060001c7bffffffffffffffffffffffffffffffffffffffffffffffffffffffff169050827f37e68548bed90aa11745696116f838a60b0bba40fc3f77a139aee9e3b828a08e826040516106ba91906122ef565b60405180910390a260069091015550565b6000548310610706576040517f08c379a000000000000000000000000000000000000000000000000000000000815260040161025f906126ba565b600080600001848154811061071757fe5b9060005260206000209060080201905042816007015411610764576040517f08c379a000000000000000000000000000000000000000000000000000000000815260040161025f906128c2565b837f2efd8659d1439ae776eb6b979a5711c36addadbc593d16672323d0e57a3572ad33858560405161079893929190612438565b60405180910390a23360009081526003820160205260409020546107f657600581018054600181018255600091825260209091200180547fffffffffffffffffffffffff000000000000000000000000000000000000000016331790555b60005b82811015610b0957600084848381811061080f57fe5b6108259260206060909202019081019150612087565b9050600085858481811061083557fe5b905060600201602001359050600086868581811061084f57fe5b73ffffffffffffffffffffffffffffffffffffffff861660009081526020898152604080832088845290915290819020546060909202939093019290920135925050806108c8576040517f08c379a000000000000000000000000000000000000000000000000000000000815260040161025f906126f1565b80806001900391505060008660010182815481106108e257fe5b60009182526020808320600260039384029091010154338452918a0181526040808420815160608101835262ffffff80891682526dffffffffffffffffffffffffffff8087168387019081528b8801808316968501968752855460018181018855968b5297909920935193909601805496519551821671010000000000000000000000000000000000027fff0000000000000000000000000000ffffffffffffffffffffffffffffffffff969092166301000000027fffffffffffffffffffffffffffffff0000000000000000000000000000ffffff949093167fffffffffffffffffffffffffffffffffffffffffffffffffffffffffff0000009097169690961792909216179290921691909117909155890180549193509084908110610a0657fe5b906000526020600020906003020160020181905550888887818110610a2757fe5b610a3d9260206060909202019081019150612087565b73ffffffffffffffffffffffffffffffffffffffff1663f242432a33308c8c8b818110610a6657fe5b905060600201602001358d8d8c818110610a7c57fe5b905060600201604001358f604051602001610a9791906122ef565b6040516020818303038152906040526040518663ffffffff1660e01b8152600401610ac695949392919061238f565b600060405180830381600087803b158015610ae057600080fd5b505af1158015610af4573d6000803e3d6000fd5b5050600190970196506107f995505050505050565b5050505050565b60015473ffffffffffffffffffffffffffffffffffffffff163314610b61576040517f08c379a000000000000000000000000000000000000000000000000000000000815260040161025f906129b3565b42610e10018311610b9e576040517f08c379a000000000000000000000000000000000000000000000000000000000815260040161025f9061274e565b60005460405181907feb019a222c1b7da6901010b3c251b88a20f3895d2d3c9d1f433cface4b93430090610bd7908790879087906129ea565b60405180910390a2600080546001810182558180526008027f290decd9548b62a8d60345a988386fc84ba6bc95484008f6362f93160ef3e56a81018690557f290decd9548b62a8d60345a988386fc84ba6bc95484008f6362f93160ef3e56301905b83811015610fb5576000858583818110610c4f57fe5b610c6592602060a0909202019081019150612087565b90506000868684818110610c7557fe5b73ffffffffffffffffffffffffffffffffffffffff851660009081526020888152604080832060a09094029590950181013580835292905292909220549192505080610d6857506040805160608101825273ffffffffffffffffffffffffffffffffffffffff8481168083526020808401868152600085870181815260018c8101805480830182558185528685209951600390910290990180547fffffffffffffffffffffffff0000000000000000000000000000000000000000169990981698909817875592519286019290925590516002909401939093559254908252878352838220858352909252919091208190555b84600201600060018303815260200190815260200160002060405180606001604052808a8a88818110610d9757fe5b905060a002016040016020810190610daf9190612087565b73ffffffffffffffffffffffffffffffffffffffff1681526020018a8a88818110610dd657fe5b905060a002016080013569ffffffffffffffffffff1681526020018a8a88818110610dfd57fe5b60a002919091016060013590915250815460018082018455600093845260209384902083516002909302018054948401517fffffffffffffffffffffffff000000000000000000000000000000000000000090951673ffffffffffffffffffffffffffffffffffffffff909316929092177fffff00000000000000000000ffffffffffffffffffffffffffffffffffffffff167401000000000000000000000000000000000000000069ffffffffffffffffffff90951694909402939093178155604090910151910155878785818110610ed357fe5b905060a002016040016020810190610eeb9190612087565b73ffffffffffffffffffffffffffffffffffffffff1663f242432a33308b8b89818110610f1457fe5b905060a00201606001358c8c8a818110610f2a57fe5b905060a00201608001358b604051602001610f4591906122ef565b6040516020818303038152906040526040518663ffffffff1660e01b8152600401610f7495949392919061238f565b600060405180830381600087803b158015610f8e57600080fd5b505af1158015610fa2573d6000803e3d6000fd5b505060019095019450610c399350505050565b505050505050565b60005490565b60015473ffffffffffffffffffffffffffffffffffffffff1690565b600054606090821061101d576040517f08c379a000000000000000000000000000000000000000000000000000000000815260040161025f906126ba565b600080600001838154811061102e57fe5b906000526020600020906008020190506110b183826005018054806020026020016040519081016040528092919081815260200182805480156110a757602002820191906000526020600020905b815473ffffffffffffffffffffffffffffffffffffffff16815260019091019060200180831161107c575b50505050506113f5565b9392505050565b6000805460609083106110f7576040517f08c379a000000000000000000000000000000000000000000000000000000000815260040161025f906126ba565b600080600001848154811061110857fe5b90600052602060002090600802019050806007015492506000805b600183015481101561114d5760008181526002840160205260409020549190910190600101611123565b508067ffffffffffffffff8111801561116557600080fd5b5060405190808252806020026020018201604052801561119f57816020015b61118c611fbb565b8152602001906001900390816111845790505b5092506000805b60018401548110156113ec5760008181526002850160205260408120905b81548110156113e2578560010183815481106111dc57fe5b6000918252602090912060039091020154875173ffffffffffffffffffffffffffffffffffffffff9091169088908690811061121457fe5b602090810291909101015173ffffffffffffffffffffffffffffffffffffffff90911690526001860180548490811061124957fe5b90600052602060002090600302016001015487858151811061126757fe5b6020026020010151602001818152505081818154811061128357fe5b6000918252602090912060029091020154875173ffffffffffffffffffffffffffffffffffffffff909116908890869081106112bb57fe5b60200260200101516040019073ffffffffffffffffffffffffffffffffffffffff16908173ffffffffffffffffffffffffffffffffffffffff168152505081818154811061130557fe5b6000918252602090912060029091020154875173ffffffffffffffffffffffffffffffffffffffff9091169088908690811061133d57fe5b60200260200101516040019073ffffffffffffffffffffffffffffffffffffffff16908173ffffffffffffffffffffffffffffffffffffffff168152505081818154811061138757fe5b906000526020600020906002020160000160149054906101000a900469ffffffffffffffffffff1669ffffffffffffffffffff168785815181106113c757fe5b602090810291909101015160800152600193840193016111c4565b50506001016111a6565b50505050915091565b6000546060908310611433576040517f08c379a000000000000000000000000000000000000000000000000000000000815260040161025f906126ba565b600080600001848154811061144457fe5b9060005260206000209060080201905042816007015410611491576040517f08c379a000000000000000000000000000000000000000000000000000000000815260040161025f90612865565b6006810154806114cd576040517f08c379a000000000000000000000000000000000000000000000000000000000815260040161025f90612808565b6000805b60018401548110156114fb57600081815260028501602052604090205491909101906001016114d1565b508085510267ffffffffffffffff8111801561151657600080fd5b5060405190808252806020026020018201604052801561155057816020015b61153d612016565b8152602001906001900390816115355790505b509350506000805b855181101561187157600086828151811061156f57fe5b60209081029190910181015173ffffffffffffffffffffffffffffffffffffffff811660009081526003880190925260408220909250905b81548110156118665760008282815481106115be57fe5b600091825260208220015460018a01805462ffffff909216935090839081106115e357fe5b600091825260208083206002600390930201820154858452918c01905260408220909250905b81548110156118565760008083838154811061162157fe5b60009182526020822060029091020154855473ffffffffffffffffffffffffffffffffffffffff909116925085908590811061165957fe5b906000526020600020906002020160010154905060005b85858154811061167c57fe5b600091825260209091206002909102015474010000000000000000000000000000000000000000900469ffffffffffffffffffff16811015611783576000878f8585856040516020016116d294939291906122f8565b6040516020818303038152906040528051906020012060001c816116f257fe5b0690508a8a8154811061170157fe5b600091825260209091200154630100000090046dffffffffffffffffffffffffffff16811080159061176e57508a8a8154811061173a57fe5b6000918252602090912001547101000000000000000000000000000000000090046dffffffffffffffffffffffffffff1681105b1561177a576001909401935b50600101611670565b50821561184b576040518060a001604052808b73ffffffffffffffffffffffffffffffffffffffff1681526020018f60040160003373ffffffffffffffffffffffffffffffffffffffff1673ffffffffffffffffffffffffffffffffffffffff16815260200190815260200160002060009054906101000a900460ff16151581526020018373ffffffffffffffffffffffffffffffffffffffff168152602001828152602001848152508f8d8151811061183957fe5b60209081029190910101526001909b019a5b505050600101611609565b5050600190920191506115a79050565b505050600101611558565b50835250909392505050565b60005481106118b8576040517f08c379a000000000000000000000000000000000000000000000000000000000815260040161025f906126ba565b60008060000182815481106118c957fe5b9060005260206000209060080201905042816007015410611916576040517f08c379a000000000000000000000000000000000000000000000000000000000815260040161025f90612865565b600681015480611952576040517f08c379a000000000000000000000000000000000000000000000000000000000815260040161025f90612808565b33600090815260048301602052604090205460ff161561199e576040517f08c379a000000000000000000000000000000000000000000000000000000000815260040161025f906127ab565b336000908152600483016020908152604080832080547fffffffffffffffffffffffffffffffffffffffffffffffffffffffffffffff00166001179055600385019091528120905b8154811015610b095760008282815481106119fd57fe5b6000918252602082200154845463010000009091046dffffffffffffffffffffffffffff169250849084908110611a3057fe5b60009182526020822001548554710100000000000000000000000000000000009091046dffffffffffffffffffffffffffff169250859085908110611a7157fe5b600091825260208220015460018901805462ffffff90921693509083908110611a9657fe5b600091825260208083206002600390930201820154858452918b01905260408220909250905b8154811015611ca757600080838381548110611ad457fe5b60009182526020822060029091020154855473ffffffffffffffffffffffffffffffffffffffff9091169250859085908110611b0c57fe5b906000526020600020906002020160010154905060005b858581548110611b2f57fe5b600091825260209091206002909102015474010000000000000000000000000000000000000000900469ffffffffffffffffffff16811015611bcc576000878e858585604051602001611b8594939291906122f8565b6040516020818303038152906040528051906020012060001c81611ba557fe5b0690508a8110158015611bb757508981105b15611bc3576001909401935b50600101611b23565b508215611c9c578d7f61dd2cf3e9f248b4453e8abb61b6ad73c53cf482d1c506f868a3885f533233cf33848487604051611c099493929190612359565b60405180910390a26040517ff242432a00000000000000000000000000000000000000000000000000000000815273ffffffffffffffffffffffffffffffffffffffff83169063f242432a90611c699030903390869089906004016124b3565b600060405180830381600087803b158015611c8357600080fd5b505af1158015611c97573d6000803e3d6000fd5b505050505b505050600101611abc565b5050600190940193506119e692505050565b60005460609067ffffffffffffffff81118015611cd557600080fd5b50604051908082528060200260200182016040528015611d0f57816020015b611cfc612044565b815260200190600190039081611cf45790505b5090506000805b600054811015611d95576000806000018281548110611d3157fe5b906000526020600020906008020160070154905042811115611d8c5781848481518110611d5a57fe5b6020026020010151600001818152505080848481518110611d7757fe5b60209081029190910181015101526001909201915b50600101611d16565b50815290565b600060208214611dd7576040517f08c379a000000000000000000000000000000000000000000000000000000000815260040161025f906128f9565b6000611de583850185612142565b6000549091508110611e23576040517f08c379a000000000000000000000000000000000000000000000000000000000815260040161025f906126ba565b6000806000018281548110611e3457fe5b90600052602060002090600802019050600081600701549050428111611e86576040517f08c379a000000000000000000000000000000000000000000000000000000000815260040161025f9061265d565b507ff23a6e61000000000000000000000000000000000000000000000000000000009998505050505050505050565b60015473ffffffffffffffffffffffffffffffffffffffff16338114611f07576040517f08c379a000000000000000000000000000000000000000000000000000000000815260040161025f906129b3565b600180547fffffffffffffffffffffffff00000000000000000000000000000000000000001673ffffffffffffffffffffffffffffffffffffffff84811691821790925560405190918316907f8be0079c531659141344cd1fd0a4f28419497f9722a3daafe3b4186f6b6457e090600090a35050565b6040518060800160405280600073ffffffffffffffffffffffffffffffffffffffff1681526020016000815260200160008152602001600081525090565b6040518060a00160405280600073ffffffffffffffffffffffffffffffffffffffff16815260200160008152602001600073ffffffffffffffffffffffffffffffffffffffff16815260200160008152602001600081525090565b6040805160a08101825260008082526020820181905291810182905260608101829052608081019190915290565b604051806040016040528060008152602001600081525090565b803573ffffffffffffffffffffffffffffffffffffffff8116811461208257600080fd5b919050565b600060208284031215612098578081fd5b6110b18261205e565b60008060008060008060a087890312156120b9578182fd5b6120c28761205e565b95506120d06020880161205e565b94506040870135935060608701359250608087013567ffffffffffffffff808211156120fa578384fd5b818901915089601f83011261210d578384fd5b81358181111561211b578485fd5b8a602082850101111561212c578485fd5b6020830194508093505050509295509295509295565b600060208284031215612153578081fd5b5035919050565b6000806040838503121561216c578182fd5b8235915060208084013567ffffffffffffffff8082111561218b578384fd5b818601915086601f83011261219e578384fd5b8135818111156121aa57fe5b83810291506121ba848301612b10565b8181528481019084860184860187018b10156121d4578788fd5b8795505b838610156121fd576121e98161205e565b8352600195909501949186019186016121d8565b508096505050505050509250929050565b600080600060408486031215612222578283fd5b83359250602084013567ffffffffffffffff80821115612240578384fd5b818601915086601f830112612253578384fd5b813581811115612261578485fd5b87602060a083028501011115612275578485fd5b6020830194508093505050509250925092565b60008060006040848603121561229c578283fd5b83359250602084013567ffffffffffffffff808211156122ba578384fd5b818601915086601f8301126122cd578384fd5b8135818111156122db578485fd5b876020606083028501011115612275578485fd5b90815260200190565b93845260609290921b7fffffffffffffffffffffffffffffffffffffffff0000000000000000000000001660208401526034830152605482015260740190565b73ffffffffffffffffffffffffffffffffffffffff91909116815260200190565b73ffffffffffffffffffffffffffffffffffffffff94851681529290931660208301526040820152606081019190915260800190565b600073ffffffffffffffffffffffffffffffffffffffff808816835260208188168185015286604085015285606085015260a06080850152845191508160a0850152825b828110156123ef5785810182015185820160c0015281016123d3565b82811115612400578360c084870101525b5050601f017fffffffffffffffffffffffffffffffffffffffffffffffffffffffffffffffe0169190910160c0019695505050505050565b73ffffffffffffffffffffffffffffffffffffffff84811682526040602080840182905283820185905260009260609182860188865b898110156124a357846124808361205e565b16835281840135848401528682013587840152918501919085019060010161246e565b50909a9950505050505050505050565b73ffffffffffffffffffffffffffffffffffffffff94851681529290931660208301526040820152606081019190915260a06080820181905260009082015260c00190565b602080825282518282018190526000919060409081850190868401855b8281101561253a57815180518552860151868501529284019290850190600101612515565b5091979650505050505050565b602080825282518282018190526000919060409081850190868401855b8281101561253a578151805173ffffffffffffffffffffffffffffffffffffffff168552868101518786015285810151868601526060908101519085015260809093019290850190600101612564565b602080825282518282018190526000919060409081850190868401855b8281101561253a578151805173ffffffffffffffffffffffffffffffffffffffff908116865287820151151588870152868201511686860152606080820151908601526080908101519085015260a090930192908501906001016125d1565b7fffffffff0000000000000000000000000000000000000000000000000000000091909116815260200190565b60208082526030908201527f526166666c653a2043616e277420616363657074207472616e7366657220666f60408201527f72206578706972656420726166666c6500000000000000000000000000000000606082015260800190565b6020808252601d908201527f526166666c653a20526166666c6520646f6573206e6f74206578697374000000604082015260600190565b60208082526030908201527f526166666c653a205374616b65206974656d20646f65736e277420657869737460408201527f20666f72207468697320726166666c6500000000000000000000000000000000606082015260800190565b6020808252602e908201527f526166666c653a205f726166666c65456e64206d75737420626520677265617460408201527f6572207468616e203120686f7572000000000000000000000000000000000000606082015260800190565b60208082526038908201527f526166666c653a20416e79207072697a657320666f72206163636f756e74206860408201527f61766520616c7265616479206265656e20636c61696d65640000000000000000606082015260800190565b60208082526027908201527f526166666c653a2052616e646f6d206e756d626572206e6f742067656e65726160408201527f7465642079657400000000000000000000000000000000000000000000000000606082015260800190565b60208082526023908201527f526166666c653a20526166666c652074696d6520686173206e6f74206578706960408201527f7265640000000000000000000000000000000000000000000000000000000000606082015260800190565b6020808252601f908201527f526166666c653a20526166666c652074696d6520686173206578706972656400604082015260600190565b60208082526027908201527f526166666c653a20496e636f727265637420646174612073656e74206f6e207460408201527f72616e7366657200000000000000000000000000000000000000000000000000606082015260800190565b60208082526027908201527f526166666c653a2052616e646f6d206e756d62657220616c726561647920676560408201527f6e65726174656400000000000000000000000000000000000000000000000000606082015260800190565b6020808252601e908201527f526166666c653a204d75737420626520636f6e7472616374206f776e65720000604082015260600190565b838152604060208083018290528282018490526000919060609081850187855b88811015612a725773ffffffffffffffffffffffffffffffffffffffff80612a318461205e565b168452848301358585015280612a4888850161205e565b16848801525081850135858401526080808301359084015260a09283019290910190600101612a0a565b50909998505050505050505050565b6000604080830185845260208281860152818651808452606093508387019150828801865b82811015612b01578151805173ffffffffffffffffffffffffffffffffffffffff9081168652868201518787015288820151168886015286810151878601526080908101519085015260a09093019290840190600101612aa6565b50919998505050505050505050565b60405181810167ffffffffffffffff81118282101715612b2c57fe5b60405291905056fea2646970667358221220eddb3811b1a1a9e972fc572fb48106b2fd939d04114853148d44a233bf0a0b1b64736f6c63430007030033",
  "linkReferences": {},
  "deployedLinkReferences": {}
}